{"abi":[{"type":"constructor","inputs":[],"stateMutability":"nonpayable"},{"type":"function","name":"approve","inputs":[{"name":"to","type":"address","internalType":"address"},{"name":"tokenId","type":"uint256","internalType":"uint256"}],"outputs":[],"stateMutability":"nonpayable"},{"type":"function","name":"balanceOf","inputs":[{"name":"owner","type":"address","internalType":"address"}],"outputs":[{"name":"","type":"uint256","internalType":"uint256"}],"stateMutability":"view"},{"type":"function","name":"getApproved","inputs":[{"name":"tokenId","type":"uint256","internalType":"uint256"}],"outputs":[{"name":"","type":"address","internalType":"address"}],"stateMutability":"view"},{"type":"function","name":"isApprovedForAll","inputs":[{"name":"owner","type":"address","internalType":"address"},{"name":"operator","type":"address","internalType":"address"}],"outputs":[{"name":"","type":"bool","internalType":"bool"}],"stateMutability":"view"},{"type":"function","name":"mint","inputs":[{"name":"to","type":"address","internalType":"address"}],"outputs":[{"name":"","type":"uint256","internalType":"uint256"}],"stateMutability":"nonpayable"},{"type":"function","name":"name","inputs":[],"outputs":[{"name":"","type":"string","internalType":"string"}],"stateMutability":"view"},{"type":"function","name":"owner","inputs":[],"outputs":[{"name":"","type":"address","internalType":"address"}],"stateMutability":"view"},{"type":"function","name":"ownerOf","inputs":[{"name":"tokenId","type":"uint256","internalType":"uint256"}],"outputs":[{"name":"","type":"address","internalType":"address"}],"stateMutability":"view"},{"type":"function","name":"renounceOwnership","inputs":[],"outputs":[],"stateMutability":"nonpayable"},{"type":"function","name":"royaltyInfo","inputs":[{"name":"tokenId","type":"uint256","internalType":"uint256"},{"name":"salePrice","type":"uint256","internalType":"uint256"}],"outputs":[{"name":"receiver","type":"address","internalType":"address"},{"name":"amount","type":"uint256","internalType":"uint256"}],"stateMutability":"view"},{"type":"function","name":"safeTransferFrom","inputs":[{"name":"from","type":"address","internalType":"address"},{"name":"to","type":"address","internalType":"address"},{"name":"tokenId","type":"uint256","internalType":"uint256"}],"outputs":[],"stateMutability":"nonpayable"},{"type":"function","name":"safeTransferFrom","inputs":[{"name":"from","type":"address","internalType":"address"},{"name":"to","type":"address","internalType":"address"},{"name":"tokenId","type":"uint256","internalType":"uint256"},{"name":"data","type":"bytes","internalType":"bytes"}],"outputs":[],"stateMutability":"nonpayable"},{"type":"function","name":"setApprovalForAll","inputs":[{"name":"operator","type":"address","internalType":"address"},{"name":"approved","type":"bool","internalType":"bool"}],"outputs":[],"stateMutability":"nonpayable"},{"type":"function","name":"setTokenRoyalty","inputs":[{"name":"tokenId","type":"uint256","internalType":"uint256"},{"name":"receiver","type":"address","internalType":"address"},{"name":"feeNumerator","type":"uint96","internalType":"uint96"}],"outputs":[],"stateMutability":"nonpayable"},{"type":"function","name":"supportsInterface","inputs":[{"name":"interfaceId","type":"bytes4","internalType":"bytes4"}],"outputs":[{"name":"","type":"bool","internalType":"bool"}],"stateMutability":"view"},{"type":"function","name":"symbol","inputs":[],"outputs":[{"name":"","type":"string","internalType":"string"}],"stateMutability":"view"},{"type":"function","name":"tokenURI","inputs":[{"name":"tokenId","type":"uint256","internalType":"uint256"}],"outputs":[{"name":"","type":"string","internalType":"string"}],"stateMutability":"view"},{"type":"function","name":"transferFrom","inputs":[{"name":"from","type":"address","internalType":"address"},{"name":"to","type":"address","internalType":"address"},{"name":"tokenId","type":"uint256","internalType":"uint256"}],"outputs":[],"stateMutability":"nonpayable"},{"type":"function","name":"transferOwnership","inputs":[{"name":"newOwner","type":"address","internalType":"address"}],"outputs":[],"stateMutability":"nonpayable"},{"type":"event","name":"Approval","inputs":[{"name":"owner","type":"address","indexed":true,"internalType":"address"},{"name":"approved","type":"address","indexed":true,"internalType":"address"},{"name":"tokenId","type":"uint256","indexed":true,"internalType":"uint256"}],"anonymous":false},{"type":"event","name":"ApprovalForAll","inputs":[{"name":"owner","type":"address","indexed":true,"internalType":"address"},{"name":"operator","type":"address","indexed":true,"internalType":"address"},{"name":"approved","type":"bool","indexed":false,"internalType":"bool"}],"anonymous":false},{"type":"event","name":"OwnershipTransferred","inputs":[{"name":"previousOwner","type":"address","indexed":true,"internalType":"address"},{"name":"newOwner","type":"address","indexed":true,"internalType":"address"}],"anonymous":false},{"type":"event","name":"TokenRoyaltySet","inputs":[{"name":"tokenId","type":"uint256","indexed":true,"internalType":"uint256"},{"name":"receiver","type":"address","indexed":false,"internalType":"address"},{"name":"feeNumerator","type":"uint96","indexed":false,"internalType":"uint96"}],"anonymous":false},{"type":"event","name":"Transfer","inputs":[{"name":"from","type":"address","indexed":true,"internalType":"address"},{"name":"to","type":"address","indexed":true,"internalType":"address"},{"name":"tokenId","type":"uint256","indexed":true,"internalType":"uint256"}],"anonymous":false},{"type":"error","name":"ERC2981InvalidDefaultRoyalty","inputs":[{"name":"numerator","type":"uint256","internalType":"uint256"},{"name":"denominator","type":"uint256","internalType":"uint256"}]},{"type":"error","name":"ERC2981InvalidDefaultRoyaltyReceiver","inputs":[{"name":"receiver","type":"address","internalType":"address"}]},{"type":"error","name":"ERC2981InvalidTokenRoyalty","inputs":[{"name":"tokenId","type":"uint256","internalType":"uint256"},{"name":"numerator","type":"uint256","internalType":"uint256"},{"name":"denominator","type":"uint256","internalType":"uint256"}]},{"type":"error","name":"ERC2981InvalidTokenRoyaltyReceiver","inputs":[{"name":"tokenId","type":"uint256","internalType":"uint256"},{"name":"receiver","type":"address","internalType":"address"}]},{"type":"error","name":"ERC721IncorrectOwner","inputs":[{"name":"sender","type":"address","internalType":"address"},{"name":"tokenId","type":"uint256","internalType":"uint256"},{"name":"owner","type":"address","internalType":"address"}]},{"type":"error","name":"ERC721InsufficientApproval","inputs":[{"name":"operator","type":"address","internalType":"address"},{"name":"tokenId","type":"uint256","internalType":"uint256"}]},{"type":"error","name":"ERC721InvalidApprover","inputs":[{"name":"approver","type":"address","internalType":"address"}]},{"type":"error","name":"ERC721InvalidOperator","inputs":[{"name":"operator","type":"address","internalType":"address"}]},{"type":"error","name":"ERC721InvalidOwner","inputs":[{"name":"owner","type":"address","internalType":"address"}]},{"type":"error","name":"ERC721InvalidReceiver","inputs":[{"name":"receiver","type":"address","internalType":"address"}]},{"type":"error","name":"ERC721InvalidSender","inputs":[{"name":"sender","type":"address","internalType":"address"}]},{"type":"error","name":"ERC721NonexistentToken","inputs":[{"name":"tokenId","type":"uint256","internalType":"uint256"}]},{"type":"error","name":"OwnableInvalidOwner","inputs":[{"name":"owner","type":"address","internalType":"address"}]},{"type":"error","name":"OwnableUnauthorizedAccount","inputs":[{"name":"account","type":"address","internalType":"address"}]}],"bytecode":{"object":"0x608060405234801561000f575f5ffd5b50336040518060400160405280600a81526020017f526f79616c74794e4654000000000000000000000000000000000000000000008152506040518060400160405280600481526020017f524e465400000000000000000000000000000000000000000000000000000000815250815f908161008b91906105df565b50806001908161009b91906105df565b5050505f73ffffffffffffffffffffffffffffffffffffffff168173ffffffffffffffffffffffffffffffffffffffff160361010e575f6040517f1e4fbdf700000000000000000000000000000000000000000000000000000000815260040161010591906106ed565b60405180910390fd5b61011d8161013560201b60201c565b50610130336101f46101f860201b60201c565b610783565b5f60085f9054906101000a900473ffffffffffffffffffffffffffffffffffffffff1690508160085f6101000a81548173ffffffffffffffffffffffffffffffffffffffff021916908373ffffffffffffffffffffffffffffffffffffffff1602179055508173ffffffffffffffffffffffffffffffffffffffff168173ffffffffffffffffffffffffffffffffffffffff167f8be0079c531659141344cd1fd0a4f28419497f9722a3daafe3b4186f6b6457e060405160405180910390a35050565b5f61020761039960201b60201c565b6bffffffffffffffffffffffff16905080826bffffffffffffffffffffffff16111561026c5781816040517f6f483d0900000000000000000000000000000000000000000000000000000000815260040161026392919061075c565b60405180910390fd5b5f73ffffffffffffffffffffffffffffffffffffffff168373ffffffffffffffffffffffffffffffffffffffff16036102dc575f6040517fb6d9900a0000000000000000000000000000000000000000000000000000000081526004016102d391906106ed565b60405180910390fd5b60405180604001604052808473ffffffffffffffffffffffffffffffffffffffff168152602001836bffffffffffffffffffffffff1681525060065f820151815f015f6101000a81548173ffffffffffffffffffffffffffffffffffffffff021916908373ffffffffffffffffffffffffffffffffffffffff1602179055506020820151815f0160146101000a8154816bffffffffffffffffffffffff02191690836bffffffffffffffffffffffff160217905550905050505050565b5f612710905090565b5f81519050919050565b7f4e487b71000000000000000000000000000000000000000000000000000000005f52604160045260245ffd5b7f4e487b71000000000000000000000000000000000000000000000000000000005f52602260045260245ffd5b5f600282049050600182168061041d57607f821691505b6020821081036104305761042f6103d9565b5b50919050565b5f819050815f5260205f209050919050565b5f6020601f8301049050919050565b5f82821b905092915050565b5f600883026104927fffffffffffffffffffffffffffffffffffffffffffffffffffffffffffffffff82610457565b61049c8683610457565b95508019841693508086168417925050509392505050565b5f819050919050565b5f819050919050565b5f6104e06104db6104d6846104b4565b6104bd565b6104b4565b9050919050565b5f819050919050565b6104f9836104c6565b61050d610505826104e7565b848454610463565b825550505050565b5f5f905090565b610524610515565b61052f8184846104f0565b505050565b5b81811015610552576105475f8261051c565b600181019050610535565b5050565b601f8211156105975761056881610436565b61057184610448565b81016020851015610580578190505b61059461058c85610448565b830182610534565b50505b505050565b5f82821c905092915050565b5f6105b75f198460080261059c565b1980831691505092915050565b5f6105cf83836105a8565b9150826002028217905092915050565b6105e8826103a2565b67ffffffffffffffff811115610601576106006103ac565b5b61060b8254610406565b610616828285610556565b5f60209050601f831160018114610647575f8415610635578287015190505b61063f85826105c4565b8655506106a6565b601f19841661065586610436565b5f5b8281101561067c57848901518255600182019150602085019450602081019050610657565b868310156106995784890151610695601f8916826105a8565b8355505b6001600288020188555050505b505050505050565b5f73ffffffffffffffffffffffffffffffffffffffff82169050919050565b5f6106d7826106ae565b9050919050565b6106e7816106cd565b82525050565b5f6020820190506107005f8301846106de565b92915050565b5f6bffffffffffffffffffffffff82169050919050565b5f61073761073261072d84610706565b6104bd565b6104b4565b9050919050565b6107478161071d565b82525050565b610756816104b4565b82525050565b5f60408201905061076f5f83018561073e565b61077c602083018461074d565b9392505050565b6126ef806107905f395ff3fe608060405234801561000f575f5ffd5b506004361061011f575f3560e01c80636a627842116100ab578063a22cb4651161006f578063a22cb46514610318578063b88d4fde14610334578063c87b56dd14610350578063e985e9c514610380578063f2fde38b146103b05761011f565b80636a6278421461027257806370a08231146102a2578063715018a6146102d25780638da5cb5b146102dc57806395d89b41146102fa5761011f565b806323b872dd116100f257806323b872dd146101bd5780632a55205a146101d957806342842e0e1461020a5780635944c753146102265780636352211e146102425761011f565b806301ffc9a71461012357806306fdde0314610153578063081812fc14610171578063095ea7b3146101a1575b5f5ffd5b61013d60048036038101906101389190611d1b565b6103cc565b60405161014a9190611d60565b60405180910390f35b61015b6103dd565b6040516101689190611de9565b60405180910390f35b61018b60048036038101906101869190611e3c565b61046c565b6040516101989190611ea6565b60405180910390f35b6101bb60048036038101906101b69190611ee9565b610487565b005b6101d760048036038101906101d29190611f27565b61049d565b005b6101f360048036038101906101ee9190611f77565b61059c565b604051610201929190611fc4565b60405180910390f35b610224600480360381019061021f9190611f27565b6106be565b005b610240600480360381019061023b919061202c565b6106dd565b005b61025c60048036038101906102579190611e3c565b61072f565b6040516102699190611ea6565b60405180910390f35b61028c6004803603810190610287919061207c565b610740565b60405161029991906120a7565b60405180910390f35b6102bc60048036038101906102b7919061207c565b610775565b6040516102c991906120a7565b60405180910390f35b6102da61082b565b005b6102e461083e565b6040516102f19190611ea6565b60405180910390f35b610302610866565b60405161030f9190611de9565b60405180910390f35b610332600480360381019061032d91906120ea565b6108f6565b005b61034e60048036038101906103499190612254565b61090c565b005b61036a60048036038101906103659190611e3c565b610931565b6040516103779190611de9565b60405180910390f35b61039a600480360381019061039591906122d4565b610997565b6040516103a79190611d60565b60405180910390f35b6103ca60048036038101906103c5919061207c565b610a25565b005b5f6103d682610aa9565b9050919050565b60605f80546103eb9061233f565b80601f01602080910402602001604051908101604052809291908181526020018280546104179061233f565b80156104625780601f1061043957610100808354040283529160200191610462565b820191905f5260205f20905b81548152906001019060200180831161044557829003601f168201915b5050505050905090565b5f61047682610b22565b5061048082610ba8565b9050919050565b6104998282610494610be1565b610be8565b5050565b5f73ffffffffffffffffffffffffffffffffffffffff168273ffffffffffffffffffffffffffffffffffffffff160361050d575f6040517f64a0ae920000000000000000000000000000000000000000000000000000000081526004016105049190611ea6565b60405180910390fd5b5f610520838361051b610be1565b610bfa565b90508373ffffffffffffffffffffffffffffffffffffffff168173ffffffffffffffffffffffffffffffffffffffff1614610596578382826040517f64283d7b00000000000000000000000000000000000000000000000000000000815260040161058d9392919061236f565b60405180910390fd5b50505050565b5f5f5f60075f8681526020019081526020015f2090505f815f015f9054906101000a900473ffffffffffffffffffffffffffffffffffffffff1690505f825f0160149054906101000a90046bffffffffffffffffffffffff1690505f73ffffffffffffffffffffffffffffffffffffffff168273ffffffffffffffffffffffffffffffffffffffff16036106705760065f015f9054906101000a900473ffffffffffffffffffffffffffffffffffffffff16915060065f0160149054906101000a90046bffffffffffffffffffffffff1690505b5f610679610e05565b6bffffffffffffffffffffffff16826bffffffffffffffffffffffff16886106a191906123d1565b6106ab919061243f565b9050828195509550505050509250929050565b6106d883838360405180602001604052805f81525061090c565b505050565b6106e5610e0e565b6106f0838383610e95565b827f7f5b076c952c0ec86e5425963c1326dd0f03a3595c19f81d765e8ff559a6e33c838360405161072292919061247e565b60405180910390a2505050565b5f61073982610b22565b9050919050565b5f610749610e0e565b5f60095f81548092919061075c906124a5565b91905055905061076c8382611044565b80915050919050565b5f5f73ffffffffffffffffffffffffffffffffffffffff168273ffffffffffffffffffffffffffffffffffffffff16036107e6575f6040517f89c62b640000000000000000000000000000000000000000000000000000000081526004016107dd9190611ea6565b60405180910390fd5b60035f8373ffffffffffffffffffffffffffffffffffffffff1673ffffffffffffffffffffffffffffffffffffffff1681526020019081526020015f20549050919050565b610833610e0e565b61083c5f611061565b565b5f60085f9054906101000a900473ffffffffffffffffffffffffffffffffffffffff16905090565b6060600180546108759061233f565b80601f01602080910402602001604051908101604052809291908181526020018280546108a19061233f565b80156108ec5780601f106108c3576101008083540402835291602001916108ec565b820191905f5260205f20905b8154815290600101906020018083116108cf57829003601f168201915b5050505050905090565b610908610901610be1565b8383611124565b5050565b61091784848461049d565b61092b610922610be1565b858585856112fd565b50505050565b606061093c82610b22565b505f6109466114a9565b90505f8151116109645760405180602001604052805f81525061098f565b8061096e846114bf565b60405160200161097f929190612526565b6040516020818303038152906040525b915050919050565b5f60055f8473ffffffffffffffffffffffffffffffffffffffff1673ffffffffffffffffffffffffffffffffffffffff1681526020019081526020015f205f8373ffffffffffffffffffffffffffffffffffffffff1673ffffffffffffffffffffffffffffffffffffffff1681526020019081526020015f205f9054906101000a900460ff16905092915050565b610a2d610e0e565b5f73ffffffffffffffffffffffffffffffffffffffff168173ffffffffffffffffffffffffffffffffffffffff1603610a9d575f6040517f1e4fbdf7000000000000000000000000000000000000000000000000000000008152600401610a949190611ea6565b60405180910390fd5b610aa681611061565b50565b5f7f2a55205a000000000000000000000000000000000000000000000000000000007bffffffffffffffffffffffffffffffffffffffffffffffffffffffff1916827bffffffffffffffffffffffffffffffffffffffffffffffffffffffff19161480610b1b5750610b1a82611589565b5b9050919050565b5f5f610b2d8361166a565b90505f73ffffffffffffffffffffffffffffffffffffffff168173ffffffffffffffffffffffffffffffffffffffff1603610b9f57826040517f7e273289000000000000000000000000000000000000000000000000000000008152600401610b9691906120a7565b60405180910390fd5b80915050919050565b5f60045f8381526020019081526020015f205f9054906101000a900473ffffffffffffffffffffffffffffffffffffffff169050919050565b5f33905090565b610bf583838360016116a3565b505050565b5f5f610c058461166a565b90505f73ffffffffffffffffffffffffffffffffffffffff168373ffffffffffffffffffffffffffffffffffffffff1614610c4657610c45818486611862565b5b5f73ffffffffffffffffffffffffffffffffffffffff168173ffffffffffffffffffffffffffffffffffffffff1614610cd157610c855f855f5f6116a3565b600160035f8373ffffffffffffffffffffffffffffffffffffffff1673ffffffffffffffffffffffffffffffffffffffff1681526020019081526020015f205f82825403925050819055505b5f73ffffffffffffffffffffffffffffffffffffffff168573ffffffffffffffffffffffffffffffffffffffff1614610d5057600160035f8773ffffffffffffffffffffffffffffffffffffffff1673ffffffffffffffffffffffffffffffffffffffff1681526020019081526020015f205f82825401925050819055505b8460025f8681526020019081526020015f205f6101000a81548173ffffffffffffffffffffffffffffffffffffffff021916908373ffffffffffffffffffffffffffffffffffffffff160217905550838573ffffffffffffffffffffffffffffffffffffffff168273ffffffffffffffffffffffffffffffffffffffff167fddf252ad1be2c89b69c2b068fc378daa952ba7f163c4a11628f55a4df523b3ef60405160405180910390a4809150509392505050565b5f612710905090565b610e16610be1565b73ffffffffffffffffffffffffffffffffffffffff16610e3461083e565b73ffffffffffffffffffffffffffffffffffffffff1614610e9357610e57610be1565b6040517f118cdaa7000000000000000000000000000000000000000000000000000000008152600401610e8a9190611ea6565b60405180910390fd5b565b5f610e9e610e05565b6bffffffffffffffffffffffff16905080826bffffffffffffffffffffffff161115610f05578382826040517fdfd1fc1b000000000000000000000000000000000000000000000000000000008152600401610efc93929190612582565b60405180910390fd5b5f73ffffffffffffffffffffffffffffffffffffffff168373ffffffffffffffffffffffffffffffffffffffff1603610f7757835f6040517f969f0852000000000000000000000000000000000000000000000000000000008152600401610f6e9291906125b7565b60405180910390fd5b60405180604001604052808473ffffffffffffffffffffffffffffffffffffffff168152602001836bffffffffffffffffffffffff1681525060075f8681526020019081526020015f205f820151815f015f6101000a81548173ffffffffffffffffffffffffffffffffffffffff021916908373ffffffffffffffffffffffffffffffffffffffff1602179055506020820151815f0160146101000a8154816bffffffffffffffffffffffff02191690836bffffffffffffffffffffffff16021790555090505050505050565b61105d828260405180602001604052805f815250611925565b5050565b5f60085f9054906101000a900473ffffffffffffffffffffffffffffffffffffffff1690508160085f6101000a81548173ffffffffffffffffffffffffffffffffffffffff021916908373ffffffffffffffffffffffffffffffffffffffff1602179055508173ffffffffffffffffffffffffffffffffffffffff168173ffffffffffffffffffffffffffffffffffffffff167f8be0079c531659141344cd1fd0a4f28419497f9722a3daafe3b4186f6b6457e060405160405180910390a35050565b5f73ffffffffffffffffffffffffffffffffffffffff168373ffffffffffffffffffffffffffffffffffffffff1603611194575f6040517fa9fbf51f00000000000000000000000000000000000000000000000000000000815260040161118b9190611ea6565b60405180910390fd5b5f73ffffffffffffffffffffffffffffffffffffffff168273ffffffffffffffffffffffffffffffffffffffff160361120457816040517f5b08ba180000000000000000000000000000000000000000000000000000000081526004016111fb9190611ea6565b60405180910390fd5b8060055f8573ffffffffffffffffffffffffffffffffffffffff1673ffffffffffffffffffffffffffffffffffffffff1681526020019081526020015f205f8473ffffffffffffffffffffffffffffffffffffffff1673ffffffffffffffffffffffffffffffffffffffff1681526020019081526020015f205f6101000a81548160ff0219169083151502179055508173ffffffffffffffffffffffffffffffffffffffff168373ffffffffffffffffffffffffffffffffffffffff167f17307eab39ab6107e8899845ad3d59bd9653f200f220920489ca2b5937696c31836040516112f09190611d60565b60405180910390a3505050565b5f8373ffffffffffffffffffffffffffffffffffffffff163b11156114a2578273ffffffffffffffffffffffffffffffffffffffff1663150b7a02868685856040518563ffffffff1660e01b815260040161135b9493929190612630565b6020604051808303815f875af192505050801561139657506040513d601f19601f82011682018060405250810190611393919061268e565b60015b611417573d805f81146113c4576040519150601f19603f3d011682016040523d82523d5f602084013e6113c9565b606091505b505f81510361140f57836040517f64a0ae920000000000000000000000000000000000000000000000000000000081526004016114069190611ea6565b60405180910390fd5b805160208201fd5b63150b7a0260e01b7bffffffffffffffffffffffffffffffffffffffffffffffffffffffff1916817bffffffffffffffffffffffffffffffffffffffffffffffffffffffff1916146114a057836040517f64a0ae920000000000000000000000000000000000000000000000000000000081526004016114979190611ea6565b60405180910390fd5b505b5050505050565b606060405180602001604052805f815250905090565b60605f60016114cd84611948565b0190505f8167ffffffffffffffff8111156114eb576114ea612130565b5b6040519080825280601f01601f19166020018201604052801561151d5781602001600182028036833780820191505090505b5090505f82602083010190505b60011561157e578080600190039150507f3031323334353637383961626364656600000000000000000000000000000000600a86061a8153600a858161157357611572612412565b5b0494505f850361152a575b819350505050919050565b5f7f80ac58cd000000000000000000000000000000000000000000000000000000007bffffffffffffffffffffffffffffffffffffffffffffffffffffffff1916827bffffffffffffffffffffffffffffffffffffffffffffffffffffffff1916148061165357507f5b5e139f000000000000000000000000000000000000000000000000000000007bffffffffffffffffffffffffffffffffffffffffffffffffffffffff1916827bffffffffffffffffffffffffffffffffffffffffffffffffffffffff1916145b80611663575061166282611a99565b5b9050919050565b5f60025f8381526020019081526020015f205f9054906101000a900473ffffffffffffffffffffffffffffffffffffffff169050919050565b80806116db57505f73ffffffffffffffffffffffffffffffffffffffff168273ffffffffffffffffffffffffffffffffffffffff1614155b1561180d575f6116ea84610b22565b90505f73ffffffffffffffffffffffffffffffffffffffff168373ffffffffffffffffffffffffffffffffffffffff161415801561175457508273ffffffffffffffffffffffffffffffffffffffff168173ffffffffffffffffffffffffffffffffffffffff1614155b801561176757506117658184610997565b155b156117a957826040517fa9fbf51f0000000000000000000000000000000000000000000000000000000081526004016117a09190611ea6565b60405180910390fd5b811561180b57838573ffffffffffffffffffffffffffffffffffffffff168273ffffffffffffffffffffffffffffffffffffffff167f8c5be1e5ebec7d5bd14f71427d1e84f3dd0314c0f7b2291e5b200ac8c7c3b92560405160405180910390a45b505b8360045f8581526020019081526020015f205f6101000a81548173ffffffffffffffffffffffffffffffffffffffff021916908373ffffffffffffffffffffffffffffffffffffffff16021790555050505050565b61186d838383611b02565b611920575f73ffffffffffffffffffffffffffffffffffffffff168373ffffffffffffffffffffffffffffffffffffffff16036118e157806040517f7e2732890000000000000000000000000000000000000000000000000000000081526004016118d891906120a7565b60405180910390fd5b81816040517f177e802f000000000000000000000000000000000000000000000000000000008152600401611917929190611fc4565b60405180910390fd5b505050565b61192f8383611bc2565b61194361193a610be1565b5f8585856112fd565b505050565b5f5f5f90507a184f03e93ff9f4daa797ed6e38ed64bf6a1f01000000000000000083106119a4577a184f03e93ff9f4daa797ed6e38ed64bf6a1f010000000000000000838161199a57611999612412565b5b0492506040810190505b6d04ee2d6d415b85acef810000000083106119e1576d04ee2d6d415b85acef810000000083816119d7576119d6612412565b5b0492506020810190505b662386f26fc100008310611a1057662386f26fc100008381611a0657611a05612412565b5b0492506010810190505b6305f5e1008310611a39576305f5e1008381611a2f57611a2e612412565b5b0492506008810190505b6127108310611a5e576127108381611a5457611a53612412565b5b0492506004810190505b60648310611a815760648381611a7757611a76612412565b5b0492506002810190505b600a8310611a90576001810190505b80915050919050565b5f7f01ffc9a7000000000000000000000000000000000000000000000000000000007bffffffffffffffffffffffffffffffffffffffffffffffffffffffff1916827bffffffffffffffffffffffffffffffffffffffffffffffffffffffff1916149050919050565b5f5f73ffffffffffffffffffffffffffffffffffffffff168373ffffffffffffffffffffffffffffffffffffffff1614158015611bb957508273ffffffffffffffffffffffffffffffffffffffff168473ffffffffffffffffffffffffffffffffffffffff161480611b7a5750611b798484610997565b5b80611bb857508273ffffffffffffffffffffffffffffffffffffffff16611ba083610ba8565b73ffffffffffffffffffffffffffffffffffffffff16145b5b90509392505050565b5f73ffffffffffffffffffffffffffffffffffffffff168273ffffffffffffffffffffffffffffffffffffffff1603611c32575f6040517f64a0ae92000000000000000000000000000000000000000000000000000000008152600401611c299190611ea6565b60405180910390fd5b5f611c3e83835f610bfa565b90505f73ffffffffffffffffffffffffffffffffffffffff168173ffffffffffffffffffffffffffffffffffffffff1614611cb0575f6040517f73c6ac6e000000000000000000000000000000000000000000000000000000008152600401611ca79190611ea6565b60405180910390fd5b505050565b5f604051905090565b5f5ffd5b5f5ffd5b5f7fffffffff0000000000000000000000000000000000000000000000000000000082169050919050565b611cfa81611cc6565b8114611d04575f5ffd5b50565b5f81359050611d1581611cf1565b92915050565b5f60208284031215611d3057611d2f611cbe565b5b5f611d3d84828501611d07565b91505092915050565b5f8115159050919050565b611d5a81611d46565b82525050565b5f602082019050611d735f830184611d51565b92915050565b5f81519050919050565b5f82825260208201905092915050565b8281835e5f83830152505050565b5f601f19601f8301169050919050565b5f611dbb82611d79565b611dc58185611d83565b9350611dd5818560208601611d93565b611dde81611da1565b840191505092915050565b5f6020820190508181035f830152611e018184611db1565b905092915050565b5f819050919050565b611e1b81611e09565b8114611e25575f5ffd5b50565b5f81359050611e3681611e12565b92915050565b5f60208284031215611e5157611e50611cbe565b5b5f611e5e84828501611e28565b91505092915050565b5f73ffffffffffffffffffffffffffffffffffffffff82169050919050565b5f611e9082611e67565b9050919050565b611ea081611e86565b82525050565b5f602082019050611eb95f830184611e97565b92915050565b611ec881611e86565b8114611ed2575f5ffd5b50565b5f81359050611ee381611ebf565b92915050565b5f5f60408385031215611eff57611efe611cbe565b5b5f611f0c85828601611ed5565b9250506020611f1d85828601611e28565b9150509250929050565b5f5f5f60608486031215611f3e57611f3d611cbe565b5b5f611f4b86828701611ed5565b9350506020611f5c86828701611ed5565b9250506040611f6d86828701611e28565b9150509250925092565b5f5f60408385031215611f8d57611f8c611cbe565b5b5f611f9a85828601611e28565b9250506020611fab85828601611e28565b9150509250929050565b611fbe81611e09565b82525050565b5f604082019050611fd75f830185611e97565b611fe46020830184611fb5565b9392505050565b5f6bffffffffffffffffffffffff82169050919050565b61200b81611feb565b8114612015575f5ffd5b50565b5f8135905061202681612002565b92915050565b5f5f5f6060848603121561204357612042611cbe565b5b5f61205086828701611e28565b935050602061206186828701611ed5565b925050604061207286828701612018565b9150509250925092565b5f6020828403121561209157612090611cbe565b5b5f61209e84828501611ed5565b91505092915050565b5f6020820190506120ba5f830184611fb5565b92915050565b6120c981611d46565b81146120d3575f5ffd5b50565b5f813590506120e4816120c0565b92915050565b5f5f60408385031215612100576120ff611cbe565b5b5f61210d85828601611ed5565b925050602061211e858286016120d6565b9150509250929050565b5f5ffd5b5f5ffd5b7f4e487b71000000000000000000000000000000000000000000000000000000005f52604160045260245ffd5b61216682611da1565b810181811067ffffffffffffffff8211171561218557612184612130565b5b80604052505050565b5f612197611cb5565b90506121a3828261215d565b919050565b5f67ffffffffffffffff8211156121c2576121c1612130565b5b6121cb82611da1565b9050602081019050919050565b828183375f83830152505050565b5f6121f86121f3846121a8565b61218e565b9050828152602081018484840111156122145761221361212c565b5b61221f8482856121d8565b509392505050565b5f82601f83011261223b5761223a612128565b5b813561224b8482602086016121e6565b91505092915050565b5f5f5f5f6080858703121561226c5761226b611cbe565b5b5f61227987828801611ed5565b945050602061228a87828801611ed5565b935050604061229b87828801611e28565b925050606085013567ffffffffffffffff8111156122bc576122bb611cc2565b5b6122c887828801612227565b91505092959194509250565b5f5f604083850312156122ea576122e9611cbe565b5b5f6122f785828601611ed5565b925050602061230885828601611ed5565b9150509250929050565b7f4e487b71000000000000000000000000000000000000000000000000000000005f52602260045260245ffd5b5f600282049050600182168061235657607f821691505b60208210810361236957612368612312565b5b50919050565b5f6060820190506123825f830186611e97565b61238f6020830185611fb5565b61239c6040830184611e97565b949350505050565b7f4e487b71000000000000000000000000000000000000000000000000000000005f52601160045260245ffd5b5f6123db82611e09565b91506123e683611e09565b92508282026123f481611e09565b9150828204841483151761240b5761240a6123a4565b5b5092915050565b7f4e487b71000000000000000000000000000000000000000000000000000000005f52601260045260245ffd5b5f61244982611e09565b915061245483611e09565b92508261246457612463612412565b5b828204905092915050565b61247881611feb565b82525050565b5f6040820190506124915f830185611e97565b61249e602083018461246f565b9392505050565b5f6124af82611e09565b91507fffffffffffffffffffffffffffffffffffffffffffffffffffffffffffffffff82036124e1576124e06123a4565b5b600182019050919050565b5f81905092915050565b5f61250082611d79565b61250a81856124ec565b935061251a818560208601611d93565b80840191505092915050565b5f61253182856124f6565b915061253d82846124f6565b91508190509392505050565b5f819050919050565b5f61256c61256761256284611feb565b612549565b611e09565b9050919050565b61257c81612552565b82525050565b5f6060820190506125955f830186611fb5565b6125a26020830185612573565b6125af6040830184611fb5565b949350505050565b5f6040820190506125ca5f830185611fb5565b6125d76020830184611e97565b9392505050565b5f81519050919050565b5f82825260208201905092915050565b5f612602826125de565b61260c81856125e8565b935061261c818560208601611d93565b61262581611da1565b840191505092915050565b5f6080820190506126435f830187611e97565b6126506020830186611e97565b61265d6040830185611fb5565b818103606083015261266f81846125f8565b905095945050505050565b5f8151905061268881611cf1565b92915050565b5f602082840312156126a3576126a2611cbe565b5b5f6126b08482850161267a565b9150509291505056fea26469706673582212203fa8a322cb40fe7605d6ed2ec77e14c9cc14fcaa713ac32fc25ccbaadef8258e64736f6c634300081c0033","linkReferences":{}},"methodIdentifiers":{"approve(address,uint256)":"095ea7b3","balanceOf(address)":"70a08231","getApproved(uint256)":"081812fc","isApprovedForAll(address,address)":"e985e9c5","mint(address)":"6a627842","name()":"06fdde03","owner()":"8da5cb5b","ownerOf(uint256)":"6352211e","renounceOwnership()":"715018a6","royaltyInfo(uint256,uint256)":"2a55205a","safeTransferFrom(address,address,uint256)":"42842e0e","safeTransferFrom(address,address,uint256,bytes)":"b88d4fde","setApprovalForAll(address,bool)":"a22cb465","setTokenRoyalty(uint256,address,uint96)":"5944c753","supportsInterface(bytes4)":"01ffc9a7","symbol()":"95d89b41","tokenURI(uint256)":"c87b56dd","transferFrom(address,address,uint256)":"23b872dd","transferOwnership(address)":"f2fde38b"},"id":10}