{"abi":[{"type":"constructor","inputs":[],"stateMutability":"nonpayable"},{"type":"function","name":"approve","inputs":[{"name":"to","type":"address","internalType":"address"},{"name":"tokenId","type":"uint256","internalType":"uint256"}],"outputs":[],"stateMutability":"nonpayable"},{"type":"function","name":"balanceOf","inputs":[{"name":"owner","type":"address","internalType":"address"}],"outputs":[{"name":"","type":"uint256","internalType":"uint256"}],"stateMutability":"view"},{"type":"function","name":"getAgentProfile","inputs":[{"name":"agentId","type":"uint256","internalType":"uint256"}],"outputs":[{"name":"owner","type":"address","internalType":"address"},{"name":"uri","type":"string","internalType":"string"},{"name":"totalSupply","type":"uint256","internalType":"uint256"}],"stateMutability":"view"},{"type":"function","name":"getAllAgentIds","inputs":[],"outputs":[{"name":"","type":"uint256[]","internalType":"uint256[]"}],"stateMutability":"view"},{"type":"function","name":"getApproved","inputs":[{"name":"tokenId","type":"uint256","internalType":"uint256"}],"outputs":[{"name":"","type":"address","internalType":"address"}],"stateMutability":"view"},{"type":"function","name":"isApprovedForAll","inputs":[{"name":"owner","type":"address","internalType":"address"},{"name":"operator","type":"address","internalType":"address"}],"outputs":[{"name":"","type":"bool","internalType":"bool"}],"stateMutability":"view"},{"type":"function","name":"isRegistered","inputs":[{"name":"agentId","type":"uint256","internalType":"uint256"}],"outputs":[{"name":"","type":"bool","internalType":"bool"}],"stateMutability":"view"},{"type":"function","name":"name","inputs":[],"outputs":[{"name":"","type":"string","internalType":"string"}],"stateMutability":"view"},{"type":"function","name":"ownerOf","inputs":[{"name":"tokenId","type":"uint256","internalType":"uint256"}],"outputs":[{"name":"","type":"address","internalType":"address"}],"stateMutability":"view"},{"type":"function","name":"register","inputs":[{"name":"agentURI","type":"string","internalType":"string"}],"outputs":[{"name":"agentId","type":"uint256","internalType":"uint256"}],"stateMutability":"nonpayable"},{"type":"function","name":"safeTransferFrom","inputs":[{"name":"from","type":"address","internalType":"address"},{"name":"to","type":"address","internalType":"address"},{"name":"tokenId","type":"uint256","internalType":"uint256"}],"outputs":[],"stateMutability":"nonpayable"},{"type":"function","name":"safeTransferFrom","inputs":[{"name":"from","type":"address","internalType":"address"},{"name":"to","type":"address","internalType":"address"},{"name":"tokenId","type":"uint256","internalType":"uint256"},{"name":"data","type":"bytes","internalType":"bytes"}],"outputs":[],"stateMutability":"nonpayable"},{"type":"function","name":"setAgentURI","inputs":[{"name":"agentId","type":"uint256","internalType":"uint256"},{"name":"newURI","type":"string","internalType":"string"}],"outputs":[],"stateMutability":"nonpayable"},{"type":"function","name":"setApprovalForAll","inputs":[{"name":"operator","type":"address","internalType":"address"},{"name":"approved","type":"bool","internalType":"bool"}],"outputs":[],"stateMutability":"nonpayable"},{"type":"function","name":"supportsInterface","inputs":[{"name":"interfaceId","type":"bytes4","internalType":"bytes4"}],"outputs":[{"name":"","type":"bool","internalType":"bool"}],"stateMutability":"view"},{"type":"function","name":"symbol","inputs":[],"outputs":[{"name":"","type":"string","internalType":"string"}],"stateMutability":"view"},{"type":"function","name":"tokenURI","inputs":[{"name":"tokenId","type":"uint256","internalType":"uint256"}],"outputs":[{"name":"","type":"string","internalType":"string"}],"stateMutability":"view"},{"type":"function","name":"totalAgents","inputs":[],"outputs":[{"name":"","type":"uint256","internalType":"uint256"}],"stateMutability":"view"},{"type":"function","name":"transferFrom","inputs":[{"name":"from","type":"address","internalType":"address"},{"name":"to","type":"address","internalType":"address"},{"name":"tokenId","type":"uint256","internalType":"uint256"}],"outputs":[],"stateMutability":"nonpayable"},{"type":"event","name":"Approval","inputs":[{"name":"owner","type":"address","indexed":true,"internalType":"address"},{"name":"approved","type":"address","indexed":true,"internalType":"address"},{"name":"tokenId","type":"uint256","indexed":true,"internalType":"uint256"}],"anonymous":false},{"type":"event","name":"ApprovalForAll","inputs":[{"name":"owner","type":"address","indexed":true,"internalType":"address"},{"name":"operator","type":"address","indexed":true,"internalType":"address"},{"name":"approved","type":"bool","indexed":false,"internalType":"bool"}],"anonymous":false},{"type":"event","name":"BatchMetadataUpdate","inputs":[{"name":"_fromTokenId","type":"uint256","indexed":false,"internalType":"uint256"},{"name":"_toTokenId","type":"uint256","indexed":false,"internalType":"uint256"}],"anonymous":false},{"type":"event","name":"MetadataUpdate","inputs":[{"name":"_tokenId","type":"uint256","indexed":false,"internalType":"uint256"}],"anonymous":false},{"type":"event","name":"Registered","inputs":[{"name":"agentId","type":"uint256","indexed":true,"internalType":"uint256"},{"name":"agentURI","type":"string","indexed":false,"internalType":"string"},{"name":"owner","type":"address","indexed":true,"internalType":"address"}],"anonymous":false},{"type":"event","name":"Transfer","inputs":[{"name":"from","type":"address","indexed":true,"internalType":"address"},{"name":"to","type":"address","indexed":true,"internalType":"address"},{"name":"tokenId","type":"uint256","indexed":true,"internalType":"uint256"}],"anonymous":false},{"type":"event","name":"URIUpdated","inputs":[{"name":"agentId","type":"uint256","indexed":true,"internalType":"uint256"},{"name":"newURI","type":"string","indexed":false,"internalType":"string"},{"name":"updatedBy","type":"address","indexed":true,"internalType":"address"}],"anonymous":false},{"type":"error","name":"ERC721IncorrectOwner","inputs":[{"name":"sender","type":"address","internalType":"address"},{"name":"tokenId","type":"uint256","internalType":"uint256"},{"name":"owner","type":"address","internalType":"address"}]},{"type":"error","name":"ERC721InsufficientApproval","inputs":[{"name":"operator","type":"address","internalType":"address"},{"name":"tokenId","type":"uint256","internalType":"uint256"}]},{"type":"error","name":"ERC721InvalidApprover","inputs":[{"name":"approver","type":"address","internalType":"address"}]},{"type":"error","name":"ERC721InvalidOperator","inputs":[{"name":"operator","type":"address","internalType":"address"}]},{"type":"error","name":"ERC721InvalidOwner","inputs":[{"name":"owner","type":"address","internalType":"address"}]},{"type":"error","name":"ERC721InvalidReceiver","inputs":[{"name":"receiver","type":"address","internalType":"address"}]},{"type":"error","name":"ERC721InvalidSender","inputs":[{"name":"sender","type":"address","internalType":"address"}]},{"type":"error","name":"ERC721NonexistentToken","inputs":[{"name":"tokenId","type":"uint256","internalType":"uint256"}]}],"bytecode":{"object":"0x608060405234801561000f575f5ffd5b506040518060400160405280601681526020017f45524338303034204167656e74204964656e74697479000000000000000000008152506040518060400160405280600581526020017f4147454e54000000000000000000000000000000000000000000000000000000815250815f908161008a91906102e7565b50806001908161009a91906102e7565b50505060016007819055506103b6565b5f81519050919050565b7f4e487b71000000000000000000000000000000000000000000000000000000005f52604160045260245ffd5b7f4e487b71000000000000000000000000000000000000000000000000000000005f52602260045260245ffd5b5f600282049050600182168061012557607f821691505b602082108103610138576101376100e1565b5b50919050565b5f819050815f5260205f209050919050565b5f6020601f8301049050919050565b5f82821b905092915050565b5f6008830261019a7fffffffffffffffffffffffffffffffffffffffffffffffffffffffffffffffff8261015f565b6101a4868361015f565b95508019841693508086168417925050509392505050565b5f819050919050565b5f819050919050565b5f6101e86101e36101de846101bc565b6101c5565b6101bc565b9050919050565b5f819050919050565b610201836101ce565b61021561020d826101ef565b84845461016b565b825550505050565b5f5f905090565b61022c61021d565b6102378184846101f8565b505050565b5b8181101561025a5761024f5f82610224565b60018101905061023d565b5050565b601f82111561029f576102708161013e565b61027984610150565b81016020851015610288578190505b61029c61029485610150565b83018261023c565b50505b505050565b5f82821c905092915050565b5f6102bf5f19846008026102a4565b1980831691505092915050565b5f6102d783836102b0565b9150826002028217905092915050565b6102f0826100aa565b67ffffffffffffffff811115610309576103086100b4565b5b610313825461010e565b61031e82828561025e565b5f60209050601f83116001811461034f575f841561033d578287015190505b61034785826102cc565b8655506103ae565b601f19841661035d8661013e565b5f5b828110156103845784890151825560018201915060208501945060208101905061035f565b868310156103a1578489015161039d601f8916826102b0565b8355505b6001600288020188555050505b505050505050565b612925806103c35f395ff3fe608060405234801561000f575f5ffd5b506004361061011f575f3560e01c80636352211e116100ab578063c50537121161006f578063c505371214610315578063c87b56dd14610333578063e985e9c514610363578063f098a7ae14610393578063f2c298be146103c55761011f565b80636352211e1461025f57806370a082311461028f57806395d89b41146102bf578063a22cb465146102dd578063b88d4fde146102f95761011f565b80630af28bd3116100f25780630af28bd3146101bd5780631136a595146101d957806323b872dd146101f757806342842e0e14610213578063579a69881461022f5761011f565b806301ffc9a71461012357806306fdde0314610153578063081812fc14610171578063095ea7b3146101a1575b5f5ffd5b61013d60048036038101906101389190611c1f565b6103f5565b60405161014a9190611c64565b60405180910390f35b61015b610406565b6040516101689190611ced565b60405180910390f35b61018b60048036038101906101869190611d40565b610495565b6040516101989190611daa565b60405180910390f35b6101bb60048036038101906101b69190611ded565b6104b0565b005b6101d760048036038101906101d29190611e8c565b6104c6565b005b6101e16105df565b6040516101ee9190611fa0565b60405180910390f35b610211600480360381019061020c9190611fc0565b610635565b005b61022d60048036038101906102289190611fc0565b610734565b005b61024960048036038101906102449190611d40565b610753565b6040516102569190611c64565b60405180910390f35b61027960048036038101906102749190611d40565b610793565b6040516102869190611daa565b60405180910390f35b6102a960048036038101906102a49190612010565b6107a4565b6040516102b6919061204a565b60405180910390f35b6102c761085a565b6040516102d49190611ced565b60405180910390f35b6102f760048036038101906102f2919061208d565b6108ea565b005b610313600480360381019061030e91906121f3565b610900565b005b61031d610925565b60405161032a919061204a565b60405180910390f35b61034d60048036038101906103489190611d40565b610931565b60405161035a9190611ced565b60405180910390f35b61037d60048036038101906103789190612273565b610943565b60405161038a9190611c64565b60405180910390f35b6103ad60048036038101906103a89190611d40565b6109d1565b6040516103bc939291906122b1565b60405180910390f35b6103df60048036038101906103da91906122ed565b6109fa565b6040516103ec919061204a565b60405180910390f35b5f6103ff82610aeb565b9050919050565b60605f805461041490612365565b80601f016020809104026020016040519081016040528092919081815260200182805461044090612365565b801561048b5780601f106104625761010080835404028352916020019161048b565b820191905f5260205f20905b81548152906001019060200180831161046e57829003601f168201915b5050505050905090565b5f61049f82610b4b565b506104a982610bd1565b9050919050565b6104c282826104bd610c0a565b610c11565b5050565b3373ffffffffffffffffffffffffffffffffffffffff166104e684610793565b73ffffffffffffffffffffffffffffffffffffffff161461053c576040517f08c379a0000000000000000000000000000000000000000000000000000000008152600401610533906123df565b60405180910390fd5b6105898383838080601f0160208091040260200160405190810160405280939291908181526020018383808284375f81840152601f19601f82011690508083019250505050505050610c23565b3373ffffffffffffffffffffffffffffffffffffffff16837f3a2c7fffc2cba7582c690e3b82c453ea02a308326a98a3ad7576c606336409fb84846040516105d2929190612429565b60405180910390a3505050565b6060600880548060200260200160405190810160405280929190818152602001828054801561062b57602002820191905f5260205f20905b815481526020019060010190808311610617575b5050505050905090565b5f73ffffffffffffffffffffffffffffffffffffffff168273ffffffffffffffffffffffffffffffffffffffff16036106a5575f6040517f64a0ae9200000000000000000000000000000000000000000000000000000000815260040161069c9190611daa565b60405180910390fd5b5f6106b883836106b3610c0a565b610c7d565b90508373ffffffffffffffffffffffffffffffffffffffff168173ffffffffffffffffffffffffffffffffffffffff161461072e578382826040517f64283d7b0000000000000000000000000000000000000000000000000000000081526004016107259392919061244b565b60405180910390fd5b50505050565b61074e83838360405180602001604052805f815250610900565b505050565b5f5f73ffffffffffffffffffffffffffffffffffffffff1661077483610e88565b73ffffffffffffffffffffffffffffffffffffffff1614159050919050565b5f61079d82610b4b565b9050919050565b5f5f73ffffffffffffffffffffffffffffffffffffffff168273ffffffffffffffffffffffffffffffffffffffff1603610815575f6040517f89c62b6400000000000000000000000000000000000000000000000000000000815260040161080c9190611daa565b60405180910390fd5b60035f8373ffffffffffffffffffffffffffffffffffffffff1673ffffffffffffffffffffffffffffffffffffffff1681526020019081526020015f20549050919050565b60606001805461086990612365565b80601f016020809104026020016040519081016040528092919081815260200182805461089590612365565b80156108e05780601f106108b7576101008083540402835291602001916108e0565b820191905f5260205f20905b8154815290600101906020018083116108c357829003601f168201915b5050505050905090565b6108fc6108f5610c0a565b8383610ec1565b5050565b61090b848484610635565b61091f610916610c0a565b8585858561109a565b50505050565b5f600880549050905090565b606061093c82611246565b9050919050565b5f60055f8473ffffffffffffffffffffffffffffffffffffffff1673ffffffffffffffffffffffffffffffffffffffff1681526020019081526020015f205f8373ffffffffffffffffffffffffffffffffffffffff1673ffffffffffffffffffffffffffffffffffffffff1681526020019081526020015f205f9054906101000a900460ff16905092915050565b5f60605f6109de84610793565b6109e785610931565b6008805490509250925092509193909250565b5f600754905060075f815480929190610a12906124ad565b9190505550610a2133826112c2565b610a6e8184848080601f0160208091040260200160405190810160405280939291908181526020018383808284375f81840152601f19601f82011690508083019250505050505050610c23565b600881908060018154018082558091505060019003905f5260205f20015f90919091909150553373ffffffffffffffffffffffffffffffffffffffff16817fca52e62c367d81bb2e328eb795f7c7ba24afb478408a26c0e201d155c449bc4a8585604051610add929190612429565b60405180910390a392915050565b5f634906490660e01b7bffffffffffffffffffffffffffffffffffffffffffffffffffffffff1916827bffffffffffffffffffffffffffffffffffffffffffffffffffffffff19161480610b445750610b43826112df565b5b9050919050565b5f5f610b5683610e88565b90505f73ffffffffffffffffffffffffffffffffffffffff168173ffffffffffffffffffffffffffffffffffffffff1603610bc857826040517f7e273289000000000000000000000000000000000000000000000000000000008152600401610bbf919061204a565b60405180910390fd5b80915050919050565b5f60045f8381526020019081526020015f205f9054906101000a900473ffffffffffffffffffffffffffffffffffffffff169050919050565b5f33905090565b610c1e83838360016113c0565b505050565b8060065f8481526020019081526020015f209081610c419190612694565b507ff8e1a15aba9398e019f0b49df1a4fde98ee17ae345cb5f6b5e2c27f5033e8ce782604051610c71919061204a565b60405180910390a15050565b5f5f610c8884610e88565b90505f73ffffffffffffffffffffffffffffffffffffffff168373ffffffffffffffffffffffffffffffffffffffff1614610cc957610cc881848661157f565b5b5f73ffffffffffffffffffffffffffffffffffffffff168173ffffffffffffffffffffffffffffffffffffffff1614610d5457610d085f855f5f6113c0565b600160035f8373ffffffffffffffffffffffffffffffffffffffff1673ffffffffffffffffffffffffffffffffffffffff1681526020019081526020015f205f82825403925050819055505b5f73ffffffffffffffffffffffffffffffffffffffff168573ffffffffffffffffffffffffffffffffffffffff1614610dd357600160035f8773ffffffffffffffffffffffffffffffffffffffff1673ffffffffffffffffffffffffffffffffffffffff1681526020019081526020015f205f82825401925050819055505b8460025f8681526020019081526020015f205f6101000a81548173ffffffffffffffffffffffffffffffffffffffff021916908373ffffffffffffffffffffffffffffffffffffffff160217905550838573ffffffffffffffffffffffffffffffffffffffff168273ffffffffffffffffffffffffffffffffffffffff167fddf252ad1be2c89b69c2b068fc378daa952ba7f163c4a11628f55a4df523b3ef60405160405180910390a4809150509392505050565b5f60025f8381526020019081526020015f205f9054906101000a900473ffffffffffffffffffffffffffffffffffffffff169050919050565b5f73ffffffffffffffffffffffffffffffffffffffff168373ffffffffffffffffffffffffffffffffffffffff1603610f31575f6040517fa9fbf51f000000000000000000000000000000000000000000000000000000008152600401610f289190611daa565b60405180910390fd5b5f73ffffffffffffffffffffffffffffffffffffffff168273ffffffffffffffffffffffffffffffffffffffff1603610fa157816040517f5b08ba18000000000000000000000000000000000000000000000000000000008152600401610f989190611daa565b60405180910390fd5b8060055f8573ffffffffffffffffffffffffffffffffffffffff1673ffffffffffffffffffffffffffffffffffffffff1681526020019081526020015f205f8473ffffffffffffffffffffffffffffffffffffffff1673ffffffffffffffffffffffffffffffffffffffff1681526020019081526020015f205f6101000a81548160ff0219169083151502179055508173ffffffffffffffffffffffffffffffffffffffff168373ffffffffffffffffffffffffffffffffffffffff167f17307eab39ab6107e8899845ad3d59bd9653f200f220920489ca2b5937696c318360405161108d9190611c64565b60405180910390a3505050565b5f8373ffffffffffffffffffffffffffffffffffffffff163b111561123f578273ffffffffffffffffffffffffffffffffffffffff1663150b7a02868685856040518563ffffffff1660e01b81526004016110f894939291906127b5565b6020604051808303815f875af192505050801561113357506040513d601f19601f820116820180604052508101906111309190612813565b60015b6111b4573d805f8114611161576040519150601f19603f3d011682016040523d82523d5f602084013e611166565b606091505b505f8151036111ac57836040517f64a0ae920000000000000000000000000000000000000000000000000000000081526004016111a39190611daa565b60405180910390fd5b805160208201fd5b63150b7a0260e01b7bffffffffffffffffffffffffffffffffffffffffffffffffffffffff1916817bffffffffffffffffffffffffffffffffffffffffffffffffffffffff19161461123d57836040517f64a0ae920000000000000000000000000000000000000000000000000000000081526004016112349190611daa565b60405180910390fd5b505b5050505050565b606061125182610b4b565b505f61125b611642565b90505f61126784611658565b90505f82510361127b5780925050506112bd565b5f815111156112af578181604051602001611297929190612878565b604051602081830303815290604052925050506112bd565b6112b8846116f9565b925050505b919050565b6112db828260405180602001604052805f81525061175f565b5050565b5f7f80ac58cd000000000000000000000000000000000000000000000000000000007bffffffffffffffffffffffffffffffffffffffffffffffffffffffff1916827bffffffffffffffffffffffffffffffffffffffffffffffffffffffff191614806113a957507f5b5e139f000000000000000000000000000000000000000000000000000000007bffffffffffffffffffffffffffffffffffffffffffffffffffffffff1916827bffffffffffffffffffffffffffffffffffffffffffffffffffffffff1916145b806113b957506113b882611782565b5b9050919050565b80806113f857505f73ffffffffffffffffffffffffffffffffffffffff168273ffffffffffffffffffffffffffffffffffffffff1614155b1561152a575f61140784610b4b565b90505f73ffffffffffffffffffffffffffffffffffffffff168373ffffffffffffffffffffffffffffffffffffffff161415801561147157508273ffffffffffffffffffffffffffffffffffffffff168173ffffffffffffffffffffffffffffffffffffffff1614155b801561148457506114828184610943565b155b156114c657826040517fa9fbf51f0000000000000000000000000000000000000000000000000000000081526004016114bd9190611daa565b60405180910390fd5b811561152857838573ffffffffffffffffffffffffffffffffffffffff168273ffffffffffffffffffffffffffffffffffffffff167f8c5be1e5ebec7d5bd14f71427d1e84f3dd0314c0f7b2291e5b200ac8c7c3b92560405160405180910390a45b505b8360045f8581526020019081526020015f205f6101000a81548173ffffffffffffffffffffffffffffffffffffffff021916908373ffffffffffffffffffffffffffffffffffffffff16021790555050505050565b61158a8383836117eb565b61163d575f73ffffffffffffffffffffffffffffffffffffffff168373ffffffffffffffffffffffffffffffffffffffff16036115fe57806040517f7e2732890000000000000000000000000000000000000000000000000000000081526004016115f5919061204a565b60405180910390fd5b81816040517f177e802f00000000000000000000000000000000000000000000000000000000815260040161163492919061289b565b60405180910390fd5b505050565b606060405180602001604052805f815250905090565b606060065f8381526020019081526020015f20805461167690612365565b80601f01602080910402602001604051908101604052809291908181526020018280546116a290612365565b80156116ed5780601f106116c4576101008083540402835291602001916116ed565b820191905f5260205f20905b8154815290600101906020018083116116d057829003601f168201915b50505050509050919050565b606061170482610b4b565b505f61170e611642565b90505f81511161172c5760405180602001604052805f815250611757565b80611736846118ab565b604051602001611747929190612878565b6040516020818303038152906040525b915050919050565b6117698383611975565b61177d611774610c0a565b5f85858561109a565b505050565b5f7f01ffc9a7000000000000000000000000000000000000000000000000000000007bffffffffffffffffffffffffffffffffffffffffffffffffffffffff1916827bffffffffffffffffffffffffffffffffffffffffffffffffffffffff1916149050919050565b5f5f73ffffffffffffffffffffffffffffffffffffffff168373ffffffffffffffffffffffffffffffffffffffff16141580156118a257508273ffffffffffffffffffffffffffffffffffffffff168473ffffffffffffffffffffffffffffffffffffffff16148061186357506118628484610943565b5b806118a157508273ffffffffffffffffffffffffffffffffffffffff1661188983610bd1565b73ffffffffffffffffffffffffffffffffffffffff16145b5b90509392505050565b60605f60016118b984611a68565b0190505f8167ffffffffffffffff8111156118d7576118d66120cf565b5b6040519080825280601f01601f1916602001820160405280156119095781602001600182028036833780820191505090505b5090505f82602083010190505b60011561196a578080600190039150507f3031323334353637383961626364656600000000000000000000000000000000600a86061a8153600a858161195f5761195e6128c2565b5b0494505f8503611916575b819350505050919050565b5f73ffffffffffffffffffffffffffffffffffffffff168273ffffffffffffffffffffffffffffffffffffffff16036119e5575f6040517f64a0ae920000000000000000000000000000000000000000000000000000000081526004016119dc9190611daa565b60405180910390fd5b5f6119f183835f610c7d565b90505f73ffffffffffffffffffffffffffffffffffffffff168173ffffffffffffffffffffffffffffffffffffffff1614611a63575f6040517f73c6ac6e000000000000000000000000000000000000000000000000000000008152600401611a5a9190611daa565b60405180910390fd5b505050565b5f5f5f90507a184f03e93ff9f4daa797ed6e38ed64bf6a1f0100000000000000008310611ac4577a184f03e93ff9f4daa797ed6e38ed64bf6a1f0100000000000000008381611aba57611ab96128c2565b5b0492506040810190505b6d04ee2d6d415b85acef81000000008310611b01576d04ee2d6d415b85acef81000000008381611af757611af66128c2565b5b0492506020810190505b662386f26fc100008310611b3057662386f26fc100008381611b2657611b256128c2565b5b0492506010810190505b6305f5e1008310611b59576305f5e1008381611b4f57611b4e6128c2565b5b0492506008810190505b6127108310611b7e576127108381611b7457611b736128c2565b5b0492506004810190505b60648310611ba15760648381611b9757611b966128c2565b5b0492506002810190505b600a8310611bb0576001810190505b80915050919050565b5f604051905090565b5f5ffd5b5f5ffd5b5f7fffffffff0000000000000000000000000000000000000000000000000000000082169050919050565b611bfe81611bca565b8114611c08575f5ffd5b50565b5f81359050611c1981611bf5565b92915050565b5f60208284031215611c3457611c33611bc2565b5b5f611c4184828501611c0b565b91505092915050565b5f8115159050919050565b611c5e81611c4a565b82525050565b5f602082019050611c775f830184611c55565b92915050565b5f81519050919050565b5f82825260208201905092915050565b8281835e5f83830152505050565b5f601f19601f8301169050919050565b5f611cbf82611c7d565b611cc98185611c87565b9350611cd9818560208601611c97565b611ce281611ca5565b840191505092915050565b5f6020820190508181035f830152611d058184611cb5565b905092915050565b5f819050919050565b611d1f81611d0d565b8114611d29575f5ffd5b50565b5f81359050611d3a81611d16565b92915050565b5f60208284031215611d5557611d54611bc2565b5b5f611d6284828501611d2c565b91505092915050565b5f73ffffffffffffffffffffffffffffffffffffffff82169050919050565b5f611d9482611d6b565b9050919050565b611da481611d8a565b82525050565b5f602082019050611dbd5f830184611d9b565b92915050565b611dcc81611d8a565b8114611dd6575f5ffd5b50565b5f81359050611de781611dc3565b92915050565b5f5f60408385031215611e0357611e02611bc2565b5b5f611e1085828601611dd9565b9250506020611e2185828601611d2c565b9150509250929050565b5f5ffd5b5f5ffd5b5f5ffd5b5f5f83601f840112611e4c57611e4b611e2b565b5b8235905067ffffffffffffffff811115611e6957611e68611e2f565b5b602083019150836001820283011115611e8557611e84611e33565b5b9250929050565b5f5f5f60408486031215611ea357611ea2611bc2565b5b5f611eb086828701611d2c565b935050602084013567ffffffffffffffff811115611ed157611ed0611bc6565b5b611edd86828701611e37565b92509250509250925092565b5f81519050919050565b5f82825260208201905092915050565b5f819050602082019050919050565b611f1b81611d0d565b82525050565b5f611f2c8383611f12565b60208301905092915050565b5f602082019050919050565b5f611f4e82611ee9565b611f588185611ef3565b9350611f6383611f03565b805f5b83811015611f93578151611f7a8882611f21565b9750611f8583611f38565b925050600181019050611f66565b5085935050505092915050565b5f6020820190508181035f830152611fb88184611f44565b905092915050565b5f5f5f60608486031215611fd757611fd6611bc2565b5b5f611fe486828701611dd9565b9350506020611ff586828701611dd9565b925050604061200686828701611d2c565b9150509250925092565b5f6020828403121561202557612024611bc2565b5b5f61203284828501611dd9565b91505092915050565b61204481611d0d565b82525050565b5f60208201905061205d5f83018461203b565b92915050565b61206c81611c4a565b8114612076575f5ffd5b50565b5f8135905061208781612063565b92915050565b5f5f604083850312156120a3576120a2611bc2565b5b5f6120b085828601611dd9565b92505060206120c185828601612079565b9150509250929050565b5f5ffd5b7f4e487b71000000000000000000000000000000000000000000000000000000005f52604160045260245ffd5b61210582611ca5565b810181811067ffffffffffffffff82111715612124576121236120cf565b5b80604052505050565b5f612136611bb9565b905061214282826120fc565b919050565b5f67ffffffffffffffff821115612161576121606120cf565b5b61216a82611ca5565b9050602081019050919050565b828183375f83830152505050565b5f61219761219284612147565b61212d565b9050828152602081018484840111156121b3576121b26120cb565b5b6121be848285612177565b509392505050565b5f82601f8301126121da576121d9611e2b565b5b81356121ea848260208601612185565b91505092915050565b5f5f5f5f6080858703121561220b5761220a611bc2565b5b5f61221887828801611dd9565b945050602061222987828801611dd9565b935050604061223a87828801611d2c565b925050606085013567ffffffffffffffff81111561225b5761225a611bc6565b5b612267878288016121c6565b91505092959194509250565b5f5f6040838503121561228957612288611bc2565b5b5f61229685828601611dd9565b92505060206122a785828601611dd9565b9150509250929050565b5f6060820190506122c45f830186611d9b565b81810360208301526122d68185611cb5565b90506122e5604083018461203b565b949350505050565b5f5f6020838503121561230357612302611bc2565b5b5f83013567ffffffffffffffff8111156123205761231f611bc6565b5b61232c85828601611e37565b92509250509250929050565b7f4e487b71000000000000000000000000000000000000000000000000000000005f52602260045260245ffd5b5f600282049050600182168061237c57607f821691505b60208210810361238f5761238e612338565b5b50919050565b7f4f6e6c79206167656e74206f776e65722063616e2075706461746500000000005f82015250565b5f6123c9601b83611c87565b91506123d482612395565b602082019050919050565b5f6020820190508181035f8301526123f6816123bd565b9050919050565b5f6124088385611c87565b9350612415838584612177565b61241e83611ca5565b840190509392505050565b5f6020820190508181035f8301526124428184866123fd565b90509392505050565b5f60608201905061245e5f830186611d9b565b61246b602083018561203b565b6124786040830184611d9b565b949350505050565b7f4e487b71000000000000000000000000000000000000000000000000000000005f52601160045260245ffd5b5f6124b782611d0d565b91507fffffffffffffffffffffffffffffffffffffffffffffffffffffffffffffffff82036124e9576124e8612480565b5b600182019050919050565b5f819050815f5260205f209050919050565b5f6020601f8301049050919050565b5f82821b905092915050565b5f600883026125507fffffffffffffffffffffffffffffffffffffffffffffffffffffffffffffffff82612515565b61255a8683612515565b95508019841693508086168417925050509392505050565b5f819050919050565b5f61259561259061258b84611d0d565b612572565b611d0d565b9050919050565b5f819050919050565b6125ae8361257b565b6125c26125ba8261259c565b848454612521565b825550505050565b5f5f905090565b6125d96125ca565b6125e48184846125a5565b505050565b5b81811015612607576125fc5f826125d1565b6001810190506125ea565b5050565b601f82111561264c5761261d816124f4565b61262684612506565b81016020851015612635578190505b61264961264185612506565b8301826125e9565b50505b505050565b5f82821c905092915050565b5f61266c5f1984600802612651565b1980831691505092915050565b5f612684838361265d565b9150826002028217905092915050565b61269d82611c7d565b67ffffffffffffffff8111156126b6576126b56120cf565b5b6126c08254612365565b6126cb82828561260b565b5f60209050601f8311600181146126fc575f84156126ea578287015190505b6126f48582612679565b86555061275b565b601f19841661270a866124f4565b5f5b828110156127315784890151825560018201915060208501945060208101905061270c565b8683101561274e578489015161274a601f89168261265d565b8355505b6001600288020188555050505b505050505050565b5f81519050919050565b5f82825260208201905092915050565b5f61278782612763565b612791818561276d565b93506127a1818560208601611c97565b6127aa81611ca5565b840191505092915050565b5f6080820190506127c85f830187611d9b565b6127d56020830186611d9b565b6127e2604083018561203b565b81810360608301526127f4818461277d565b905095945050505050565b5f8151905061280d81611bf5565b92915050565b5f6020828403121561282857612827611bc2565b5b5f612835848285016127ff565b91505092915050565b5f81905092915050565b5f61285282611c7d565b61285c818561283e565b935061286c818560208601611c97565b80840191505092915050565b5f6128838285612848565b915061288f8284612848565b91508190509392505050565b5f6040820190506128ae5f830185611d9b565b6128bb602083018461203b565b9392505050565b7f4e487b71000000000000000000000000000000000000000000000000000000005f52601260045260245ffdfea26469706673582212207e47ee7a65f263a49d5985c751bce8257e31a1977951241a459a167f8bdf07f864736f6c634300081c0033","linkReferences":{}},"methodIdentifiers":{"approve(address,uint256)":"095ea7b3","balanceOf(address)":"70a08231","getAgentProfile(uint256)":"f098a7ae","getAllAgentIds()":"1136a595","getApproved(uint256)":"081812fc","isApprovedForAll(address,address)":"e985e9c5","isRegistered(uint256)":"579a6988","name()":"06fdde03","ownerOf(uint256)":"6352211e","register(string)":"f2c298be","safeTransferFrom(address,address,uint256)":"42842e0e","safeTransferFrom(address,address,uint256,bytes)":"b88d4fde","setAgentURI(uint256,string)":"0af28bd3","setApprovalForAll(address,bool)":"a22cb465","supportsInterface(bytes4)":"01ffc9a7","symbol()":"95d89b41","tokenURI(uint256)":"c87b56dd","totalAgents()":"c5053712","transferFrom(address,address,uint256)":"23b872dd"},"id":22}