{"abi":[{"type":"constructor","inputs":[{"name":"_entryPoint","type":"address","internalType":"address"},{"name":"_sponsor","type":"address","internalType":"address"}],"stateMutability":"nonpayable"},{"type":"function","name":"entryPoint","inputs":[],"outputs":[{"name":"","type":"address","internalType":"address"}],"stateMutability":"view"},{"type":"function","name":"sponsor","inputs":[],"outputs":[{"name":"","type":"address","internalType":"address"}],"stateMutability":"view"},{"type":"function","name":"validatePaymasterUserOp","inputs":[{"name":"userOp","type":"tuple","internalType":"struct UserOperation","components":[{"name":"sender","type":"address","internalType":"address"},{"name":"nonce","type":"uint256","internalType":"uint256"},{"name":"initCode","type":"bytes","internalType":"bytes"},{"name":"callData","type":"bytes","internalType":"bytes"},{"name":"callGasLimit","type":"uint256","internalType":"uint256"},{"name":"verificationGasLimit","type":"uint256","internalType":"uint256"},{"name":"preVerificationGas","type":"uint256","internalType":"uint256"},{"name":"maxFeePerGas","type":"uint256","internalType":"uint256"},{"name":"maxPriorityFeePerGas","type":"uint256","internalType":"uint256"},{"name":"paymasterAndData","type":"bytes","internalType":"bytes"},{"name":"signature","type":"bytes","internalType":"bytes"}]},{"name":"userOpHash","type":"bytes32","internalType":"bytes32"}],"outputs":[],"stateMutability":"nonpayable"},{"type":"event","name":"GasSponsored","inputs":[{"name":"sender","type":"address","indexed":true,"internalType":"address"},{"name":"userOpHash","type":"bytes32","indexed":true,"internalType":"bytes32"},{"name":"sponsor","type":"address","indexed":true,"internalType":"address"}],"anonymous":false}],"bytecode":{"object":"0x60c060405234801561000f575f5ffd5b50604051610738380380610738833981810160405281019061003191906101da565b5f73ffffffffffffffffffffffffffffffffffffffff168273ffffffffffffffffffffffffffffffffffffffff160361009f576040517f08c379a000000000000000000000000000000000000000000000000000000000815260040161009690610272565b60405180910390fd5b5f73ffffffffffffffffffffffffffffffffffffffff168173ffffffffffffffffffffffffffffffffffffffff160361010d576040517f08c379a0000000000000000000000000000000000000000000000000000000008152600401610104906102da565b60405180910390fd5b8173ffffffffffffffffffffffffffffffffffffffff1660808173ffffffffffffffffffffffffffffffffffffffff16815250508073ffffffffffffffffffffffffffffffffffffffff1660a08173ffffffffffffffffffffffffffffffffffffffff168152505050506102f8565b5f5ffd5b5f73ffffffffffffffffffffffffffffffffffffffff82169050919050565b5f6101a982610180565b9050919050565b6101b98161019f565b81146101c3575f5ffd5b50565b5f815190506101d4816101b0565b92915050565b5f5f604083850312156101f0576101ef61017c565b5b5f6101fd858286016101c6565b925050602061020e858286016101c6565b9150509250929050565b5f82825260208201905092915050565b7f504d3a20656e747279506f696e742063616e6e6f74206265207a65726f0000005f82015250565b5f61025c601d83610218565b915061026782610228565b602082019050919050565b5f6020820190508181035f83015261028981610250565b9050919050565b7f504d3a2073706f6e736f722063616e6e6f74206265207a65726f0000000000005f82015250565b5f6102c4601a83610218565b91506102cf82610290565b602082019050919050565b5f6020820190508181035f8301526102f1816102b8565b9050919050565b60805160a0516104146103245f395f8181609d015261017301525f818160c1015260e501526104145ff3fe608060405234801561000f575f5ffd5b506004361061003f575f3560e01c806377c9366214610043578063b0d691fe14610061578063d847080c1461007f575b5f5ffd5b61004b61009b565b6040516100589190610240565b60405180910390f35b6100696100bf565b6040516100769190610240565b60405180910390f35b610099600480360381019061009491906102b7565b6100e3565b005b7f000000000000000000000000000000000000000000000000000000000000000081565b7f000000000000000000000000000000000000000000000000000000000000000081565b7f000000000000000000000000000000000000000000000000000000000000000073ffffffffffffffffffffffffffffffffffffffff163373ffffffffffffffffffffffffffffffffffffffff1614610171576040517f08c379a00000000000000000000000000000000000000000000000000000000081526004016101689061036b565b60405180910390fd5b7f000000000000000000000000000000000000000000000000000000000000000073ffffffffffffffffffffffffffffffffffffffff1681835f0160208101906101bb91906103b3565b73ffffffffffffffffffffffffffffffffffffffff167f4f46a0339ced29dd52144343ec62cbd4bfadbbf55fdcc874bbf241f7e1c224fe60405160405180910390a45050565b5f73ffffffffffffffffffffffffffffffffffffffff82169050919050565b5f61022a82610201565b9050919050565b61023a81610220565b82525050565b5f6020820190506102535f830184610231565b92915050565b5f5ffd5b5f5ffd5b5f5ffd5b5f610160828403121561027b5761027a610261565b5b81905092915050565b5f819050919050565b61029681610284565b81146102a0575f5ffd5b50565b5f813590506102b18161028d565b92915050565b5f5f604083850312156102cd576102cc610259565b5b5f83013567ffffffffffffffff8111156102ea576102e961025d565b5b6102f685828601610265565b9250506020610307858286016102a3565b9150509250929050565b5f82825260208201905092915050565b7f504d3a206f6e6c7920456e747279506f696e74000000000000000000000000005f82015250565b5f610355601383610311565b915061036082610321565b602082019050919050565b5f6020820190508181035f83015261038281610349565b9050919050565b61039281610220565b811461039c575f5ffd5b50565b5f813590506103ad81610389565b92915050565b5f602082840312156103c8576103c7610259565b5b5f6103d58482850161039f565b9150509291505056fea2646970667358221220a6ceeab4f8d62e229837380c502084d2df53f2a1435d1091a05fdc86857b69b264736f6c634300081c0033","linkReferences":{}},"methodIdentifiers":{"entryPoint()":"b0d691fe","sponsor()":"77c93662","validatePaymasterUserOp((address,uint256,bytes,bytes,uint256,uint256,uint256,uint256,uint256,bytes,bytes),bytes32)":"d847080c"},"id":17}