{"abi":[{"type":"function","name":"NOTE_TYPEHASH","inputs":[],"outputs":[{"name":"","type":"bytes32","internalType":"bytes32"}],"stateMutability":"view"},{"type":"function","name":"domainSeparatorV4","inputs":[],"outputs":[{"name":"","type":"bytes32","internalType":"bytes32"}],"stateMutability":"view"},{"type":"function","name":"eip712Domain","inputs":[],"outputs":[{"name":"fields","type":"bytes1","internalType":"bytes1"},{"name":"name","type":"string","internalType":"string"},{"name":"version","type":"string","internalType":"string"},{"name":"chainId","type":"uint256","internalType":"uint256"},{"name":"verifyingContract","type":"address","internalType":"address"},{"name":"salt","type":"bytes32","internalType":"bytes32"},{"name":"extensions","type":"uint256[]","internalType":"uint256[]"}],"stateMutability":"view"},{"type":"function","name":"hashNote","inputs":[{"name":"note","type":"tuple","internalType":"struct EIP712Demo.Note","components":[{"name":"content","type":"string","internalType":"string"},{"name":"nonce","type":"uint256","internalType":"uint256"}]}],"outputs":[{"name":"","type":"bytes32","internalType":"bytes32"}],"stateMutability":"pure"},{"type":"function","name":"noteSigners","inputs":[{"name":"","type":"uint256","internalType":"uint256"}],"outputs":[{"name":"","type":"address","internalType":"address"}],"stateMutability":"view"},{"type":"function","name":"notes","inputs":[{"name":"","type":"uint256","internalType":"uint256"}],"outputs":[{"name":"content","type":"string","internalType":"string"},{"name":"nonce","type":"uint256","internalType":"uint256"}],"stateMutability":"view"},{"type":"function","name":"notesCount","inputs":[],"outputs":[{"name":"","type":"uint256","internalType":"uint256"}],"stateMutability":"view"},{"type":"function","name":"signNote","inputs":[{"name":"note","type":"tuple","internalType":"struct EIP712Demo.Note","components":[{"name":"content","type":"string","internalType":"string"},{"name":"nonce","type":"uint256","internalType":"uint256"}]},{"name":"v","type":"uint8","internalType":"uint8"},{"name":"r","type":"bytes32","internalType":"bytes32"},{"name":"s","type":"bytes32","internalType":"bytes32"}],"outputs":[],"stateMutability":"nonpayable"},{"type":"function","name":"usedNonces","inputs":[{"name":"","type":"address","internalType":"address"},{"name":"","type":"uint256","internalType":"uint256"}],"outputs":[{"name":"","type":"bool","internalType":"bool"}],"stateMutability":"view"},{"type":"function","name":"verify","inputs":[{"name":"note","type":"tuple","internalType":"struct EIP712Demo.Note","components":[{"name":"content","type":"string","internalType":"string"},{"name":"nonce","type":"uint256","internalType":"uint256"}]},{"name":"expectedSigner","type":"address","internalType":"address"},{"name":"v","type":"uint8","internalType":"uint8"},{"name":"r","type":"bytes32","internalType":"bytes32"},{"name":"s","type":"bytes32","internalType":"bytes32"}],"outputs":[{"name":"","type":"bool","internalType":"bool"}],"stateMutability":"view"},{"type":"event","name":"EIP712DomainChanged","inputs":[],"anonymous":false},{"type":"event","name":"NoteSigned","inputs":[{"name":"signer","type":"address","indexed":true,"internalType":"address"},{"name":"noteIndex","type":"uint256","indexed":true,"internalType":"uint256"},{"name":"content","type":"string","indexed":false,"internalType":"string"},{"name":"nonce","type":"uint256","indexed":false,"internalType":"uint256"}],"anonymous":false},{"type":"error","name":"InvalidShortString","inputs":[]},{"type":"error","name":"StringTooLong","inputs":[{"name":"str","type":"string","internalType":"string"}]}],"bytecode":{"object":"0x610160604052348015610010575f5ffd5b506040518060400160405280600a81526020017f45495037313244656d6f000000000000000000000000000000000000000000008152506040518060400160405280600181526020017f31000000000000000000000000000000000000000000000000000000000000008152506100905f8361012b60201b90919060201c565b61012081815250506100ac60018261012b60201b90919060201c565b6101408181525050818051906020012060e08181525050808051906020012061010081815250504660a081815250506100e961017860201b60201c565b608081815250503073ffffffffffffffffffffffffffffffffffffffff1660c08173ffffffffffffffffffffffffffffffffffffffff1681525050505061071c565b5f60208351101561014c57610145836101d260201b60201c565b9050610172565b8261015c8361023760201b60201c565b5f01908161016a919061047d565b5060ff5f1b90505b92915050565b5f7f8b73c3c69bb8fe3d512ecc4cf759cc79239f7b179b0ffacaa9a75d522b39400f60e0516101005146306040516020016101b79594939291906105b2565b60405160208183030381529060405280519060200120905090565b5f5f829050601f8151111561021e57826040517f305a27a90000000000000000000000000000000000000000000000000000000081526004016102159190610669565b60405180910390fd5b80518161022a906106b6565b5f1c175f1b915050919050565b5f819050919050565b5f81519050919050565b7f4e487b71000000000000000000000000000000000000000000000000000000005f52604160045260245ffd5b7f4e487b71000000000000000000000000000000000000000000000000000000005f52602260045260245ffd5b5f60028204905060018216806102bb57607f821691505b6020821081036102ce576102cd610277565b5b50919050565b5f819050815f5260205f209050919050565b5f6020601f8301049050919050565b5f82821b905092915050565b5f600883026103307fffffffffffffffffffffffffffffffffffffffffffffffffffffffffffffffff826102f5565b61033a86836102f5565b95508019841693508086168417925050509392505050565b5f819050919050565b5f819050919050565b5f61037e61037961037484610352565b61035b565b610352565b9050919050565b5f819050919050565b61039783610364565b6103ab6103a382610385565b848454610301565b825550505050565b5f5f905090565b6103c26103b3565b6103cd81848461038e565b505050565b5b818110156103f0576103e55f826103ba565b6001810190506103d3565b5050565b601f82111561043557610406816102d4565b61040f846102e6565b8101602085101561041e578190505b61043261042a856102e6565b8301826103d2565b50505b505050565b5f82821c905092915050565b5f6104555f198460080261043a565b1980831691505092915050565b5f61046d8383610446565b9150826002028217905092915050565b61048682610240565b67ffffffffffffffff81111561049f5761049e61024a565b5b6104a982546102a4565b6104b48282856103f4565b5f60209050601f8311600181146104e5575f84156104d3578287015190505b6104dd8582610462565b865550610544565b601f1984166104f3866102d4565b5f5b8281101561051a578489015182556001820191506020850194506020810190506104f5565b868310156105375784890151610533601f891682610446565b8355505b6001600288020188555050505b505050505050565b5f819050919050565b61055e8161054c565b82525050565b61056d81610352565b82525050565b5f73ffffffffffffffffffffffffffffffffffffffff82169050919050565b5f61059c82610573565b9050919050565b6105ac81610592565b82525050565b5f60a0820190506105c55f830188610555565b6105d26020830187610555565b6105df6040830186610555565b6105ec6060830185610564565b6105f960808301846105a3565b9695505050505050565b5f82825260208201905092915050565b8281835e5f83830152505050565b5f601f19601f8301169050919050565b5f61063b82610240565b6106458185610603565b9350610655818560208601610613565b61065e81610621565b840191505092915050565b5f6020820190508181035f8301526106818184610631565b905092915050565b5f81519050919050565b5f819050602082019050919050565b5f6106ad825161054c565b80915050919050565b5f6106c082610689565b826106ca84610693565b90506106d5816106a2565b92506020821015610715576107107fffffffffffffffffffffffffffffffffffffffffffffffffffffffffffffffff836020036008026102f5565b831692505b5050919050565b60805160a05160c05160e05161010051610120516101405161188461076d5f395f61092e01525f6108f301525f6109e501525f6109c401525f61083801525f61088e01525f6108b701526118845ff3fe608060405234801561000f575f5ffd5b506004361061009b575f3560e01c806384b0196e1161006457806384b0196e14610158578063854454491461017c578063afdcbd421461019a578063bc853e03146101ca578063eeaa999b146101fa5761009b565b806203be521461009f5780634131aa7f146100bd57806361c3a7e6146100d95780636a8a68941461010a57806378e890ba1461013a575b5f5ffd5b6100a761022a565b6040516100b49190610bba565b60405180910390f35b6100d760048036038101906100d29190610c5d565b61024e565b005b6100f360048036038101906100ee9190610d10565b610538565b604051610101929190610dba565b60405180910390f35b610124600480360381019061011f9190610e42565b6105ed565b6040516101319190610e9a565b60405180910390f35b610142610617565b60405161014f9190610bba565b60405180910390f35b610160610625565b6040516101739796959493929190610fb3565b60405180910390f35b6101846106ca565b6040516101919190611035565b60405180910390f35b6101b460048036038101906101af919061104e565b6106d6565b6040516101c19190610bba565b60405180910390f35b6101e460048036038101906101df9190610d10565b610751565b6040516101f19190611095565b60405180910390f35b610214600480360381019061020f91906110ae565b610781565b6040516102219190610e9a565b60405180910390f35b7fea384e518b27eaf71bedcfa74591d3614d5caf5b5fdce008f4343839b131874a81565b60025f3373ffffffffffffffffffffffffffffffffffffffff1673ffffffffffffffffffffffffffffffffffffffff1681526020019081526020015f205f856020013581526020019081526020015f205f9054906101000a900460ff16156102eb576040517f08c379a00000000000000000000000000000000000000000000000000000000081526004016102e29061118b565b60405180910390fd5b5f6102fd6102f8866106d6565b61081c565b90505f6001828686866040515f815260200160405260405161032294939291906111b8565b6020604051602081039080840390855afa158015610342573d5f5f3e3d5ffd5b5050506020604051035190503373ffffffffffffffffffffffffffffffffffffffff168173ffffffffffffffffffffffffffffffffffffffff16146103bc576040517f08c379a00000000000000000000000000000000000000000000000000000000081526004016103b390611245565b60405180910390fd5b600160025f3373ffffffffffffffffffffffffffffffffffffffff1673ffffffffffffffffffffffffffffffffffffffff1681526020019081526020015f205f886020013581526020019081526020015f205f6101000a81548160ff021916908315150217905550600386908060018154018082558091505060019003905f5260205f2090600202015f90919091909150818161045991906116aa565b50503360045f600160038054905061047191906116e5565b81526020019081526020015f205f6101000a81548173ffffffffffffffffffffffffffffffffffffffff021916908373ffffffffffffffffffffffffffffffffffffffff16021790555060016003805490506104cd91906116e5565b3373ffffffffffffffffffffffffffffffffffffffff167f8e643edf4ca03914b45628650c85c0775a378a53ff78211b14302fa8e47e295488805f0190610514919061126f565b8a6020013560405161052893929190611752565b60405180910390a3505050505050565b60038181548110610547575f80fd5b905f5260205f2090600202015f91509050805f01805461056690611335565b80601f016020809104026020016040519081016040528092919081815260200182805461059290611335565b80156105dd5780601f106105b4576101008083540402835291602001916105dd565b820191905f5260205f20905b8154815290600101906020018083116105c057829003601f168201915b5050505050908060010154905082565b6002602052815f5260405f20602052805f5260405f205f915091509054906101000a900460ff1681565b5f610620610835565b905090565b5f6060805f5f5f60606106366108eb565b61063e610925565b46305f5f1b5f67ffffffffffffffff81111561065d5761065c6112db565b5b60405190808252806020026020018201604052801561068b5781602001602082028036833780820191505090505b507f0f00000000000000000000000000000000000000000000000000000000000000959493929190965096509650965096509650965090919293949596565b5f600380549050905090565b5f7fea384e518b27eaf71bedcfa74591d3614d5caf5b5fdce008f4343839b131874a82805f0190610707919061126f565b6040516107159291906117b0565b60405180910390208360200135604051602001610734939291906117c8565b604051602081830303815290604052805190602001209050919050565b6004602052805f5260405f205f915054906101000a900473ffffffffffffffffffffffffffffffffffffffff1681565b5f5f61079461078f886106d6565b61081c565b90508573ffffffffffffffffffffffffffffffffffffffff166001828787876040515f81526020016040526040516107cf94939291906111b8565b6020604051602081039080840390855afa1580156107ef573d5f5f3e3d5ffd5b5050506020604051035173ffffffffffffffffffffffffffffffffffffffff161491505095945050505050565b5f61082e610828610835565b83610960565b9050919050565b5f7f000000000000000000000000000000000000000000000000000000000000000073ffffffffffffffffffffffffffffffffffffffff163073ffffffffffffffffffffffffffffffffffffffff161480156108b057507f000000000000000000000000000000000000000000000000000000000000000046145b156108dd577f000000000000000000000000000000000000000000000000000000000000000090506108e8565b6108e56109a0565b90505b90565b60606109205f7f0000000000000000000000000000000000000000000000000000000000000000610a3590919063ffffffff16565b905090565b606061095b60017f0000000000000000000000000000000000000000000000000000000000000000610a3590919063ffffffff16565b905090565b5f6040517f190100000000000000000000000000000000000000000000000000000000000081528360028201528260228201526042812091505092915050565b5f7f8b73c3c69bb8fe3d512ecc4cf759cc79239f7b179b0ffacaa9a75d522b39400f7f00000000000000000000000000000000000000000000000000000000000000007f00000000000000000000000000000000000000000000000000000000000000004630604051602001610a1a9594939291906117fd565b60405160208183030381529060405280519060200120905090565b606060ff5f1b8314610a5157610a4a83610ae2565b9050610adc565b818054610a5d90611335565b80601f0160208091040260200160405190810160405280929190818152602001828054610a8990611335565b8015610ad45780601f10610aab57610100808354040283529160200191610ad4565b820191905f5260205f20905b815481529060010190602001808311610ab757829003601f168201915b505050505090505b92915050565b60605f610aee83610b54565b90505f602067ffffffffffffffff811115610b0c57610b0b6112db565b5b6040519080825280601f01601f191660200182016040528015610b3e5781602001600182028036833780820191505090505b5090508181528360208201528092505050919050565b5f5f60ff835f1c169050601f811115610b99576040517fb3512b0c00000000000000000000000000000000000000000000000000000000815260040160405180910390fd5b80915050919050565b5f819050919050565b610bb481610ba2565b82525050565b5f602082019050610bcd5f830184610bab565b92915050565b5f5ffd5b5f5ffd5b5f5ffd5b5f60408284031215610bf457610bf3610bdb565b5b81905092915050565b5f60ff82169050919050565b610c1281610bfd565b8114610c1c575f5ffd5b50565b5f81359050610c2d81610c09565b92915050565b610c3c81610ba2565b8114610c46575f5ffd5b50565b5f81359050610c5781610c33565b92915050565b5f5f5f5f60808587031215610c7557610c74610bd3565b5b5f85013567ffffffffffffffff811115610c9257610c91610bd7565b5b610c9e87828801610bdf565b9450506020610caf87828801610c1f565b9350506040610cc087828801610c49565b9250506060610cd187828801610c49565b91505092959194509250565b5f819050919050565b610cef81610cdd565b8114610cf9575f5ffd5b50565b5f81359050610d0a81610ce6565b92915050565b5f60208284031215610d2557610d24610bd3565b5b5f610d3284828501610cfc565b91505092915050565b5f81519050919050565b5f82825260208201905092915050565b8281835e5f83830152505050565b5f601f19601f8301169050919050565b5f610d7d82610d3b565b610d878185610d45565b9350610d97818560208601610d55565b610da081610d63565b840191505092915050565b610db481610cdd565b82525050565b5f6040820190508181035f830152610dd28185610d73565b9050610de16020830184610dab565b9392505050565b5f73ffffffffffffffffffffffffffffffffffffffff82169050919050565b5f610e1182610de8565b9050919050565b610e2181610e07565b8114610e2b575f5ffd5b50565b5f81359050610e3c81610e18565b92915050565b5f5f60408385031215610e5857610e57610bd3565b5b5f610e6585828601610e2e565b9250506020610e7685828601610cfc565b9150509250929050565b5f8115159050919050565b610e9481610e80565b82525050565b5f602082019050610ead5f830184610e8b565b92915050565b5f7fff0000000000000000000000000000000000000000000000000000000000000082169050919050565b610ee781610eb3565b82525050565b610ef681610e07565b82525050565b5f81519050919050565b5f82825260208201905092915050565b5f819050602082019050919050565b610f2e81610cdd565b82525050565b5f610f3f8383610f25565b60208301905092915050565b5f602082019050919050565b5f610f6182610efc565b610f6b8185610f06565b9350610f7683610f16565b805f5b83811015610fa6578151610f8d8882610f34565b9750610f9883610f4b565b925050600181019050610f79565b5085935050505092915050565b5f60e082019050610fc65f83018a610ede565b8181036020830152610fd88189610d73565b90508181036040830152610fec8188610d73565b9050610ffb6060830187610dab565b6110086080830186610eed565b61101560a0830185610bab565b81810360c08301526110278184610f57565b905098975050505050505050565b5f6020820190506110485f830184610dab565b92915050565b5f6020828403121561106357611062610bd3565b5b5f82013567ffffffffffffffff8111156110805761107f610bd7565b5b61108c84828501610bdf565b91505092915050565b5f6020820190506110a85f830184610eed565b92915050565b5f5f5f5f5f60a086880312156110c7576110c6610bd3565b5b5f86013567ffffffffffffffff8111156110e4576110e3610bd7565b5b6110f088828901610bdf565b955050602061110188828901610e2e565b945050604061111288828901610c1f565b935050606061112388828901610c49565b925050608061113488828901610c49565b9150509295509295909350565b7f4e6f6e636520616c7265616479207573656400000000000000000000000000005f82015250565b5f611175601283610d45565b915061118082611141565b602082019050919050565b5f6020820190508181035f8301526111a281611169565b9050919050565b6111b281610bfd565b82525050565b5f6080820190506111cb5f830187610bab565b6111d860208301866111a9565b6111e56040830185610bab565b6111f26060830184610bab565b95945050505050565b7f496e76616c6964207369676e61747572650000000000000000000000000000005f82015250565b5f61122f601183610d45565b915061123a826111fb565b602082019050919050565b5f6020820190508181035f83015261125c81611223565b9050919050565b5f5ffd5b5f5ffd5b5f5ffd5b5f5f8335600160200384360303811261128b5761128a611263565b5b80840192508235915067ffffffffffffffff8211156112ad576112ac611267565b5b6020830192506001820236038313156112c9576112c861126b565b5b509250929050565b5f82905092915050565b7f4e487b71000000000000000000000000000000000000000000000000000000005f52604160045260245ffd5b7f4e487b71000000000000000000000000000000000000000000000000000000005f52602260045260245ffd5b5f600282049050600182168061134c57607f821691505b60208210810361135f5761135e611308565b5b50919050565b5f819050815f5260205f209050919050565b5f6020601f8301049050919050565b5f82821b905092915050565b5f600883026113c17fffffffffffffffffffffffffffffffffffffffffffffffffffffffffffffffff82611386565b6113cb8683611386565b95508019841693508086168417925050509392505050565b5f819050919050565b5f6114066114016113fc84610cdd565b6113e3565b610cdd565b9050919050565b5f819050919050565b61141f836113ec565b61143361142b8261140d565b848454611392565b825550505050565b5f5f905090565b61144a61143b565b611455818484611416565b505050565b5b818110156114785761146d5f82611442565b60018101905061145b565b5050565b601f8211156114bd5761148e81611365565b61149784611377565b810160208510156114a6578190505b6114ba6114b285611377565b83018261145a565b50505b505050565b5f82821c905092915050565b5f6114dd5f19846008026114c2565b1980831691505092915050565b5f6114f583836114ce565b9150826002028217905092915050565b61150f83836112d1565b67ffffffffffffffff811115611528576115276112db565b5b6115328254611335565b61153d82828561147c565b5f601f83116001811461156a575f8415611558578287013590505b61156285826114ea565b8655506115c9565b601f19841661157886611365565b5f5b8281101561159f5784890135825560018201915060208501945060208101905061157a565b868310156115bc57848901356115b8601f8916826114ce565b8355505b6001600288020188555050505b50505050505050565b6115dd838383611505565b505050565b5f81356115ee81610ce6565b80915050919050565b5f815f1b9050919050565b5f7fffffffffffffffffffffffffffffffffffffffffffffffffffffffffffffffff61162d846115f7565b9350801983169250808416831791505092915050565b61164c826113ec565b61165f6116588261140d565b8354611602565b8255505050565b5f81015f8301611676818561126f565b6116818183866115d2565b50505050600181016020830180611697816115e2565b90506116a38184611643565b5050505050565b6116b48282611666565b5050565b7f4e487b71000000000000000000000000000000000000000000000000000000005f52601160045260245ffd5b5f6116ef82610cdd565b91506116fa83610cdd565b9250828203905081811115611712576117116116b8565b5b92915050565b828183375f83830152505050565b5f6117318385610d45565b935061173e838584611718565b61174783610d63565b840190509392505050565b5f6040820190508181035f83015261176b818587611726565b905061177a6020830184610dab565b949350505050565b5f81905092915050565b5f6117978385611782565b93506117a4838584611718565b82840190509392505050565b5f6117bc82848661178c565b91508190509392505050565b5f6060820190506117db5f830186610bab565b6117e86020830185610bab565b6117f56040830184610dab565b949350505050565b5f60a0820190506118105f830188610bab565b61181d6020830187610bab565b61182a6040830186610bab565b6118376060830185610dab565b6118446080830184610eed565b969550505050505056fea26469706673582212208e26af45cd0f75ebade349a4928ac49ade4fe4b4d4c2afc438a57a4c4f6dd72464736f6c634300081c0033","linkReferences":{}},"methodIdentifiers":{"NOTE_TYPEHASH()":"0003be52","domainSeparatorV4()":"78e890ba","eip712Domain()":"84b0196e","hashNote((string,uint256))":"afdcbd42","noteSigners(uint256)":"bc853e03","notes(uint256)":"61c3a7e6","notesCount()":"85445449","signNote((string,uint256),uint8,bytes32,bytes32)":"4131aa7f","usedNonces(address,uint256)":"6a8a6894","verify((string,uint256),address,uint8,bytes32,bytes32)":"eeaa999b"},"id":0}