{"abi":[{"type":"constructor","inputs":[],"stateMutability":"nonpayable"},{"type":"function","name":"approve","inputs":[{"name":"to","type":"address","internalType":"address"},{"name":"tokenId","type":"uint256","internalType":"uint256"}],"outputs":[],"stateMutability":"nonpayable"},{"type":"function","name":"balanceOf","inputs":[{"name":"owner","type":"address","internalType":"address"}],"outputs":[{"name":"","type":"uint256","internalType":"uint256"}],"stateMutability":"view"},{"type":"function","name":"burn","inputs":[{"name":"tokenId","type":"uint256","internalType":"uint256"}],"outputs":[],"stateMutability":"nonpayable"},{"type":"function","name":"getApproved","inputs":[{"name":"tokenId","type":"uint256","internalType":"uint256"}],"outputs":[{"name":"","type":"address","internalType":"address"}],"stateMutability":"view"},{"type":"function","name":"isApprovedForAll","inputs":[{"name":"owner","type":"address","internalType":"address"},{"name":"operator","type":"address","internalType":"address"}],"outputs":[{"name":"","type":"bool","internalType":"bool"}],"stateMutability":"view"},{"type":"function","name":"mint","inputs":[{"name":"to","type":"address","internalType":"address"},{"name":"uri","type":"string","internalType":"string"}],"outputs":[{"name":"","type":"uint256","internalType":"uint256"}],"stateMutability":"nonpayable"},{"type":"function","name":"name","inputs":[],"outputs":[{"name":"","type":"string","internalType":"string"}],"stateMutability":"view"},{"type":"function","name":"owner","inputs":[],"outputs":[{"name":"","type":"address","internalType":"address"}],"stateMutability":"view"},{"type":"function","name":"ownerOf","inputs":[{"name":"tokenId","type":"uint256","internalType":"uint256"}],"outputs":[{"name":"","type":"address","internalType":"address"}],"stateMutability":"view"},{"type":"function","name":"renounceOwnership","inputs":[],"outputs":[],"stateMutability":"nonpayable"},{"type":"function","name":"safeTransferFrom","inputs":[{"name":"from","type":"address","internalType":"address"},{"name":"to","type":"address","internalType":"address"},{"name":"tokenId","type":"uint256","internalType":"uint256"}],"outputs":[],"stateMutability":"nonpayable"},{"type":"function","name":"safeTransferFrom","inputs":[{"name":"from","type":"address","internalType":"address"},{"name":"to","type":"address","internalType":"address"},{"name":"tokenId","type":"uint256","internalType":"uint256"},{"name":"data","type":"bytes","internalType":"bytes"}],"outputs":[],"stateMutability":"nonpayable"},{"type":"function","name":"setApprovalForAll","inputs":[{"name":"operator","type":"address","internalType":"address"},{"name":"approved","type":"bool","internalType":"bool"}],"outputs":[],"stateMutability":"nonpayable"},{"type":"function","name":"supportsInterface","inputs":[{"name":"interfaceId","type":"bytes4","internalType":"bytes4"}],"outputs":[{"name":"","type":"bool","internalType":"bool"}],"stateMutability":"view"},{"type":"function","name":"symbol","inputs":[],"outputs":[{"name":"","type":"string","internalType":"string"}],"stateMutability":"view"},{"type":"function","name":"tokenURI","inputs":[{"name":"tokenId","type":"uint256","internalType":"uint256"}],"outputs":[{"name":"","type":"string","internalType":"string"}],"stateMutability":"view"},{"type":"function","name":"totalSupply","inputs":[],"outputs":[{"name":"","type":"uint256","internalType":"uint256"}],"stateMutability":"view"},{"type":"function","name":"transferFrom","inputs":[{"name":"from","type":"address","internalType":"address"},{"name":"to","type":"address","internalType":"address"},{"name":"tokenId","type":"uint256","internalType":"uint256"}],"outputs":[],"stateMutability":"nonpayable"},{"type":"function","name":"transferOwnership","inputs":[{"name":"newOwner","type":"address","internalType":"address"}],"outputs":[],"stateMutability":"nonpayable"},{"type":"event","name":"Approval","inputs":[{"name":"owner","type":"address","indexed":true,"internalType":"address"},{"name":"approved","type":"address","indexed":true,"internalType":"address"},{"name":"tokenId","type":"uint256","indexed":true,"internalType":"uint256"}],"anonymous":false},{"type":"event","name":"ApprovalForAll","inputs":[{"name":"owner","type":"address","indexed":true,"internalType":"address"},{"name":"operator","type":"address","indexed":true,"internalType":"address"},{"name":"approved","type":"bool","indexed":false,"internalType":"bool"}],"anonymous":false},{"type":"event","name":"BatchMetadataUpdate","inputs":[{"name":"_fromTokenId","type":"uint256","indexed":false,"internalType":"uint256"},{"name":"_toTokenId","type":"uint256","indexed":false,"internalType":"uint256"}],"anonymous":false},{"type":"event","name":"MetadataUpdate","inputs":[{"name":"_tokenId","type":"uint256","indexed":false,"internalType":"uint256"}],"anonymous":false},{"type":"event","name":"OwnershipTransferred","inputs":[{"name":"previousOwner","type":"address","indexed":true,"internalType":"address"},{"name":"newOwner","type":"address","indexed":true,"internalType":"address"}],"anonymous":false},{"type":"event","name":"Transfer","inputs":[{"name":"from","type":"address","indexed":true,"internalType":"address"},{"name":"to","type":"address","indexed":true,"internalType":"address"},{"name":"tokenId","type":"uint256","indexed":true,"internalType":"uint256"}],"anonymous":false},{"type":"error","name":"ERC721IncorrectOwner","inputs":[{"name":"sender","type":"address","internalType":"address"},{"name":"tokenId","type":"uint256","internalType":"uint256"},{"name":"owner","type":"address","internalType":"address"}]},{"type":"error","name":"ERC721InsufficientApproval","inputs":[{"name":"operator","type":"address","internalType":"address"},{"name":"tokenId","type":"uint256","internalType":"uint256"}]},{"type":"error","name":"ERC721InvalidApprover","inputs":[{"name":"approver","type":"address","internalType":"address"}]},{"type":"error","name":"ERC721InvalidOperator","inputs":[{"name":"operator","type":"address","internalType":"address"}]},{"type":"error","name":"ERC721InvalidOwner","inputs":[{"name":"owner","type":"address","internalType":"address"}]},{"type":"error","name":"ERC721InvalidReceiver","inputs":[{"name":"receiver","type":"address","internalType":"address"}]},{"type":"error","name":"ERC721InvalidSender","inputs":[{"name":"sender","type":"address","internalType":"address"}]},{"type":"error","name":"ERC721NonexistentToken","inputs":[{"name":"tokenId","type":"uint256","internalType":"uint256"}]},{"type":"error","name":"OwnableInvalidOwner","inputs":[{"name":"owner","type":"address","internalType":"address"}]},{"type":"error","name":"OwnableUnauthorizedAccount","inputs":[{"name":"account","type":"address","internalType":"address"}]}],"bytecode":{"object":"0x608060405234801561000f575f5ffd5b50336040518060400160405280600d81526020017f4d79455243373231546f6b656e000000000000000000000000000000000000008152506040518060400160405280600481526020017f4d4e465400000000000000000000000000000000000000000000000000000000815250815f908161008b919061042b565b50806001908161009b919061042b565b5050505f73ffffffffffffffffffffffffffffffffffffffff168173ffffffffffffffffffffffffffffffffffffffff160361010e575f6040517f1e4fbdf70000000000000000000000000000000000000000000000000000000081526004016101059190610539565b60405180910390fd5b61011d8161012b60201b60201c565b506001600881905550610552565b5f60075f9054906101000a900473ffffffffffffffffffffffffffffffffffffffff1690508160075f6101000a81548173ffffffffffffffffffffffffffffffffffffffff021916908373ffffffffffffffffffffffffffffffffffffffff1602179055508173ffffffffffffffffffffffffffffffffffffffff168173ffffffffffffffffffffffffffffffffffffffff167f8be0079c531659141344cd1fd0a4f28419497f9722a3daafe3b4186f6b6457e060405160405180910390a35050565b5f81519050919050565b7f4e487b71000000000000000000000000000000000000000000000000000000005f52604160045260245ffd5b7f4e487b71000000000000000000000000000000000000000000000000000000005f52602260045260245ffd5b5f600282049050600182168061026957607f821691505b60208210810361027c5761027b610225565b5b50919050565b5f819050815f5260205f209050919050565b5f6020601f8301049050919050565b5f82821b905092915050565b5f600883026102de7fffffffffffffffffffffffffffffffffffffffffffffffffffffffffffffffff826102a3565b6102e886836102a3565b95508019841693508086168417925050509392505050565b5f819050919050565b5f819050919050565b5f61032c61032761032284610300565b610309565b610300565b9050919050565b5f819050919050565b61034583610312565b61035961035182610333565b8484546102af565b825550505050565b5f5f905090565b610370610361565b61037b81848461033c565b505050565b5b8181101561039e576103935f82610368565b600181019050610381565b5050565b601f8211156103e3576103b481610282565b6103bd84610294565b810160208510156103cc578190505b6103e06103d885610294565b830182610380565b50505b505050565b5f82821c905092915050565b5f6104035f19846008026103e8565b1980831691505092915050565b5f61041b83836103f4565b9150826002028217905092915050565b610434826101ee565b67ffffffffffffffff81111561044d5761044c6101f8565b5b6104578254610252565b6104628282856103a2565b5f60209050601f831160018114610493575f8415610481578287015190505b61048b8582610410565b8655506104f2565b601f1984166104a186610282565b5f5b828110156104c8578489015182556001820191506020850194506020810190506104a3565b868310156104e557848901516104e1601f8916826103f4565b8355505b6001600288020188555050505b505050505050565b5f73ffffffffffffffffffffffffffffffffffffffff82169050919050565b5f610523826104fa565b9050919050565b61053381610519565b82525050565b5f60208201905061054c5f83018461052a565b92915050565b6127508061055f5f395ff3fe608060405234801561000f575f5ffd5b506004361061011f575f3560e01c806370a08231116100ab578063b88d4fde1161006f578063b88d4fde146102f1578063c87b56dd1461030d578063d0def5211461033d578063e985e9c51461036d578063f2fde38b1461039d5761011f565b806370a082311461025f578063715018a61461028f5780638da5cb5b1461029957806395d89b41146102b7578063a22cb465146102d55761011f565b806318160ddd116100f257806318160ddd146101bd57806323b872dd146101db57806342842e0e146101f757806342966c68146102135780636352211e1461022f5761011f565b806301ffc9a71461012357806306fdde0314610153578063081812fc14610171578063095ea7b3146101a1575b5f5ffd5b61013d60048036038101906101389190611bed565b6103b9565b60405161014a9190611c32565b60405180910390f35b61015b6103ca565b6040516101689190611cbb565b60405180910390f35b61018b60048036038101906101869190611d0e565b610459565b6040516101989190611d78565b60405180910390f35b6101bb60048036038101906101b69190611dbb565b610474565b005b6101c561048a565b6040516101d29190611e08565b60405180910390f35b6101f560048036038101906101f09190611e21565b61049f565b005b610211600480360381019061020c9190611e21565b61059e565b005b61022d60048036038101906102289190611d0e565b6105bd565b005b61024960048036038101906102449190611d0e565b6105d1565b6040516102569190611d78565b60405180910390f35b61027960048036038101906102749190611e71565b6105e2565b6040516102869190611e08565b60405180910390f35b610297610698565b005b6102a16106ab565b6040516102ae9190611d78565b60405180910390f35b6102bf6106d3565b6040516102cc9190611cbb565b60405180910390f35b6102ef60048036038101906102ea9190611ec6565b610763565b005b61030b60048036038101906103069190612030565b610779565b005b61032760048036038101906103229190611d0e565b61079e565b6040516103349190611cbb565b60405180910390f35b6103576004803603810190610352919061214e565b6107b0565b6040516103649190611e08565b60405180910390f35b610387600480360381019061038291906121a8565b6107f4565b6040516103949190611c32565b60405180910390f35b6103b760048036038101906103b29190611e71565b610882565b005b5f6103c382610906565b9050919050565b60605f80546103d890612213565b80601f016020809104026020016040519081016040528092919081815260200182805461040490612213565b801561044f5780601f106104265761010080835404028352916020019161044f565b820191905f5260205f20905b81548152906001019060200180831161043257829003601f168201915b5050505050905090565b5f61046382610966565b5061046d826109ec565b9050919050565b6104868282610481610a25565b610a2c565b5050565b5f600160085461049a9190612270565b905090565b5f73ffffffffffffffffffffffffffffffffffffffff168273ffffffffffffffffffffffffffffffffffffffff160361050f575f6040517f64a0ae920000000000000000000000000000000000000000000000000000000081526004016105069190611d78565b60405180910390fd5b5f610522838361051d610a25565b610a3e565b90508373ffffffffffffffffffffffffffffffffffffffff168173ffffffffffffffffffffffffffffffffffffffff1614610598578382826040517f64283d7b00000000000000000000000000000000000000000000000000000000815260040161058f939291906122a3565b60405180910390fd5b50505050565b6105b883838360405180602001604052805f815250610779565b505050565b6105c5610c49565b6105ce81610cd0565b50565b5f6105db82610966565b9050919050565b5f5f73ffffffffffffffffffffffffffffffffffffffff168273ffffffffffffffffffffffffffffffffffffffff1603610653575f6040517f89c62b6400000000000000000000000000000000000000000000000000000000815260040161064a9190611d78565b60405180910390fd5b60035f8373ffffffffffffffffffffffffffffffffffffffff1673ffffffffffffffffffffffffffffffffffffffff1681526020019081526020015f20549050919050565b6106a0610c49565b6106a95f610d52565b565b5f60075f9054906101000a900473ffffffffffffffffffffffffffffffffffffffff16905090565b6060600180546106e290612213565b80601f016020809104026020016040519081016040528092919081815260200182805461070e90612213565b80156107595780601f1061073057610100808354040283529160200191610759565b820191905f5260205f20905b81548152906001019060200180831161073c57829003601f168201915b5050505050905090565b61077561076e610a25565b8383610e15565b5050565b61078484848461049f565b61079861078f610a25565b85858585610fee565b50505050565b60606107a98261119a565b9050919050565b5f6107b9610c49565b5f600854905060085f8154809291906107d1906122d8565b91905055506107e08482611216565b6107ea8184611309565b8091505092915050565b5f60055f8473ffffffffffffffffffffffffffffffffffffffff1673ffffffffffffffffffffffffffffffffffffffff1681526020019081526020015f205f8373ffffffffffffffffffffffffffffffffffffffff1673ffffffffffffffffffffffffffffffffffffffff1681526020019081526020015f205f9054906101000a900460ff16905092915050565b61088a610c49565b5f73ffffffffffffffffffffffffffffffffffffffff168173ffffffffffffffffffffffffffffffffffffffff16036108fa575f6040517f1e4fbdf70000000000000000000000000000000000000000000000000000000081526004016108f19190611d78565b60405180910390fd5b61090381610d52565b50565b5f634906490660e01b7bffffffffffffffffffffffffffffffffffffffffffffffffffffffff1916827bffffffffffffffffffffffffffffffffffffffffffffffffffffffff1916148061095f575061095e82611363565b5b9050919050565b5f5f61097183611444565b90505f73ffffffffffffffffffffffffffffffffffffffff168173ffffffffffffffffffffffffffffffffffffffff16036109e357826040517f7e2732890000000000000000000000000000000000000000000000000000000081526004016109da9190611e08565b60405180910390fd5b80915050919050565b5f60045f8381526020019081526020015f205f9054906101000a900473ffffffffffffffffffffffffffffffffffffffff169050919050565b5f33905090565b610a39838383600161147d565b505050565b5f5f610a4984611444565b90505f73ffffffffffffffffffffffffffffffffffffffff168373ffffffffffffffffffffffffffffffffffffffff1614610a8a57610a8981848661163c565b5b5f73ffffffffffffffffffffffffffffffffffffffff168173ffffffffffffffffffffffffffffffffffffffff1614610b1557610ac95f855f5f61147d565b600160035f8373ffffffffffffffffffffffffffffffffffffffff1673ffffffffffffffffffffffffffffffffffffffff1681526020019081526020015f205f82825403925050819055505b5f73ffffffffffffffffffffffffffffffffffffffff168573ffffffffffffffffffffffffffffffffffffffff1614610b9457600160035f8773ffffffffffffffffffffffffffffffffffffffff1673ffffffffffffffffffffffffffffffffffffffff1681526020019081526020015f205f82825401925050819055505b8460025f8681526020019081526020015f205f6101000a81548173ffffffffffffffffffffffffffffffffffffffff021916908373ffffffffffffffffffffffffffffffffffffffff160217905550838573ffffffffffffffffffffffffffffffffffffffff168273ffffffffffffffffffffffffffffffffffffffff167fddf252ad1be2c89b69c2b068fc378daa952ba7f163c4a11628f55a4df523b3ef60405160405180910390a4809150509392505050565b610c51610a25565b73ffffffffffffffffffffffffffffffffffffffff16610c6f6106ab565b73ffffffffffffffffffffffffffffffffffffffff1614610cce57610c92610a25565b6040517f118cdaa7000000000000000000000000000000000000000000000000000000008152600401610cc59190611d78565b60405180910390fd5b565b5f610cdc5f835f610a3e565b90505f73ffffffffffffffffffffffffffffffffffffffff168173ffffffffffffffffffffffffffffffffffffffff1603610d4e57816040517f7e273289000000000000000000000000000000000000000000000000000000008152600401610d459190611e08565b60405180910390fd5b5050565b5f60075f9054906101000a900473ffffffffffffffffffffffffffffffffffffffff1690508160075f6101000a81548173ffffffffffffffffffffffffffffffffffffffff021916908373ffffffffffffffffffffffffffffffffffffffff1602179055508173ffffffffffffffffffffffffffffffffffffffff168173ffffffffffffffffffffffffffffffffffffffff167f8be0079c531659141344cd1fd0a4f28419497f9722a3daafe3b4186f6b6457e060405160405180910390a35050565b5f73ffffffffffffffffffffffffffffffffffffffff168373ffffffffffffffffffffffffffffffffffffffff1603610e85575f6040517fa9fbf51f000000000000000000000000000000000000000000000000000000008152600401610e7c9190611d78565b60405180910390fd5b5f73ffffffffffffffffffffffffffffffffffffffff168273ffffffffffffffffffffffffffffffffffffffff1603610ef557816040517f5b08ba18000000000000000000000000000000000000000000000000000000008152600401610eec9190611d78565b60405180910390fd5b8060055f8573ffffffffffffffffffffffffffffffffffffffff1673ffffffffffffffffffffffffffffffffffffffff1681526020019081526020015f205f8473ffffffffffffffffffffffffffffffffffffffff1673ffffffffffffffffffffffffffffffffffffffff1681526020019081526020015f205f6101000a81548160ff0219169083151502179055508173ffffffffffffffffffffffffffffffffffffffff168373ffffffffffffffffffffffffffffffffffffffff167f17307eab39ab6107e8899845ad3d59bd9653f200f220920489ca2b5937696c3183604051610fe19190611c32565b60405180910390a3505050565b5f8373ffffffffffffffffffffffffffffffffffffffff163b1115611193578273ffffffffffffffffffffffffffffffffffffffff1663150b7a02868685856040518563ffffffff1660e01b815260040161104c9493929190612371565b6020604051808303815f875af192505050801561108757506040513d601f19601f8201168201806040525081019061108491906123cf565b60015b611108573d805f81146110b5576040519150601f19603f3d011682016040523d82523d5f602084013e6110ba565b606091505b505f81510361110057836040517f64a0ae920000000000000000000000000000000000000000000000000000000081526004016110f79190611d78565b60405180910390fd5b805160208201fd5b63150b7a0260e01b7bffffffffffffffffffffffffffffffffffffffffffffffffffffffff1916817bffffffffffffffffffffffffffffffffffffffffffffffffffffffff19161461119157836040517f64a0ae920000000000000000000000000000000000000000000000000000000081526004016111889190611d78565b60405180910390fd5b505b5050505050565b60606111a582610966565b505f6111af6116ff565b90505f6111bb8461173c565b90505f8251036111cf578092505050611211565b5f815111156112035781816040516020016111eb929190612434565b60405160208183030381529060405292505050611211565b61120c846117dd565b925050505b919050565b5f73ffffffffffffffffffffffffffffffffffffffff168273ffffffffffffffffffffffffffffffffffffffff1603611286575f6040517f64a0ae9200000000000000000000000000000000000000000000000000000000815260040161127d9190611d78565b60405180910390fd5b5f61129283835f610a3e565b90505f73ffffffffffffffffffffffffffffffffffffffff168173ffffffffffffffffffffffffffffffffffffffff1614611304575f6040517f73c6ac6e0000000000000000000000000000000000000000000000000000000081526004016112fb9190611d78565b60405180910390fd5b505050565b8060065f8481526020019081526020015f20908161132791906125f7565b507ff8e1a15aba9398e019f0b49df1a4fde98ee17ae345cb5f6b5e2c27f5033e8ce7826040516113579190611e08565b60405180910390a15050565b5f7f80ac58cd000000000000000000000000000000000000000000000000000000007bffffffffffffffffffffffffffffffffffffffffffffffffffffffff1916827bffffffffffffffffffffffffffffffffffffffffffffffffffffffff1916148061142d57507f5b5e139f000000000000000000000000000000000000000000000000000000007bffffffffffffffffffffffffffffffffffffffffffffffffffffffff1916827bffffffffffffffffffffffffffffffffffffffffffffffffffffffff1916145b8061143d575061143c82611843565b5b9050919050565b5f60025f8381526020019081526020015f205f9054906101000a900473ffffffffffffffffffffffffffffffffffffffff169050919050565b80806114b557505f73ffffffffffffffffffffffffffffffffffffffff168273ffffffffffffffffffffffffffffffffffffffff1614155b156115e7575f6114c484610966565b90505f73ffffffffffffffffffffffffffffffffffffffff168373ffffffffffffffffffffffffffffffffffffffff161415801561152e57508273ffffffffffffffffffffffffffffffffffffffff168173ffffffffffffffffffffffffffffffffffffffff1614155b8015611541575061153f81846107f4565b155b1561158357826040517fa9fbf51f00000000000000000000000000000000000000000000000000000000815260040161157a9190611d78565b60405180910390fd5b81156115e557838573ffffffffffffffffffffffffffffffffffffffff168273ffffffffffffffffffffffffffffffffffffffff167f8c5be1e5ebec7d5bd14f71427d1e84f3dd0314c0f7b2291e5b200ac8c7c3b92560405160405180910390a45b505b8360045f8581526020019081526020015f205f6101000a81548173ffffffffffffffffffffffffffffffffffffffff021916908373ffffffffffffffffffffffffffffffffffffffff16021790555050505050565b6116478383836118ac565b6116fa575f73ffffffffffffffffffffffffffffffffffffffff168373ffffffffffffffffffffffffffffffffffffffff16036116bb57806040517f7e2732890000000000000000000000000000000000000000000000000000000081526004016116b29190611e08565b60405180910390fd5b81816040517f177e802f0000000000000000000000000000000000000000000000000000000081526004016116f19291906126c6565b60405180910390fd5b505050565b60606040518060400160405280601d81526020017f68747470733a2f2f6578616d706c652e636f6d2f6d657461646174612f000000815250905090565b606060065f8381526020019081526020015f20805461175a90612213565b80601f016020809104026020016040519081016040528092919081815260200182805461178690612213565b80156117d15780601f106117a8576101008083540402835291602001916117d1565b820191905f5260205f20905b8154815290600101906020018083116117b457829003601f168201915b50505050509050919050565b60606117e882610966565b505f6117f26116ff565b90505f8151116118105760405180602001604052805f81525061183b565b8061181a8461196c565b60405160200161182b929190612434565b6040516020818303038152906040525b915050919050565b5f7f01ffc9a7000000000000000000000000000000000000000000000000000000007bffffffffffffffffffffffffffffffffffffffffffffffffffffffff1916827bffffffffffffffffffffffffffffffffffffffffffffffffffffffff1916149050919050565b5f5f73ffffffffffffffffffffffffffffffffffffffff168373ffffffffffffffffffffffffffffffffffffffff161415801561196357508273ffffffffffffffffffffffffffffffffffffffff168473ffffffffffffffffffffffffffffffffffffffff161480611924575061192384846107f4565b5b8061196257508273ffffffffffffffffffffffffffffffffffffffff1661194a836109ec565b73ffffffffffffffffffffffffffffffffffffffff16145b5b90509392505050565b60605f600161197a84611a36565b0190505f8167ffffffffffffffff81111561199857611997611f0c565b5b6040519080825280601f01601f1916602001820160405280156119ca5781602001600182028036833780820191505090505b5090505f82602083010190505b600115611a2b578080600190039150507f3031323334353637383961626364656600000000000000000000000000000000600a86061a8153600a8581611a2057611a1f6126ed565b5b0494505f85036119d7575b819350505050919050565b5f5f5f90507a184f03e93ff9f4daa797ed6e38ed64bf6a1f0100000000000000008310611a92577a184f03e93ff9f4daa797ed6e38ed64bf6a1f0100000000000000008381611a8857611a876126ed565b5b0492506040810190505b6d04ee2d6d415b85acef81000000008310611acf576d04ee2d6d415b85acef81000000008381611ac557611ac46126ed565b5b0492506020810190505b662386f26fc100008310611afe57662386f26fc100008381611af457611af36126ed565b5b0492506010810190505b6305f5e1008310611b27576305f5e1008381611b1d57611b1c6126ed565b5b0492506008810190505b6127108310611b4c576127108381611b4257611b416126ed565b5b0492506004810190505b60648310611b6f5760648381611b6557611b646126ed565b5b0492506002810190505b600a8310611b7e576001810190505b80915050919050565b5f604051905090565b5f5ffd5b5f5ffd5b5f7fffffffff0000000000000000000000000000000000000000000000000000000082169050919050565b611bcc81611b98565b8114611bd6575f5ffd5b50565b5f81359050611be781611bc3565b92915050565b5f60208284031215611c0257611c01611b90565b5b5f611c0f84828501611bd9565b91505092915050565b5f8115159050919050565b611c2c81611c18565b82525050565b5f602082019050611c455f830184611c23565b92915050565b5f81519050919050565b5f82825260208201905092915050565b8281835e5f83830152505050565b5f601f19601f8301169050919050565b5f611c8d82611c4b565b611c978185611c55565b9350611ca7818560208601611c65565b611cb081611c73565b840191505092915050565b5f6020820190508181035f830152611cd38184611c83565b905092915050565b5f819050919050565b611ced81611cdb565b8114611cf7575f5ffd5b50565b5f81359050611d0881611ce4565b92915050565b5f60208284031215611d2357611d22611b90565b5b5f611d3084828501611cfa565b91505092915050565b5f73ffffffffffffffffffffffffffffffffffffffff82169050919050565b5f611d6282611d39565b9050919050565b611d7281611d58565b82525050565b5f602082019050611d8b5f830184611d69565b92915050565b611d9a81611d58565b8114611da4575f5ffd5b50565b5f81359050611db581611d91565b92915050565b5f5f60408385031215611dd157611dd0611b90565b5b5f611dde85828601611da7565b9250506020611def85828601611cfa565b9150509250929050565b611e0281611cdb565b82525050565b5f602082019050611e1b5f830184611df9565b92915050565b5f5f5f60608486031215611e3857611e37611b90565b5b5f611e4586828701611da7565b9350506020611e5686828701611da7565b9250506040611e6786828701611cfa565b9150509250925092565b5f60208284031215611e8657611e85611b90565b5b5f611e9384828501611da7565b91505092915050565b611ea581611c18565b8114611eaf575f5ffd5b50565b5f81359050611ec081611e9c565b92915050565b5f5f60408385031215611edc57611edb611b90565b5b5f611ee985828601611da7565b9250506020611efa85828601611eb2565b9150509250929050565b5f5ffd5b5f5ffd5b7f4e487b71000000000000000000000000000000000000000000000000000000005f52604160045260245ffd5b611f4282611c73565b810181811067ffffffffffffffff82111715611f6157611f60611f0c565b5b80604052505050565b5f611f73611b87565b9050611f7f8282611f39565b919050565b5f67ffffffffffffffff821115611f9e57611f9d611f0c565b5b611fa782611c73565b9050602081019050919050565b828183375f83830152505050565b5f611fd4611fcf84611f84565b611f6a565b905082815260208101848484011115611ff057611fef611f08565b5b611ffb848285611fb4565b509392505050565b5f82601f83011261201757612016611f04565b5b8135612027848260208601611fc2565b91505092915050565b5f5f5f5f6080858703121561204857612047611b90565b5b5f61205587828801611da7565b945050602061206687828801611da7565b935050604061207787828801611cfa565b925050606085013567ffffffffffffffff81111561209857612097611b94565b5b6120a487828801612003565b91505092959194509250565b5f67ffffffffffffffff8211156120ca576120c9611f0c565b5b6120d382611c73565b9050602081019050919050565b5f6120f26120ed846120b0565b611f6a565b90508281526020810184848401111561210e5761210d611f08565b5b612119848285611fb4565b509392505050565b5f82601f83011261213557612134611f04565b5b81356121458482602086016120e0565b91505092915050565b5f5f6040838503121561216457612163611b90565b5b5f61217185828601611da7565b925050602083013567ffffffffffffffff81111561219257612191611b94565b5b61219e85828601612121565b9150509250929050565b5f5f604083850312156121be576121bd611b90565b5b5f6121cb85828601611da7565b92505060206121dc85828601611da7565b9150509250929050565b7f4e487b71000000000000000000000000000000000000000000000000000000005f52602260045260245ffd5b5f600282049050600182168061222a57607f821691505b60208210810361223d5761223c6121e6565b5b50919050565b7f4e487b71000000000000000000000000000000000000000000000000000000005f52601160045260245ffd5b5f61227a82611cdb565b915061228583611cdb565b925082820390508181111561229d5761229c612243565b5b92915050565b5f6060820190506122b65f830186611d69565b6122c36020830185611df9565b6122d06040830184611d69565b949350505050565b5f6122e282611cdb565b91507fffffffffffffffffffffffffffffffffffffffffffffffffffffffffffffffff820361231457612313612243565b5b600182019050919050565b5f81519050919050565b5f82825260208201905092915050565b5f6123438261231f565b61234d8185612329565b935061235d818560208601611c65565b61236681611c73565b840191505092915050565b5f6080820190506123845f830187611d69565b6123916020830186611d69565b61239e6040830185611df9565b81810360608301526123b08184612339565b905095945050505050565b5f815190506123c981611bc3565b92915050565b5f602082840312156123e4576123e3611b90565b5b5f6123f1848285016123bb565b91505092915050565b5f81905092915050565b5f61240e82611c4b565b61241881856123fa565b9350612428818560208601611c65565b80840191505092915050565b5f61243f8285612404565b915061244b8284612404565b91508190509392505050565b5f819050815f5260205f209050919050565b5f6020601f8301049050919050565b5f82821b905092915050565b5f600883026124b37fffffffffffffffffffffffffffffffffffffffffffffffffffffffffffffffff82612478565b6124bd8683612478565b95508019841693508086168417925050509392505050565b5f819050919050565b5f6124f86124f36124ee84611cdb565b6124d5565b611cdb565b9050919050565b5f819050919050565b612511836124de565b61252561251d826124ff565b848454612484565b825550505050565b5f5f905090565b61253c61252d565b612547818484612508565b505050565b5b8181101561256a5761255f5f82612534565b60018101905061254d565b5050565b601f8211156125af5761258081612457565b61258984612469565b81016020851015612598578190505b6125ac6125a485612469565b83018261254c565b50505b505050565b5f82821c905092915050565b5f6125cf5f19846008026125b4565b1980831691505092915050565b5f6125e783836125c0565b9150826002028217905092915050565b61260082611c4b565b67ffffffffffffffff81111561261957612618611f0c565b5b6126238254612213565b61262e82828561256e565b5f60209050601f83116001811461265f575f841561264d578287015190505b61265785826125dc565b8655506126be565b601f19841661266d86612457565b5f5b828110156126945784890151825560018201915060208501945060208101905061266f565b868310156126b157848901516126ad601f8916826125c0565b8355505b6001600288020188555050505b505050505050565b5f6040820190506126d95f830185611d69565b6126e66020830184611df9565b9392505050565b7f4e487b71000000000000000000000000000000000000000000000000000000005f52601260045260245ffdfea26469706673582212202eb272c22796f7887c2a1fd8e1d7307cdcfd487376452be7097b39f9756a12bb64736f6c634300081c0033","linkReferences":{}},"methodIdentifiers":{"approve(address,uint256)":"095ea7b3","balanceOf(address)":"70a08231","burn(uint256)":"42966c68","getApproved(uint256)":"081812fc","isApprovedForAll(address,address)":"e985e9c5","mint(address,string)":"d0def521","name()":"06fdde03","owner()":"8da5cb5b","ownerOf(uint256)":"6352211e","renounceOwnership()":"715018a6","safeTransferFrom(address,address,uint256)":"42842e0e","safeTransferFrom(address,address,uint256,bytes)":"b88d4fde","setApprovalForAll(address,bool)":"a22cb465","supportsInterface(bytes4)":"01ffc9a7","symbol()":"95d89b41","tokenURI(uint256)":"c87b56dd","totalSupply()":"18160ddd","transferFrom(address,address,uint256)":"23b872dd","transferOwnership(address)":"f2fde38b"},"id":20}