{"abi":[{"type":"function","name":"permitAndTransferFrom","inputs":[{"name":"token","type":"address","internalType":"contract MyToken"},{"name":"owner","type":"address","internalType":"address"},{"name":"to","type":"address","internalType":"address"},{"name":"value","type":"uint256","internalType":"uint256"},{"name":"deadline","type":"uint256","internalType":"uint256"},{"name":"v","type":"uint8","internalType":"uint8"},{"name":"r","type":"bytes32","internalType":"bytes32"},{"name":"s","type":"bytes32","internalType":"bytes32"}],"outputs":[],"stateMutability":"nonpayable"}],"bytecode":{"object":"0x6080604052348015600e575f5ffd5b5061049d8061001c5f395ff3fe608060405234801561000f575f5ffd5b5060043610610029575f3560e01c8063326b57f31461002d575b5f5ffd5b61004760048036038101906100429190610278565b610049565b005b8773ffffffffffffffffffffffffffffffffffffffff1663d505accf883088888888886040518863ffffffff1660e01b815260040161008e9796959493929190610365565b5f604051808303815f87803b1580156100a5575f5ffd5b505af11580156100b7573d5f5f3e3d5ffd5b505050508773ffffffffffffffffffffffffffffffffffffffff166323b872dd8888886040518463ffffffff1660e01b81526004016100f8939291906103d2565b6020604051808303815f875af1158015610114573d5f5f3e3d5ffd5b505050506040513d601f19601f82011682018060405250810190610138919061043c565b505050505050505050565b5f5ffd5b5f73ffffffffffffffffffffffffffffffffffffffff82169050919050565b5f61017082610147565b9050919050565b5f61018182610166565b9050919050565b61019181610177565b811461019b575f5ffd5b50565b5f813590506101ac81610188565b92915050565b6101bb81610166565b81146101c5575f5ffd5b50565b5f813590506101d6816101b2565b92915050565b5f819050919050565b6101ee816101dc565b81146101f8575f5ffd5b50565b5f81359050610209816101e5565b92915050565b5f60ff82169050919050565b6102248161020f565b811461022e575f5ffd5b50565b5f8135905061023f8161021b565b92915050565b5f819050919050565b61025781610245565b8114610261575f5ffd5b50565b5f813590506102728161024e565b92915050565b5f5f5f5f5f5f5f5f610100898b03121561029557610294610143565b5b5f6102a28b828c0161019e565b98505060206102b38b828c016101c8565b97505060406102c48b828c016101c8565b96505060606102d58b828c016101fb565b95505060806102e68b828c016101fb565b94505060a06102f78b828c01610231565b93505060c06103088b828c01610264565b92505060e06103198b828c01610264565b9150509295985092959890939650565b61033281610166565b82525050565b610341816101dc565b82525050565b6103508161020f565b82525050565b61035f81610245565b82525050565b5f60e0820190506103785f83018a610329565b6103856020830189610329565b6103926040830188610338565b61039f6060830187610338565b6103ac6080830186610347565b6103b960a0830185610356565b6103c660c0830184610356565b98975050505050505050565b5f6060820190506103e55f830186610329565b6103f26020830185610329565b6103ff6040830184610338565b949350505050565b5f8115159050919050565b61041b81610407565b8114610425575f5ffd5b50565b5f8151905061043681610412565b92915050565b5f6020828403121561045157610450610143565b5b5f61045e84828501610428565b9150509291505056fea2646970667358221220033f7f077e7e2d5fb01b219397d0636440c412839aaa26afbe3df586c61a025864736f6c634300081c0033","linkReferences":{}},"methodIdentifiers":{"permitAndTransferFrom(address,address,address,uint256,uint256,uint8,bytes32,bytes32)":"326b57f3"},"id":8}