{"abi":[{"type":"constructor","inputs":[{"name":"uri_","type":"string","internalType":"string"}],"stateMutability":"nonpayable"},{"type":"function","name":"GOLD","inputs":[],"outputs":[{"name":"","type":"uint256","internalType":"uint256"}],"stateMutability":"view"},{"type":"function","name":"SHIELD","inputs":[],"outputs":[{"name":"","type":"uint256","internalType":"uint256"}],"stateMutability":"view"},{"type":"function","name":"SILVER","inputs":[],"outputs":[{"name":"","type":"uint256","internalType":"uint256"}],"stateMutability":"view"},{"type":"function","name":"SWORD","inputs":[],"outputs":[{"name":"","type":"uint256","internalType":"uint256"}],"stateMutability":"view"},{"type":"function","name":"balanceOf","inputs":[{"name":"account","type":"address","internalType":"address"},{"name":"id","type":"uint256","internalType":"uint256"}],"outputs":[{"name":"","type":"uint256","internalType":"uint256"}],"stateMutability":"view"},{"type":"function","name":"balanceOfBatch","inputs":[{"name":"accounts","type":"address[]","internalType":"address[]"},{"name":"ids","type":"uint256[]","internalType":"uint256[]"}],"outputs":[{"name":"","type":"uint256[]","internalType":"uint256[]"}],"stateMutability":"view"},{"type":"function","name":"burn","inputs":[{"name":"from","type":"address","internalType":"address"},{"name":"id","type":"uint256","internalType":"uint256"},{"name":"amount","type":"uint256","internalType":"uint256"}],"outputs":[],"stateMutability":"nonpayable"},{"type":"function","name":"burnBatch","inputs":[{"name":"from","type":"address","internalType":"address"},{"name":"ids","type":"uint256[]","internalType":"uint256[]"},{"name":"amounts","type":"uint256[]","internalType":"uint256[]"}],"outputs":[],"stateMutability":"nonpayable"},{"type":"function","name":"isApprovedForAll","inputs":[{"name":"account","type":"address","internalType":"address"},{"name":"operator","type":"address","internalType":"address"}],"outputs":[{"name":"","type":"bool","internalType":"bool"}],"stateMutability":"view"},{"type":"function","name":"isNonFungible","inputs":[{"name":"id","type":"uint256","internalType":"uint256"}],"outputs":[{"name":"","type":"bool","internalType":"bool"}],"stateMutability":"view"},{"type":"function","name":"mint","inputs":[{"name":"to","type":"address","internalType":"address"},{"name":"id","type":"uint256","internalType":"uint256"},{"name":"amount","type":"uint256","internalType":"uint256"},{"name":"data","type":"bytes","internalType":"bytes"}],"outputs":[],"stateMutability":"nonpayable"},{"type":"function","name":"mintBatch","inputs":[{"name":"to","type":"address","internalType":"address"},{"name":"ids","type":"uint256[]","internalType":"uint256[]"},{"name":"amounts","type":"uint256[]","internalType":"uint256[]"},{"name":"data","type":"bytes","internalType":"bytes"}],"outputs":[],"stateMutability":"nonpayable"},{"type":"function","name":"mintNFT","inputs":[{"name":"to","type":"address","internalType":"address"},{"name":"data","type":"bytes","internalType":"bytes"}],"outputs":[{"name":"","type":"uint256","internalType":"uint256"}],"stateMutability":"nonpayable"},{"type":"function","name":"owner","inputs":[],"outputs":[{"name":"","type":"address","internalType":"address"}],"stateMutability":"view"},{"type":"function","name":"renounceOwnership","inputs":[],"outputs":[],"stateMutability":"nonpayable"},{"type":"function","name":"safeBatchTransferFrom","inputs":[{"name":"from","type":"address","internalType":"address"},{"name":"to","type":"address","internalType":"address"},{"name":"ids","type":"uint256[]","internalType":"uint256[]"},{"name":"amounts","type":"uint256[]","internalType":"uint256[]"},{"name":"data","type":"bytes","internalType":"bytes"}],"outputs":[],"stateMutability":"nonpayable"},{"type":"function","name":"safeTransferFrom","inputs":[{"name":"from","type":"address","internalType":"address"},{"name":"to","type":"address","internalType":"address"},{"name":"id","type":"uint256","internalType":"uint256"},{"name":"amount","type":"uint256","internalType":"uint256"},{"name":"data","type":"bytes","internalType":"bytes"}],"outputs":[],"stateMutability":"nonpayable"},{"type":"function","name":"setApprovalForAll","inputs":[{"name":"operator","type":"address","internalType":"address"},{"name":"approved","type":"bool","internalType":"bool"}],"outputs":[],"stateMutability":"nonpayable"},{"type":"function","name":"setURI","inputs":[{"name":"newUri","type":"string","internalType":"string"}],"outputs":[],"stateMutability":"nonpayable"},{"type":"function","name":"supportsInterface","inputs":[{"name":"interfaceId","type":"bytes4","internalType":"bytes4"}],"outputs":[{"name":"","type":"bool","internalType":"bool"}],"stateMutability":"view"},{"type":"function","name":"totalSupply","inputs":[{"name":"id","type":"uint256","internalType":"uint256"}],"outputs":[{"name":"","type":"uint256","internalType":"uint256"}],"stateMutability":"view"},{"type":"function","name":"transferOwnership","inputs":[{"name":"newOwner","type":"address","internalType":"address"}],"outputs":[],"stateMutability":"nonpayable"},{"type":"function","name":"uri","inputs":[{"name":"id","type":"uint256","internalType":"uint256"}],"outputs":[{"name":"","type":"string","internalType":"string"}],"stateMutability":"view"},{"type":"event","name":"ApprovalForAll","inputs":[{"name":"account","type":"address","indexed":true,"internalType":"address"},{"name":"operator","type":"address","indexed":true,"internalType":"address"},{"name":"approved","type":"bool","indexed":false,"internalType":"bool"}],"anonymous":false},{"type":"event","name":"OwnershipTransferred","inputs":[{"name":"previousOwner","type":"address","indexed":true,"internalType":"address"},{"name":"newOwner","type":"address","indexed":true,"internalType":"address"}],"anonymous":false},{"type":"event","name":"TransferBatch","inputs":[{"name":"operator","type":"address","indexed":true,"internalType":"address"},{"name":"from","type":"address","indexed":true,"internalType":"address"},{"name":"to","type":"address","indexed":true,"internalType":"address"},{"name":"ids","type":"uint256[]","indexed":false,"internalType":"uint256[]"},{"name":"values","type":"uint256[]","indexed":false,"internalType":"uint256[]"}],"anonymous":false},{"type":"event","name":"TransferSingle","inputs":[{"name":"operator","type":"address","indexed":true,"internalType":"address"},{"name":"from","type":"address","indexed":true,"internalType":"address"},{"name":"to","type":"address","indexed":true,"internalType":"address"},{"name":"id","type":"uint256","indexed":false,"internalType":"uint256"},{"name":"value","type":"uint256","indexed":false,"internalType":"uint256"}],"anonymous":false},{"type":"event","name":"URI","inputs":[{"name":"value","type":"string","indexed":false,"internalType":"string"},{"name":"id","type":"uint256","indexed":true,"internalType":"uint256"}],"anonymous":false},{"type":"error","name":"ERC1155InsufficientBalance","inputs":[{"name":"sender","type":"address","internalType":"address"},{"name":"balance","type":"uint256","internalType":"uint256"},{"name":"needed","type":"uint256","internalType":"uint256"},{"name":"tokenId","type":"uint256","internalType":"uint256"}]},{"type":"error","name":"ERC1155InvalidApprover","inputs":[{"name":"approver","type":"address","internalType":"address"}]},{"type":"error","name":"ERC1155InvalidArrayLength","inputs":[{"name":"idsLength","type":"uint256","internalType":"uint256"},{"name":"valuesLength","type":"uint256","internalType":"uint256"}]},{"type":"error","name":"ERC1155InvalidOperator","inputs":[{"name":"operator","type":"address","internalType":"address"}]},{"type":"error","name":"ERC1155InvalidReceiver","inputs":[{"name":"receiver","type":"address","internalType":"address"}]},{"type":"error","name":"ERC1155InvalidSender","inputs":[{"name":"sender","type":"address","internalType":"address"}]},{"type":"error","name":"ERC1155MissingApprovalForAll","inputs":[{"name":"operator","type":"address","internalType":"address"},{"name":"owner","type":"address","internalType":"address"}]},{"type":"error","name":"OwnableInvalidOwner","inputs":[{"name":"owner","type":"address","internalType":"address"}]},{"type":"error","name":"OwnableUnauthorizedAccount","inputs":[{"name":"account","type":"address","internalType":"address"}]}],"bytecode":{"object":"0x608060405234801561000f575f5ffd5b506040516134f13803806134f1833981810160405281019061003191906102f4565b3381610042816100d160201b60201c565b505f73ffffffffffffffffffffffffffffffffffffffff168173ffffffffffffffffffffffffffffffffffffffff16036100b3575f6040517f1e4fbdf70000000000000000000000000000000000000000000000000000000081526004016100aa919061037a565b60405180910390fd5b6100c2816100e460201b60201c565b50600a60058190555050610672565b80600290816100e091906105a3565b5050565b5f60035f9054906101000a900473ffffffffffffffffffffffffffffffffffffffff1690508160035f6101000a81548173ffffffffffffffffffffffffffffffffffffffff021916908373ffffffffffffffffffffffffffffffffffffffff1602179055508173ffffffffffffffffffffffffffffffffffffffff168173ffffffffffffffffffffffffffffffffffffffff167f8be0079c531659141344cd1fd0a4f28419497f9722a3daafe3b4186f6b6457e060405160405180910390a35050565b5f604051905090565b5f5ffd5b5f5ffd5b5f5ffd5b5f5ffd5b5f601f19601f8301169050919050565b7f4e487b71000000000000000000000000000000000000000000000000000000005f52604160045260245ffd5b610206826101c0565b810181811067ffffffffffffffff82111715610225576102246101d0565b5b80604052505050565b5f6102376101a7565b905061024382826101fd565b919050565b5f67ffffffffffffffff821115610262576102616101d0565b5b61026b826101c0565b9050602081019050919050565b8281835e5f83830152505050565b5f61029861029384610248565b61022e565b9050828152602081018484840111156102b4576102b36101bc565b5b6102bf848285610278565b509392505050565b5f82601f8301126102db576102da6101b8565b5b81516102eb848260208601610286565b91505092915050565b5f60208284031215610309576103086101b0565b5b5f82015167ffffffffffffffff811115610326576103256101b4565b5b610332848285016102c7565b91505092915050565b5f73ffffffffffffffffffffffffffffffffffffffff82169050919050565b5f6103648261033b565b9050919050565b6103748161035a565b82525050565b5f60208201905061038d5f83018461036b565b92915050565b5f81519050919050565b7f4e487b71000000000000000000000000000000000000000000000000000000005f52602260045260245ffd5b5f60028204905060018216806103e157607f821691505b6020821081036103f4576103f361039d565b5b50919050565b5f819050815f5260205f209050919050565b5f6020601f8301049050919050565b5f82821b905092915050565b5f600883026104567fffffffffffffffffffffffffffffffffffffffffffffffffffffffffffffffff8261041b565b610460868361041b565b95508019841693508086168417925050509392505050565b5f819050919050565b5f819050919050565b5f6104a461049f61049a84610478565b610481565b610478565b9050919050565b5f819050919050565b6104bd8361048a565b6104d16104c9826104ab565b848454610427565b825550505050565b5f5f905090565b6104e86104d9565b6104f38184846104b4565b505050565b5b818110156105165761050b5f826104e0565b6001810190506104f9565b5050565b601f82111561055b5761052c816103fa565b6105358461040c565b81016020851015610544578190505b6105586105508561040c565b8301826104f8565b50505b505050565b5f82821c905092915050565b5f61057b5f1984600802610560565b1980831691505092915050565b5f610593838361056c565b9150826002028217905092915050565b6105ac82610393565b67ffffffffffffffff8111156105c5576105c46101d0565b5b6105cf82546103ca565b6105da82828561051a565b5f60209050601f83116001811461060b575f84156105f9578287015190505b6106038582610588565b86555061066a565b601f198416610619866103fa565b5f5b828110156106405784890151825560018201915060208501945060208101905061061b565b8683101561065d5784890151610659601f89168261056c565b8355505b6001600288020188555050505b505050505050565b612e728061067f5f395ff3fe608060405234801561000f575f5ffd5b506004361061014a575f3560e01c8063715018a6116100c1578063e44591f01161007a578063e44591f014610386578063e83b0227146103b6578063e985e9c5146103e6578063f242432a14610416578063f2fde38b14610432578063f5298aca1461044e5761014a565b8063715018a6146102d8578063731133e9146102e25780638da5cb5b146102fe578063a22cb4651461031c578063bd85b03914610338578063e3e55f08146103685761014a565b80631f7fdffa116101135780631f7fdffa146102185780632eb2c2d6146102345780633e4bee38146102505780634e1273f41461026e5780635b2725ed1461029e5780636b20c454146102bc5761014a565b8062fdd58e1461014e57806301ffc9a71461017e57806302fe5305146101ae5780630e89341c146101ca57806313dc989f146101fa575b5f5ffd5b61016860048036038101906101639190611cdd565b61046a565b6040516101759190611d2a565b60405180910390f35b61019860048036038101906101939190611d98565b61047d565b6040516101a59190611ddd565b60405180910390f35b6101c860048036038101906101c39190611f32565b61048e565b005b6101e460048036038101906101df9190611f79565b6104a2565b6040516101f19190612004565b60405180910390f35b6102026104b4565b60405161020f9190611d2a565b60405180910390f35b610232600480360381019061022d9190612186565b6104b9565b005b61024e6004803603810190610249919061223e565b61054a565b005b61025861055e565b6040516102659190611d2a565b60405180910390f35b610288600480360381019061028391906123c9565b610563565b60405161029591906124f6565b60405180910390f35b6102a6610577565b6040516102b39190611d2a565b60405180910390f35b6102d660048036038101906102d19190612516565b61057c565b005b6102e061060b565b005b6102fc60048036038101906102f7919061259e565b61061e565b005b61030661065f565b604051610313919061262d565b60405180910390f35b61033660048036038101906103319190612670565b610687565b005b610352600480360381019061034d9190611f79565b610695565b60405161035f9190611d2a565b60405180910390f35b6103706106af565b60405161037d9190611d2a565b60405180910390f35b6103a0600480360381019061039b9190611f79565b6106b4565b6040516103ad9190611ddd565b60405180910390f35b6103d060048036038101906103cb91906126ae565b6106d2565b6040516103dd9190611d2a565b60405180910390f35b61040060048036038101906103fb9190612708565b610726565b60405161040d9190611ddd565b60405180910390f35b610430600480360381019061042b9190612746565b610739565b005b61044c600480360381019061044791906127d9565b61074d565b005b61046860048036038101906104639190612804565b6107d1565b005b5f6104758383610810565b905092915050565b5f61048782610865565b9050919050565b610496610946565b61049f816109cd565b50565b60606104ad826109e0565b9050919050565b600381565b6104c1610946565b5f5f90505b8351811015610537578281815181106104e2576104e1612854565b5b602002602001015160045f868481518110610500576104ff612854565b5b602002602001015181526020019081526020015f205f82825461052391906128ae565b9250508190555080806001019150506104c6565b5061054484848484610a72565b50505050565b6105578585858585610af7565b5050505050565b600181565b606061056f8383610b1c565b905092915050565b600481565b610584610946565b5f5f90505b82518110156105fa578181815181106105a5576105a4612854565b5b602002602001015160045f8584815181106105c3576105c2612854565b5b602002602001015181526020019081526020015f205f8282546105e691906128e1565b925050819055508080600101915050610589565b50610606838383610c26565b505050565b610613610946565b61061c5f610cb8565b565b610626610946565b8160045f8581526020019081526020015f205f82825461064691906128ae565b9250508190555061065984848484610d7b565b50505050565b5f60035f9054906101000a900473ffffffffffffffffffffffffffffffffffffffff16905090565b6106918282610e11565b5050565b5f60045f8381526020019081526020015f20549050919050565b600281565b5f600160045f8481526020019081526020015f205411159050919050565b5f6106db610946565b5f600554905060055f8154809291906106f390612914565b9190505550600160045f8381526020019081526020015f208190555061071c8482600186610d7b565b8091505092915050565b5f6107318383610e27565b905092915050565b6107468585858585610eb5565b5050505050565b610755610946565b5f73ffffffffffffffffffffffffffffffffffffffff168173ffffffffffffffffffffffffffffffffffffffff16036107c5575f6040517f1e4fbdf70000000000000000000000000000000000000000000000000000000081526004016107bc919061262d565b60405180910390fd5b6107ce81610cb8565b50565b6107d9610946565b8060045f8481526020019081526020015f205f8282546107f991906128e1565b9250508190555061080b838383610eda565b505050565b5f5f5f8381526020019081526020015f205f8473ffffffffffffffffffffffffffffffffffffffff1673ffffffffffffffffffffffffffffffffffffffff1681526020019081526020015f2054905092915050565b5f7fd9b67a26000000000000000000000000000000000000000000000000000000007bffffffffffffffffffffffffffffffffffffffffffffffffffffffff1916827bffffffffffffffffffffffffffffffffffffffffffffffffffffffff1916148061092f57507f0e89341c000000000000000000000000000000000000000000000000000000007bffffffffffffffffffffffffffffffffffffffffffffffffffffffff1916827bffffffffffffffffffffffffffffffffffffffffffffffffffffffff1916145b8061093f575061093e82610f7d565b5b9050919050565b61094e610fe6565b73ffffffffffffffffffffffffffffffffffffffff1661096c61065f565b73ffffffffffffffffffffffffffffffffffffffff16146109cb5761098f610fe6565b6040517f118cdaa70000000000000000000000000000000000000000000000000000000081526004016109c2919061262d565b60405180910390fd5b565b80600290816109dc9190612b58565b5050565b6060600280546109ef90612988565b80601f0160208091040260200160405190810160405280929190818152602001828054610a1b90612988565b8015610a665780601f10610a3d57610100808354040283529160200191610a66565b820191905f5260205f20905b815481529060010190602001808311610a4957829003601f168201915b50505050509050919050565b5f73ffffffffffffffffffffffffffffffffffffffff168473ffffffffffffffffffffffffffffffffffffffff1603610ae2575f6040517f57f447ce000000000000000000000000000000000000000000000000000000008152600401610ad9919061262d565b60405180910390fd5b610af15f858585856001610fed565b50505050565b610b08610b02610fe6565b86611097565b610b158585858585611122565b5050505050565b60608151835114610b6857815183516040517f5b059991000000000000000000000000000000000000000000000000000000008152600401610b5f929190612c27565b60405180910390fd5b5f835167ffffffffffffffff811115610b8457610b83611e0e565b5b604051908082528060200260200182016040528015610bb25781602001602082028036833780820191505090505b5090505f5f90505b8451811015610c1b57610bf1610bd9828761121890919063ffffffff16565b610bec838761122b90919063ffffffff16565b61046a565b828281518110610c0457610c03612854565b5b602002602001018181525050806001019050610bba565b508091505092915050565b5f73ffffffffffffffffffffffffffffffffffffffff168373ffffffffffffffffffffffffffffffffffffffff1603610c96575f6040517f01a83514000000000000000000000000000000000000000000000000000000008152600401610c8d919061262d565b60405180910390fd5b610cb3835f848460405180602001604052805f8152506001610fed565b505050565b5f60035f9054906101000a900473ffffffffffffffffffffffffffffffffffffffff1690508160035f6101000a81548173ffffffffffffffffffffffffffffffffffffffff021916908373ffffffffffffffffffffffffffffffffffffffff1602179055508173ffffffffffffffffffffffffffffffffffffffff168173ffffffffffffffffffffffffffffffffffffffff167f8be0079c531659141344cd1fd0a4f28419497f9722a3daafe3b4186f6b6457e060405160405180910390a35050565b5f73ffffffffffffffffffffffffffffffffffffffff168473ffffffffffffffffffffffffffffffffffffffff1603610deb575f6040517f57f447ce000000000000000000000000000000000000000000000000000000008152600401610de2919061262d565b60405180910390fd5b5f5f610df7858561123e565b91509150610e095f878484875f610fed565b505050505050565b610e23610e1c610fe6565b838361126e565b5050565b5f60015f8473ffffffffffffffffffffffffffffffffffffffff1673ffffffffffffffffffffffffffffffffffffffff1681526020019081526020015f205f8373ffffffffffffffffffffffffffffffffffffffff1673ffffffffffffffffffffffffffffffffffffffff1681526020019081526020015f205f9054906101000a900460ff16905092915050565b610ec6610ec0610fe6565b86611097565b610ed38585858585611447565b5050505050565b5f73ffffffffffffffffffffffffffffffffffffffff168373ffffffffffffffffffffffffffffffffffffffff1603610f4a575f6040517f01a83514000000000000000000000000000000000000000000000000000000008152600401610f41919061262d565b60405180910390fd5b5f5f610f56848461123e565b91509150610f76855f848460405180602001604052805f8152505f610fed565b5050505050565b5f7f01ffc9a7000000000000000000000000000000000000000000000000000000007bffffffffffffffffffffffffffffffffffffffffffffffffffffffff1916827bffffffffffffffffffffffffffffffffffffffffffffffffffffffff1916149050919050565b5f33905090565b610ff98686868661154e565b5f73ffffffffffffffffffffffffffffffffffffffff168573ffffffffffffffffffffffffffffffffffffffff161461108f575f611035610fe6565b905081156110505761104b8188888888886118e1565b61108d565b5f6110645f8761122b90919063ffffffff16565b90505f61107a5f8761122b90919063ffffffff16565b905061108a838a8a85858a611a90565b50505b505b505050505050565b8173ffffffffffffffffffffffffffffffffffffffff168173ffffffffffffffffffffffffffffffffffffffff16141580156110da57506110d88183610726565b155b1561111e5781816040517fe237d922000000000000000000000000000000000000000000000000000000008152600401611115929190612c4e565b60405180910390fd5b5050565b5f73ffffffffffffffffffffffffffffffffffffffff168473ffffffffffffffffffffffffffffffffffffffff1603611192575f6040517f57f447ce000000000000000000000000000000000000000000000000000000008152600401611189919061262d565b60405180910390fd5b5f73ffffffffffffffffffffffffffffffffffffffff168573ffffffffffffffffffffffffffffffffffffffff1603611202575f6040517f01a835140000000000000000000000000000000000000000000000000000000081526004016111f9919061262d565b60405180910390fd5b61121185858585856001610fed565b5050505050565b5f60208202602084010151905092915050565b5f60208202602084010151905092915050565b60608060405191506001825283602083015260408201905060018152826020820152604081016040529250929050565b5f73ffffffffffffffffffffffffffffffffffffffff168373ffffffffffffffffffffffffffffffffffffffff16036112de575f6040517f3e31884e0000000000000000000000000000000000000000000000000000000081526004016112d5919061262d565b60405180910390fd5b5f73ffffffffffffffffffffffffffffffffffffffff168273ffffffffffffffffffffffffffffffffffffffff160361134e575f6040517fced3e100000000000000000000000000000000000000000000000000000000008152600401611345919061262d565b60405180910390fd5b8060015f8573ffffffffffffffffffffffffffffffffffffffff1673ffffffffffffffffffffffffffffffffffffffff1681526020019081526020015f205f8473ffffffffffffffffffffffffffffffffffffffff1673ffffffffffffffffffffffffffffffffffffffff1681526020019081526020015f205f6101000a81548160ff0219169083151502179055508173ffffffffffffffffffffffffffffffffffffffff168373ffffffffffffffffffffffffffffffffffffffff167f17307eab39ab6107e8899845ad3d59bd9653f200f220920489ca2b5937696c318360405161143a9190611ddd565b60405180910390a3505050565b5f73ffffffffffffffffffffffffffffffffffffffff168473ffffffffffffffffffffffffffffffffffffffff16036114b7575f6040517f57f447ce0000000000000000000000000000000000000000000000000000000081526004016114ae919061262d565b60405180910390fd5b5f73ffffffffffffffffffffffffffffffffffffffff168573ffffffffffffffffffffffffffffffffffffffff1603611527575f6040517f01a8351400000000000000000000000000000000000000000000000000000000815260040161151e919061262d565b60405180910390fd5b5f5f611533858561123e565b9150915061154587878484875f610fed565b50505050505050565b805182511461159857815181516040517f5b05999100000000000000000000000000000000000000000000000000000000815260040161158f929190612c27565b60405180910390fd5b5f6115a1610fe6565b90505f5f90505b83518110156117a0575f6115c5828661122b90919063ffffffff16565b90505f6115db838661122b90919063ffffffff16565b90505f73ffffffffffffffffffffffffffffffffffffffff168873ffffffffffffffffffffffffffffffffffffffff16146116fe575f5f5f8481526020019081526020015f205f8a73ffffffffffffffffffffffffffffffffffffffff1673ffffffffffffffffffffffffffffffffffffffff1681526020019081526020015f20549050818110156116aa57888183856040517f03dee4c50000000000000000000000000000000000000000000000000000000081526004016116a19493929190612c75565b60405180910390fd5b8181035f5f8581526020019081526020015f205f8b73ffffffffffffffffffffffffffffffffffffffff1673ffffffffffffffffffffffffffffffffffffffff1681526020019081526020015f2081905550505b5f73ffffffffffffffffffffffffffffffffffffffff168773ffffffffffffffffffffffffffffffffffffffff161461179357805f5f8481526020019081526020015f205f8973ffffffffffffffffffffffffffffffffffffffff1673ffffffffffffffffffffffffffffffffffffffff1681526020019081526020015f205f82825461178b91906128ae565b925050819055505b50508060010190506115a8565b50600183510361185b575f6117be5f8561122b90919063ffffffff16565b90505f6117d45f8561122b90919063ffffffff16565b90508573ffffffffffffffffffffffffffffffffffffffff168773ffffffffffffffffffffffffffffffffffffffff168473ffffffffffffffffffffffffffffffffffffffff167fc3d58168c5ae7397731d063d5bbf3d657854427343f4c083240f7aacaa2d0f62858560405161184c929190612c27565b60405180910390a450506118da565b8373ffffffffffffffffffffffffffffffffffffffff168573ffffffffffffffffffffffffffffffffffffffff168273ffffffffffffffffffffffffffffffffffffffff167f4a39dc06d4c0dbc64b70af90fd698a233a518aa5d07e595d983b8c0526c8f7fb86866040516118d1929190612cb8565b60405180910390a45b5050505050565b5f8473ffffffffffffffffffffffffffffffffffffffff163b1115611a88578373ffffffffffffffffffffffffffffffffffffffff1663bc197c8187878686866040518663ffffffff1660e01b8152600401611941959493929190612d3f565b6020604051808303815f875af192505050801561197c57506040513d601f19601f820116820180604052508101906119799190612db9565b60015b6119fd573d805f81146119aa576040519150601f19603f3d011682016040523d82523d5f602084013e6119af565b606091505b505f8151036119f557846040517f57f447ce0000000000000000000000000000000000000000000000000000000081526004016119ec919061262d565b60405180910390fd5b805160208201fd5b63bc197c8160e01b7bffffffffffffffffffffffffffffffffffffffffffffffffffffffff1916817bffffffffffffffffffffffffffffffffffffffffffffffffffffffff191614611a8657846040517f57f447ce000000000000000000000000000000000000000000000000000000008152600401611a7d919061262d565b60405180910390fd5b505b505050505050565b5f8473ffffffffffffffffffffffffffffffffffffffff163b1115611c37578373ffffffffffffffffffffffffffffffffffffffff1663f23a6e6187878686866040518663ffffffff1660e01b8152600401611af0959493929190612de4565b6020604051808303815f875af1925050508015611b2b57506040513d601f19601f82011682018060405250810190611b289190612db9565b60015b611bac573d805f8114611b59576040519150601f19603f3d011682016040523d82523d5f602084013e611b5e565b606091505b505f815103611ba457846040517f57f447ce000000000000000000000000000000000000000000000000000000008152600401611b9b919061262d565b60405180910390fd5b805160208201fd5b63f23a6e6160e01b7bffffffffffffffffffffffffffffffffffffffffffffffffffffffff1916817bffffffffffffffffffffffffffffffffffffffffffffffffffffffff191614611c3557846040517f57f447ce000000000000000000000000000000000000000000000000000000008152600401611c2c919061262d565b60405180910390fd5b505b505050505050565b5f604051905090565b5f5ffd5b5f5ffd5b5f73ffffffffffffffffffffffffffffffffffffffff82169050919050565b5f611c7982611c50565b9050919050565b611c8981611c6f565b8114611c93575f5ffd5b50565b5f81359050611ca481611c80565b92915050565b5f819050919050565b611cbc81611caa565b8114611cc6575f5ffd5b50565b5f81359050611cd781611cb3565b92915050565b5f5f60408385031215611cf357611cf2611c48565b5b5f611d0085828601611c96565b9250506020611d1185828601611cc9565b9150509250929050565b611d2481611caa565b82525050565b5f602082019050611d3d5f830184611d1b565b92915050565b5f7fffffffff0000000000000000000000000000000000000000000000000000000082169050919050565b611d7781611d43565b8114611d81575f5ffd5b50565b5f81359050611d9281611d6e565b92915050565b5f60208284031215611dad57611dac611c48565b5b5f611dba84828501611d84565b91505092915050565b5f8115159050919050565b611dd781611dc3565b82525050565b5f602082019050611df05f830184611dce565b92915050565b5f5ffd5b5f5ffd5b5f601f19601f8301169050919050565b7f4e487b71000000000000000000000000000000000000000000000000000000005f52604160045260245ffd5b611e4482611dfe565b810181811067ffffffffffffffff82111715611e6357611e62611e0e565b5b80604052505050565b5f611e75611c3f565b9050611e818282611e3b565b919050565b5f67ffffffffffffffff821115611ea057611e9f611e0e565b5b611ea982611dfe565b9050602081019050919050565b828183375f83830152505050565b5f611ed6611ed184611e86565b611e6c565b905082815260208101848484011115611ef257611ef1611dfa565b5b611efd848285611eb6565b509392505050565b5f82601f830112611f1957611f18611df6565b5b8135611f29848260208601611ec4565b91505092915050565b5f60208284031215611f4757611f46611c48565b5b5f82013567ffffffffffffffff811115611f6457611f63611c4c565b5b611f7084828501611f05565b91505092915050565b5f60208284031215611f8e57611f8d611c48565b5b5f611f9b84828501611cc9565b91505092915050565b5f81519050919050565b5f82825260208201905092915050565b8281835e5f83830152505050565b5f611fd682611fa4565b611fe08185611fae565b9350611ff0818560208601611fbe565b611ff981611dfe565b840191505092915050565b5f6020820190508181035f83015261201c8184611fcc565b905092915050565b5f67ffffffffffffffff82111561203e5761203d611e0e565b5b602082029050602081019050919050565b5f5ffd5b5f61206561206084612024565b611e6c565b905080838252602082019050602084028301858111156120885761208761204f565b5b835b818110156120b1578061209d8882611cc9565b84526020840193505060208101905061208a565b5050509392505050565b5f82601f8301126120cf576120ce611df6565b5b81356120df848260208601612053565b91505092915050565b5f67ffffffffffffffff82111561210257612101611e0e565b5b61210b82611dfe565b9050602081019050919050565b5f61212a612125846120e8565b611e6c565b90508281526020810184848401111561214657612145611dfa565b5b612151848285611eb6565b509392505050565b5f82601f83011261216d5761216c611df6565b5b813561217d848260208601612118565b91505092915050565b5f5f5f5f6080858703121561219e5761219d611c48565b5b5f6121ab87828801611c96565b945050602085013567ffffffffffffffff8111156121cc576121cb611c4c565b5b6121d8878288016120bb565b935050604085013567ffffffffffffffff8111156121f9576121f8611c4c565b5b612205878288016120bb565b925050606085013567ffffffffffffffff81111561222657612225611c4c565b5b61223287828801612159565b91505092959194509250565b5f5f5f5f5f60a0868803121561225757612256611c48565b5b5f61226488828901611c96565b955050602061227588828901611c96565b945050604086013567ffffffffffffffff81111561229657612295611c4c565b5b6122a2888289016120bb565b935050606086013567ffffffffffffffff8111156122c3576122c2611c4c565b5b6122cf888289016120bb565b925050608086013567ffffffffffffffff8111156122f0576122ef611c4c565b5b6122fc88828901612159565b9150509295509295909350565b5f67ffffffffffffffff82111561232357612322611e0e565b5b602082029050602081019050919050565b5f61234661234184612309565b611e6c565b905080838252602082019050602084028301858111156123695761236861204f565b5b835b81811015612392578061237e8882611c96565b84526020840193505060208101905061236b565b5050509392505050565b5f82601f8301126123b0576123af611df6565b5b81356123c0848260208601612334565b91505092915050565b5f5f604083850312156123df576123de611c48565b5b5f83013567ffffffffffffffff8111156123fc576123fb611c4c565b5b6124088582860161239c565b925050602083013567ffffffffffffffff81111561242957612428611c4c565b5b612435858286016120bb565b9150509250929050565b5f81519050919050565b5f82825260208201905092915050565b5f819050602082019050919050565b61247181611caa565b82525050565b5f6124828383612468565b60208301905092915050565b5f602082019050919050565b5f6124a48261243f565b6124ae8185612449565b93506124b983612459565b805f5b838110156124e95781516124d08882612477565b97506124db8361248e565b9250506001810190506124bc565b5085935050505092915050565b5f6020820190508181035f83015261250e818461249a565b905092915050565b5f5f5f6060848603121561252d5761252c611c48565b5b5f61253a86828701611c96565b935050602084013567ffffffffffffffff81111561255b5761255a611c4c565b5b612567868287016120bb565b925050604084013567ffffffffffffffff81111561258857612587611c4c565b5b612594868287016120bb565b9150509250925092565b5f5f5f5f608085870312156125b6576125b5611c48565b5b5f6125c387828801611c96565b94505060206125d487828801611cc9565b93505060406125e587828801611cc9565b925050606085013567ffffffffffffffff81111561260657612605611c4c565b5b61261287828801612159565b91505092959194509250565b61262781611c6f565b82525050565b5f6020820190506126405f83018461261e565b92915050565b61264f81611dc3565b8114612659575f5ffd5b50565b5f8135905061266a81612646565b92915050565b5f5f6040838503121561268657612685611c48565b5b5f61269385828601611c96565b92505060206126a48582860161265c565b9150509250929050565b5f5f604083850312156126c4576126c3611c48565b5b5f6126d185828601611c96565b925050602083013567ffffffffffffffff8111156126f2576126f1611c4c565b5b6126fe85828601612159565b9150509250929050565b5f5f6040838503121561271e5761271d611c48565b5b5f61272b85828601611c96565b925050602061273c85828601611c96565b9150509250929050565b5f5f5f5f5f60a0868803121561275f5761275e611c48565b5b5f61276c88828901611c96565b955050602061277d88828901611c96565b945050604061278e88828901611cc9565b935050606061279f88828901611cc9565b925050608086013567ffffffffffffffff8111156127c0576127bf611c4c565b5b6127cc88828901612159565b9150509295509295909350565b5f602082840312156127ee576127ed611c48565b5b5f6127fb84828501611c96565b91505092915050565b5f5f5f6060848603121561281b5761281a611c48565b5b5f61282886828701611c96565b935050602061283986828701611cc9565b925050604061284a86828701611cc9565b9150509250925092565b7f4e487b71000000000000000000000000000000000000000000000000000000005f52603260045260245ffd5b7f4e487b71000000000000000000000000000000000000000000000000000000005f52601160045260245ffd5b5f6128b882611caa565b91506128c383611caa565b92508282019050808211156128db576128da612881565b5b92915050565b5f6128eb82611caa565b91506128f683611caa565b925082820390508181111561290e5761290d612881565b5b92915050565b5f61291e82611caa565b91507fffffffffffffffffffffffffffffffffffffffffffffffffffffffffffffffff82036129505761294f612881565b5b600182019050919050565b7f4e487b71000000000000000000000000000000000000000000000000000000005f52602260045260245ffd5b5f600282049050600182168061299f57607f821691505b6020821081036129b2576129b161295b565b5b50919050565b5f819050815f5260205f209050919050565b5f6020601f8301049050919050565b5f82821b905092915050565b5f60088302612a147fffffffffffffffffffffffffffffffffffffffffffffffffffffffffffffffff826129d9565b612a1e86836129d9565b95508019841693508086168417925050509392505050565b5f819050919050565b5f612a59612a54612a4f84611caa565b612a36565b611caa565b9050919050565b5f819050919050565b612a7283612a3f565b612a86612a7e82612a60565b8484546129e5565b825550505050565b5f5f905090565b612a9d612a8e565b612aa8818484612a69565b505050565b5b81811015612acb57612ac05f82612a95565b600181019050612aae565b5050565b601f821115612b1057612ae1816129b8565b612aea846129ca565b81016020851015612af9578190505b612b0d612b05856129ca565b830182612aad565b50505b505050565b5f82821c905092915050565b5f612b305f1984600802612b15565b1980831691505092915050565b5f612b488383612b21565b9150826002028217905092915050565b612b6182611fa4565b67ffffffffffffffff811115612b7a57612b79611e0e565b5b612b848254612988565b612b8f828285612acf565b5f60209050601f831160018114612bc0575f8415612bae578287015190505b612bb88582612b3d565b865550612c1f565b601f198416612bce866129b8565b5f5b82811015612bf557848901518255600182019150602085019450602081019050612bd0565b86831015612c125784890151612c0e601f891682612b21565b8355505b6001600288020188555050505b505050505050565b5f604082019050612c3a5f830185611d1b565b612c476020830184611d1b565b9392505050565b5f604082019050612c615f83018561261e565b612c6e602083018461261e565b9392505050565b5f608082019050612c885f83018761261e565b612c956020830186611d1b565b612ca26040830185611d1b565b612caf6060830184611d1b565b95945050505050565b5f6040820190508181035f830152612cd0818561249a565b90508181036020830152612ce4818461249a565b90509392505050565b5f81519050919050565b5f82825260208201905092915050565b5f612d1182612ced565b612d1b8185612cf7565b9350612d2b818560208601611fbe565b612d3481611dfe565b840191505092915050565b5f60a082019050612d525f83018861261e565b612d5f602083018761261e565b8181036040830152612d71818661249a565b90508181036060830152612d85818561249a565b90508181036080830152612d998184612d07565b90509695505050505050565b5f81519050612db381611d6e565b92915050565b5f60208284031215612dce57612dcd611c48565b5b5f612ddb84828501612da5565b91505092915050565b5f60a082019050612df75f83018861261e565b612e04602083018761261e565b612e116040830186611d1b565b612e1e6060830185611d1b565b8181036080830152612e308184612d07565b9050969550505050505056fea2646970667358221220ed1647d62c06e91306c45e0c70e77082fe3df7cf6fef30d111faacc8ae882b2164736f6c634300081c0033","linkReferences":{}},"methodIdentifiers":{"GOLD()":"3e4bee38","SHIELD()":"5b2725ed","SILVER()":"e3e55f08","SWORD()":"13dc989f","balanceOf(address,uint256)":"00fdd58e","balanceOfBatch(address[],uint256[])":"4e1273f4","burn(address,uint256,uint256)":"f5298aca","burnBatch(address,uint256[],uint256[])":"6b20c454","isApprovedForAll(address,address)":"e985e9c5","isNonFungible(uint256)":"e44591f0","mint(address,uint256,uint256,bytes)":"731133e9","mintBatch(address,uint256[],uint256[],bytes)":"1f7fdffa","mintNFT(address,bytes)":"e83b0227","owner()":"8da5cb5b","renounceOwnership()":"715018a6","safeBatchTransferFrom(address,address,uint256[],uint256[],bytes)":"2eb2c2d6","safeTransferFrom(address,address,uint256,uint256,bytes)":"f242432a","setApprovalForAll(address,bool)":"a22cb465","setURI(string)":"02fe5305","supportsInterface(bytes4)":"01ffc9a7","totalSupply(uint256)":"bd85b039","transferOwnership(address)":"f2fde38b","uri(uint256)":"0e89341c"},"id":0}