{"abi":[{"type":"receive","stateMutability":"payable"},{"type":"function","name":"accountInfo","inputs":[],"outputs":[{"name":"self","type":"address","internalType":"address"},{"name":"balance","type":"uint256","internalType":"uint256"},{"name":"delegate","type":"address","internalType":"address"}],"stateMutability":"view"},{"type":"function","name":"batchCall","inputs":[{"name":"targets","type":"address[]","internalType":"address[]"},{"name":"values","type":"uint256[]","internalType":"uint256[]"},{"name":"calldatas","type":"bytes[]","internalType":"bytes[]"}],"outputs":[{"name":"results","type":"bytes[]","internalType":"bytes[]"}],"stateMutability":"payable"},{"type":"function","name":"checkDelegation","inputs":[{"name":"account","type":"address","internalType":"address"}],"outputs":[{"name":"delegate","type":"address","internalType":"address"}],"stateMutability":"view"},{"type":"function","name":"say","inputs":[{"name":"message","type":"string","internalType":"string"}],"outputs":[],"stateMutability":"nonpayable"},{"type":"function","name":"verifySignature","inputs":[{"name":"hash","type":"bytes32","internalType":"bytes32"},{"name":"v","type":"uint8","internalType":"uint8"},{"name":"r","type":"bytes32","internalType":"bytes32"},{"name":"s","type":"bytes32","internalType":"bytes32"}],"outputs":[{"name":"valid","type":"bool","internalType":"bool"}],"stateMutability":"view"},{"type":"function","name":"whoAmI","inputs":[],"outputs":[{"name":"self","type":"address","internalType":"address"},{"name":"caller","type":"address","internalType":"address"}],"stateMutability":"view"},{"type":"event","name":"Log","inputs":[{"name":"eoa","type":"address","indexed":true,"internalType":"address"},{"name":"message","type":"string","indexed":false,"internalType":"string"}],"anonymous":false},{"type":"error","name":"BatchCallFailed","inputs":[{"name":"index","type":"uint256","internalType":"uint256"}]}],"bytecode":{"object":"0x6080604052348015600e575f5ffd5b50610ff38061001c5f395ff3fe608060405260043610610058575f3560e01c80635e935362146100af57806363f22c24146100df578063726f88ce1461011b5780639695786914610147578063d5c6130114610183578063da91254c146101ab576100ab565b366100ab573073ffffffffffffffffffffffffffffffffffffffff167f0738f4da267a110d810e6e89fc59e46be6de0c37b1d5cd559b267dc3688e74e06040516100a19061065c565b60405180910390a2005b5f5ffd5b6100c960048036038101906100c4919061078d565b6101d6565b6040516100d69190610968565b60405180910390f35b3480156100ea575f5ffd5b50610105600480360381019061010091906109e2565b610428565b6040516101129190610a1c565b60405180910390f35b348015610126575f5ffd5b5061012f610439565b60405161013e93929190610a4d565b60405180910390f35b348015610152575f5ffd5b5061016d60048036038101906101689190610aeb565b610469565b60405161017a9190610b69565b60405180910390f35b34801561018e575f5ffd5b506101a960048036038101906101a49190610bd7565b6104f3565b005b3480156101b6575f5ffd5b506101bf610547565b6040516101cd929190610c22565b60405180910390f35b60605f87879050905085859050811480156101f357508383905081145b610232576040517f08c379a000000000000000000000000000000000000000000000000000000000815260040161022990610c93565b60405180910390fd5b8067ffffffffffffffff81111561024c5761024b610cb1565b5b60405190808252806020026020018201604052801561027f57816020015b606081526020019060019003908161026a5790505b5091505f5f90505b818110156103d0575f5f8a8a848181106102a4576102a3610cde565b5b90506020020160208101906102b991906109e2565b73ffffffffffffffffffffffffffffffffffffffff168989858181106102e2576102e1610cde565b5b905060200201358888868181106102fc576102fb610cde565b5b905060200281019061030e9190610d17565b60405161031c929190610db5565b5f6040518083038185875af1925050503d805f8114610356576040519150601f19603f3d011682016040523d82523d5f602084013e61035b565b606091505b5091509150816103a257826040517fd0905dde0000000000000000000000000000000000000000000000000000000081526004016103999190610dcd565b60405180910390fd5b808584815181106103b6576103b5610cde565b5b602002602001018190525050508080600101915050610287565b503073ffffffffffffffffffffffffffffffffffffffff167f0738f4da267a110d810e6e89fc59e46be6de0c37b1d5cd559b267dc3688e74e060405161041590610e30565b60405180910390a2509695505050505050565b5f61043282610553565b9050919050565b5f5f5f3092508273ffffffffffffffffffffffffffffffffffffffff1631915061046283610553565b9050909192565b5f5f6001868686866040515f815260200160405260405161048d9493929190610e6c565b6020604051602081039080840390855afa1580156104ad573d5f5f3e3d5ffd5b5050506020604051035190503073ffffffffffffffffffffffffffffffffffffffff168173ffffffffffffffffffffffffffffffffffffffff1614915050949350505050565b3073ffffffffffffffffffffffffffffffffffffffff167f0738f4da267a110d810e6e89fc59e46be6de0c37b1d5cd559b267dc3688e74e0838360405161053b929190610edb565b60405180910390a25050565b5f5f3091503390509091565b5f5f8273ffffffffffffffffffffffffffffffffffffffff16803b806020016040519081016040528181525f908060200190933c61059090610f57565b905062ef010060e81b7cffffffffffffffffffffffffffffffffffffffffffffffffffffffffff1916817cffffffffffffffffffffffffffffffffffffffffffffffffffffffffff1916146105e5575f6105fa565b60188168ffffffffffffffffff1916901b60601c5b915050919050565b5f82825260208201905092915050565b7f45544820726563656976656420766961204549502d37373032000000000000005f82015250565b5f610646601983610602565b915061065182610612565b602082019050919050565b5f6020820190508181035f8301526106738161063a565b9050919050565b5f5ffd5b5f5ffd5b5f5ffd5b5f5ffd5b5f5ffd5b5f5f83601f8401126106a3576106a2610682565b5b8235905067ffffffffffffffff8111156106c0576106bf610686565b5b6020830191508360208202830111156106dc576106db61068a565b5b9250929050565b5f5f83601f8401126106f8576106f7610682565b5b8235905067ffffffffffffffff81111561071557610714610686565b5b6020830191508360208202830111156107315761073061068a565b5b9250929050565b5f5f83601f84011261074d5761074c610682565b5b8235905067ffffffffffffffff81111561076a57610769610686565b5b6020830191508360208202830111156107865761078561068a565b5b9250929050565b5f5f5f5f5f5f606087890312156107a7576107a661067a565b5b5f87013567ffffffffffffffff8111156107c4576107c361067e565b5b6107d089828a0161068e565b9650965050602087013567ffffffffffffffff8111156107f3576107f261067e565b5b6107ff89828a016106e3565b9450945050604087013567ffffffffffffffff8111156108225761082161067e565b5b61082e89828a01610738565b92509250509295509295509295565b5f81519050919050565b5f82825260208201905092915050565b5f819050602082019050919050565b5f81519050919050565b5f82825260208201905092915050565b8281835e5f83830152505050565b5f601f19601f8301169050919050565b5f6108a882610866565b6108b28185610870565b93506108c2818560208601610880565b6108cb8161088e565b840191505092915050565b5f6108e1838361089e565b905092915050565b5f602082019050919050565b5f6108ff8261083d565b6109098185610847565b93508360208202850161091b85610857565b805f5b85811015610956578484038952815161093785826108d6565b9450610942836108e9565b925060208a0199505060018101905061091e565b50829750879550505050505092915050565b5f6020820190508181035f83015261098081846108f5565b905092915050565b5f73ffffffffffffffffffffffffffffffffffffffff82169050919050565b5f6109b182610988565b9050919050565b6109c1816109a7565b81146109cb575f5ffd5b50565b5f813590506109dc816109b8565b92915050565b5f602082840312156109f7576109f661067a565b5b5f610a04848285016109ce565b91505092915050565b610a16816109a7565b82525050565b5f602082019050610a2f5f830184610a0d565b92915050565b5f819050919050565b610a4781610a35565b82525050565b5f606082019050610a605f830186610a0d565b610a6d6020830185610a3e565b610a7a6040830184610a0d565b949350505050565b5f819050919050565b610a9481610a82565b8114610a9e575f5ffd5b50565b5f81359050610aaf81610a8b565b92915050565b5f60ff82169050919050565b610aca81610ab5565b8114610ad4575f5ffd5b50565b5f81359050610ae581610ac1565b92915050565b5f5f5f5f60808587031215610b0357610b0261067a565b5b5f610b1087828801610aa1565b9450506020610b2187828801610ad7565b9350506040610b3287828801610aa1565b9250506060610b4387828801610aa1565b91505092959194509250565b5f8115159050919050565b610b6381610b4f565b82525050565b5f602082019050610b7c5f830184610b5a565b92915050565b5f5f83601f840112610b9757610b96610682565b5b8235905067ffffffffffffffff811115610bb457610bb3610686565b5b602083019150836001820283011115610bd057610bcf61068a565b5b9250929050565b5f5f60208385031215610bed57610bec61067a565b5b5f83013567ffffffffffffffff811115610c0a57610c0961067e565b5b610c1685828601610b82565b92509250509250929050565b5f604082019050610c355f830185610a0d565b610c426020830184610a0d565b9392505050565b7f4549503737303244656d6f3a206c656e677468206d69736d61746368000000005f82015250565b5f610c7d601c83610602565b9150610c8882610c49565b602082019050919050565b5f6020820190508181035f830152610caa81610c71565b9050919050565b7f4e487b71000000000000000000000000000000000000000000000000000000005f52604160045260245ffd5b7f4e487b71000000000000000000000000000000000000000000000000000000005f52603260045260245ffd5b5f5ffd5b5f5ffd5b5f5ffd5b5f5f83356001602003843603038112610d3357610d32610d0b565b5b80840192508235915067ffffffffffffffff821115610d5557610d54610d0f565b5b602083019250600182023603831315610d7157610d70610d13565b5b509250929050565b5f81905092915050565b828183375f83830152505050565b5f610d9c8385610d79565b9350610da9838584610d83565b82840190509392505050565b5f610dc1828486610d91565b91508190509392505050565b5f602082019050610de05f830184610a3e565b92915050565b7f62617463682065786563757465640000000000000000000000000000000000005f82015250565b5f610e1a600e83610602565b9150610e2582610de6565b602082019050919050565b5f6020820190508181035f830152610e4781610e0e565b9050919050565b610e5781610a82565b82525050565b610e6681610ab5565b82525050565b5f608082019050610e7f5f830187610e4e565b610e8c6020830186610e5d565b610e996040830185610e4e565b610ea66060830184610e4e565b95945050505050565b5f610eba8385610602565b9350610ec7838584610d83565b610ed08361088e565b840190509392505050565b5f6020820190508181035f830152610ef4818486610eaf565b90509392505050565b5f819050602082019050919050565b5f7fffffffffffffffffffffffffffffffffffffffffffffff00000000000000000082169050919050565b5f610f428251610f0c565b80915050919050565b5f82821b905092915050565b5f610f6182610866565b82610f6b84610efd565b9050610f7681610f37565b92506017821015610fb657610fb17fffffffffffffffffffffffffffffffffffffffffffffff00000000000000000083601703600802610f4b565b831692505b505091905056fea2646970667358221220621b48bf3e296e55f2ea7108026e779c904d2c6913a1f5ae10fdd4cc3a8abf7364736f6c634300081c0033","linkReferences":{}},"methodIdentifiers":{"accountInfo()":"726f88ce","batchCall(address[],uint256[],bytes[])":"5e935362","checkDelegation(address)":"63f22c24","say(string)":"d5c61301","verifySignature(bytes32,uint8,bytes32,bytes32)":"96957869","whoAmI()":"da91254c"},"id":0}