{"abi":[{"type":"function","name":"pause","inputs":[],"outputs":[],"stateMutability":"pure"},{"type":"function","name":"supportsInterface","inputs":[{"name":"interfaceId","type":"bytes4","internalType":"bytes4"}],"outputs":[{"name":"","type":"bool","internalType":"bool"}],"stateMutability":"view"},{"type":"function","name":"upgrade","inputs":[{"name":"","type":"address","internalType":"address"}],"outputs":[],"stateMutability":"pure"}],"bytecode":{"object":"0x6080604052348015600e575f5ffd5b506102b88061001c5f395ff3fe608060405234801561000f575f5ffd5b506004361061003f575f3560e01c806301ffc9a7146100435780630900f010146100735780638456cb591461008f575b5f5ffd5b61005d6004803603810190610058919061019f565b610099565b60405161006a91906101e4565b60405180910390f35b61008d60048036038101906100889190610257565b610141565b005b610097610144565b005b5f6301ffc9a760e01b7bffffffffffffffffffffffffffffffffffffffffffffffffffffffff1916827bffffffffffffffffffffffffffffffffffffffffffffffffffffffff1916148061013a5750638456cb5960e01b630900f01060e01b187bffffffffffffffffffffffffffffffffffffffffffffffffffffffff1916827bffffffffffffffffffffffffffffffffffffffffffffffffffffffff1916145b9050919050565b50565b565b5f5ffd5b5f7fffffffff0000000000000000000000000000000000000000000000000000000082169050919050565b61017e8161014a565b8114610188575f5ffd5b50565b5f8135905061019981610175565b92915050565b5f602082840312156101b4576101b3610146565b5b5f6101c18482850161018b565b91505092915050565b5f8115159050919050565b6101de816101ca565b82525050565b5f6020820190506101f75f8301846101d5565b92915050565b5f73ffffffffffffffffffffffffffffffffffffffff82169050919050565b5f610226826101fd565b9050919050565b6102368161021c565b8114610240575f5ffd5b50565b5f813590506102518161022d565b92915050565b5f6020828403121561026c5761026b610146565b5b5f61027984828501610243565b9150509291505056fea2646970667358221220dd86b5db36aee0583279720604ae9cc9b5326c446849fd6d546c24e66539a3e064736f6c634300081c0033","linkReferences":{}},"methodIdentifiers":{"pause()":"8456cb59","supportsInterface(bytes4)":"01ffc9a7","upgrade(address)":"0900f010"},"id":4}