{"abi":[{"type":"function","name":"checkSupportsInterface","inputs":[{"name":"_contract","type":"address","internalType":"address"},{"name":"_interfaceId","type":"bytes4","internalType":"bytes4"}],"outputs":[{"name":"","type":"bool","internalType":"bool"}],"stateMutability":"view"},{"type":"event","name":"InterfaceSupported","inputs":[{"name":"contractAddress","type":"address","indexed":true,"internalType":"address"},{"name":"interfaceId","type":"bytes4","indexed":false,"internalType":"bytes4"},{"name":"supported","type":"bool","indexed":false,"internalType":"bool"}],"anonymous":false}],"bytecode":{"object":"0x6080604052348015600e575f5ffd5b506102b58061001c5f395ff3fe608060405234801561000f575f5ffd5b5060043610610029575f3560e01c80638352c4461461002d575b5f5ffd5b61004760048036038101906100429190610191565b61005d565b60405161005491906101e9565b60405180910390f35b5f8273ffffffffffffffffffffffffffffffffffffffff166301ffc9a7836040518263ffffffff1660e01b81526004016100979190610211565b602060405180830381865afa1580156100b2573d5f5f3e3d5ffd5b505050506040513d601f19601f820116820180604052508101906100d69190610254565b905092915050565b5f5ffd5b5f73ffffffffffffffffffffffffffffffffffffffff82169050919050565b5f61010b826100e2565b9050919050565b61011b81610101565b8114610125575f5ffd5b50565b5f8135905061013681610112565b92915050565b5f7fffffffff0000000000000000000000000000000000000000000000000000000082169050919050565b6101708161013c565b811461017a575f5ffd5b50565b5f8135905061018b81610167565b92915050565b5f5f604083850312156101a7576101a66100de565b5b5f6101b485828601610128565b92505060206101c58582860161017d565b9150509250929050565b5f8115159050919050565b6101e3816101cf565b82525050565b5f6020820190506101fc5f8301846101da565b92915050565b61020b8161013c565b82525050565b5f6020820190506102245f830184610202565b92915050565b610233816101cf565b811461023d575f5ffd5b50565b5f8151905061024e8161022a565b92915050565b5f60208284031215610269576102686100de565b5b5f61027684828501610240565b9150509291505056fea2646970667358221220e801a3d1b3defacda3824e55ea4e7349419860c18aec6261cacc5ec2b0522f9d64736f6c634300081c0033","linkReferences":{}},"methodIdentifiers":{"checkSupportsInterface(address,bytes4)":"8352c446"},"id":4}