{"abi":[{"type":"constructor","inputs":[{"name":"_paymentToken","type":"address","internalType":"contract IERC20"}],"stateMutability":"nonpayable"},{"type":"function","name":"claimRefund","inputs":[{"name":"jobId","type":"uint256","internalType":"uint256"}],"outputs":[],"stateMutability":"nonpayable"},{"type":"function","name":"complete","inputs":[{"name":"jobId","type":"uint256","internalType":"uint256"},{"name":"reason","type":"bytes32","internalType":"bytes32"},{"name":"","type":"bytes","internalType":"bytes"}],"outputs":[],"stateMutability":"nonpayable"},{"type":"function","name":"createJob","inputs":[{"name":"provider","type":"address","internalType":"address"},{"name":"evaluator","type":"address","internalType":"address"},{"name":"expiredAt","type":"uint256","internalType":"uint256"},{"name":"description","type":"string","internalType":"string"},{"name":"hook","type":"address","internalType":"address"}],"outputs":[{"name":"jobId","type":"uint256","internalType":"uint256"}],"stateMutability":"nonpayable"},{"type":"function","name":"currentJobId","inputs":[],"outputs":[{"name":"","type":"uint256","internalType":"uint256"}],"stateMutability":"view"},{"type":"function","name":"fund","inputs":[{"name":"jobId","type":"uint256","internalType":"uint256"},{"name":"expectedBudget","type":"uint256","internalType":"uint256"},{"name":"","type":"bytes","internalType":"bytes"}],"outputs":[],"stateMutability":"nonpayable"},{"type":"function","name":"getJob","inputs":[{"name":"jobId","type":"uint256","internalType":"uint256"}],"outputs":[{"name":"","type":"tuple","internalType":"struct AgenticCommerce.Job","components":[{"name":"client","type":"address","internalType":"address"},{"name":"provider","type":"address","internalType":"address"},{"name":"evaluator","type":"address","internalType":"address"},{"name":"description","type":"string","internalType":"string"},{"name":"budget","type":"uint256","internalType":"uint256"},{"name":"expiredAt","type":"uint256","internalType":"uint256"},{"name":"status","type":"uint8","internalType":"enum AgenticCommerce.JobStatus"},{"name":"hook","type":"address","internalType":"address"},{"name":"deliverable","type":"bytes32","internalType":"bytes32"}]}],"stateMutability":"view"},{"type":"function","name":"paymentToken","inputs":[],"outputs":[{"name":"","type":"address","internalType":"contract IERC20"}],"stateMutability":"view"},{"type":"function","name":"reject","inputs":[{"name":"jobId","type":"uint256","internalType":"uint256"},{"name":"reason","type":"bytes32","internalType":"bytes32"},{"name":"","type":"bytes","internalType":"bytes"}],"outputs":[],"stateMutability":"nonpayable"},{"type":"function","name":"setBudget","inputs":[{"name":"jobId","type":"uint256","internalType":"uint256"},{"name":"amount","type":"uint256","internalType":"uint256"},{"name":"","type":"bytes","internalType":"bytes"}],"outputs":[],"stateMutability":"nonpayable"},{"type":"function","name":"setProvider","inputs":[{"name":"jobId","type":"uint256","internalType":"uint256"},{"name":"provider","type":"address","internalType":"address"},{"name":"","type":"bytes","internalType":"bytes"}],"outputs":[],"stateMutability":"nonpayable"},{"type":"function","name":"statusToString","inputs":[{"name":"status","type":"uint8","internalType":"enum AgenticCommerce.JobStatus"}],"outputs":[{"name":"","type":"string","internalType":"string"}],"stateMutability":"pure"},{"type":"function","name":"submit","inputs":[{"name":"jobId","type":"uint256","internalType":"uint256"},{"name":"deliverable","type":"bytes32","internalType":"bytes32"},{"name":"","type":"bytes","internalType":"bytes"}],"outputs":[],"stateMutability":"nonpayable"},{"type":"event","name":"BudgetSet","inputs":[{"name":"jobId","type":"uint256","indexed":true,"internalType":"uint256"},{"name":"amount","type":"uint256","indexed":false,"internalType":"uint256"}],"anonymous":false},{"type":"event","name":"JobCompleted","inputs":[{"name":"jobId","type":"uint256","indexed":true,"internalType":"uint256"},{"name":"evaluator","type":"address","indexed":true,"internalType":"address"},{"name":"reason","type":"bytes32","indexed":false,"internalType":"bytes32"}],"anonymous":false},{"type":"event","name":"JobCreated","inputs":[{"name":"jobId","type":"uint256","indexed":true,"internalType":"uint256"},{"name":"client","type":"address","indexed":true,"internalType":"address"},{"name":"provider","type":"address","indexed":true,"internalType":"address"},{"name":"evaluator","type":"address","indexed":false,"internalType":"address"},{"name":"expiredAt","type":"uint256","indexed":false,"internalType":"uint256"},{"name":"hook","type":"address","indexed":false,"internalType":"address"}],"anonymous":false},{"type":"event","name":"JobExpired","inputs":[{"name":"jobId","type":"uint256","indexed":true,"internalType":"uint256"}],"anonymous":false},{"type":"event","name":"JobFunded","inputs":[{"name":"jobId","type":"uint256","indexed":true,"internalType":"uint256"},{"name":"client","type":"address","indexed":true,"internalType":"address"},{"name":"amount","type":"uint256","indexed":false,"internalType":"uint256"}],"anonymous":false},{"type":"event","name":"JobRejected","inputs":[{"name":"jobId","type":"uint256","indexed":true,"internalType":"uint256"},{"name":"rejector","type":"address","indexed":true,"internalType":"address"},{"name":"reason","type":"bytes32","indexed":false,"internalType":"bytes32"}],"anonymous":false},{"type":"event","name":"JobSubmitted","inputs":[{"name":"jobId","type":"uint256","indexed":true,"internalType":"uint256"},{"name":"provider","type":"address","indexed":true,"internalType":"address"},{"name":"deliverable","type":"bytes32","indexed":false,"internalType":"bytes32"}],"anonymous":false},{"type":"event","name":"PaymentReleased","inputs":[{"name":"jobId","type":"uint256","indexed":true,"internalType":"uint256"},{"name":"provider","type":"address","indexed":true,"internalType":"address"},{"name":"amount","type":"uint256","indexed":false,"internalType":"uint256"}],"anonymous":false},{"type":"event","name":"ProviderSet","inputs":[{"name":"jobId","type":"uint256","indexed":true,"internalType":"uint256"},{"name":"provider","type":"address","indexed":true,"internalType":"address"}],"anonymous":false},{"type":"event","name":"Refunded","inputs":[{"name":"jobId","type":"uint256","indexed":true,"internalType":"uint256"},{"name":"client","type":"address","indexed":true,"internalType":"address"},{"name":"amount","type":"uint256","indexed":false,"internalType":"uint256"}],"anonymous":false},{"type":"error","name":"AlreadySet","inputs":[]},{"type":"error","name":"BudgetMismatch","inputs":[{"name":"expected","type":"uint256","internalType":"uint256"},{"name":"actual","type":"uint256","internalType":"uint256"}]},{"type":"error","name":"ExpiredDeadline","inputs":[]},{"type":"error","name":"InvalidStatus","inputs":[{"name":"current","type":"uint8","internalType":"enum AgenticCommerce.JobStatus"},{"name":"expected","type":"string","internalType":"string"}]},{"type":"error","name":"ProviderNotSet","inputs":[]},{"type":"error","name":"ReentrancyGuardReentrantCall","inputs":[]},{"type":"error","name":"SafeERC20FailedOperation","inputs":[{"name":"token","type":"address","internalType":"address"}]},{"type":"error","name":"Unauthorized","inputs":[{"name":"caller","type":"address","internalType":"address"}]},{"type":"error","name":"ZeroAddress","inputs":[]},{"type":"error","name":"ZeroBudget","inputs":[]}],"bytecode":{"object":"0x60a060405234801561000f575f5ffd5b5060405161382f38038061382f833981810160405281019061003191906101a5565b600161004f61004461010460201b60201c565b61012d60201b60201c565b5f01819055505f73ffffffffffffffffffffffffffffffffffffffff168173ffffffffffffffffffffffffffffffffffffffff16036100c3576040517f08c379a00000000000000000000000000000000000000000000000000000000081526004016100ba9061022a565b60405180910390fd5b8073ffffffffffffffffffffffffffffffffffffffff1660808173ffffffffffffffffffffffffffffffffffffffff168152505060015f8190555050610248565b5f7f9b779b17422d0df92223018b32b4d1fa46e071723d6817e2486d003becc55f005f1b905090565b5f819050919050565b5f5ffd5b5f73ffffffffffffffffffffffffffffffffffffffff82169050919050565b5f6101638261013a565b9050919050565b5f61017482610159565b9050919050565b6101848161016a565b811461018e575f5ffd5b50565b5f8151905061019f8161017b565b92915050565b5f602082840312156101ba576101b9610136565b5b5f6101c784828501610191565b91505092915050565b5f82825260208201905092915050565b7f496e76616c696420746f6b656e000000000000000000000000000000000000005f82015250565b5f610214600d836101d0565b915061021f826101e0565b602082019050919050565b5f6020820190508181035f83015261024181610208565b9050919050565b6080516135b361027c5f395f81816102480152818161082601528181610ae8015281816118900152611af801526135b35ff3fe608060405234801561000f575f5ffd5b50600436106100b2575f3560e01c80639e63798d1161006f5780639e63798d1461018a578063bf22c457146101a6578063c9a84bb9146101d6578063d2e13f50146101f2578063d75bbdf31461020e578063dd4ae9d41461022a576100b2565b80633013ce29146100b657806334d10941146100d457806341528812146100f257806341dd26f5146101225780635b7baf641461013e5780636d7b7fc91461015a575b5f5ffd5b6100be610246565b6040516100cb9190612170565b60405180910390f35b6100dc61026a565b6040516100e991906121a1565b60405180910390f35b61010c60048036038101906101079190612288565b610272565b60405161011991906121a1565b60405180910390f35b61013c600480360381019061013791906123a6565b610516565b005b61015860048036038101906101539190612417565b610973565b005b610174600480360381019061016f9190612465565b610bd7565b6040516101819190612500565b60405180910390f35b6101a4600480360381019061019f91906123a6565b610e8b565b005b6101c060048036038101906101bb9190612417565b611076565b6040516101cd91906126ca565b60405180910390f35b6101f060048036038101906101eb91906126ea565b61132c565b005b61020c6004803603810190610207919061275b565b6115d2565b005b610228600480360381019061022391906123a6565b611937565b005b610244600480360381019061023f919061275b565b611c05565b005b7f000000000000000000000000000000000000000000000000000000000000000081565b5f5f54905090565b5f5f73ffffffffffffffffffffffffffffffffffffffff168673ffffffffffffffffffffffffffffffffffffffff16036102e1576040517f08c379a00000000000000000000000000000000000000000000000000000000081526004016102d890612816565b60405180910390fd5b428511610323576040517f08c379a000000000000000000000000000000000000000000000000000000000815260040161031a9061287e565b60405180910390fd5b5f5490505f5f815480929190610338906128c9565b91905055505f60015f8381526020019081526020015f20905033815f015f6101000a81548173ffffffffffffffffffffffffffffffffffffffff021916908373ffffffffffffffffffffffffffffffffffffffff16021790555087816001015f6101000a81548173ffffffffffffffffffffffffffffffffffffffff021916908373ffffffffffffffffffffffffffffffffffffffff16021790555086816002015f6101000a81548173ffffffffffffffffffffffffffffffffffffffff021916908373ffffffffffffffffffffffffffffffffffffffff1602179055508484826003019182610429929190612b3b565b508581600501819055505f816006015f6101000a81548160ff0219169083600581111561045957610458612586565b5b0217905550828160060160016101000a81548173ffffffffffffffffffffffffffffffffffffffff021916908373ffffffffffffffffffffffffffffffffffffffff1602179055508773ffffffffffffffffffffffffffffffffffffffff163373ffffffffffffffffffffffffffffffffffffffff16837fb0f0239bfdd96453e24733e18bfc24b70d8fadf123dd977473518dd577ee79b98a8a8860405161050393929190612c17565b60405180910390a4509695505050505050565b5f60015f8681526020019081526020015f2090505f600581111561053d5761053c612586565b5b816006015f9054906101000a900460ff1660058111156105605761055f612586565b5b0361067557805f015f9054906101000a900473ffffffffffffffffffffffffffffffffffffffff1673ffffffffffffffffffffffffffffffffffffffff163373ffffffffffffffffffffffffffffffffffffffff16146105f5576040517f08c379a00000000000000000000000000000000000000000000000000000000081526004016105ec90612c96565b60405180910390fd5b6004816006015f6101000a81548160ff0219169083600581111561061c5761061b612586565b5b02179055503373ffffffffffffffffffffffffffffffffffffffff16857fae7362b1af91f4492868987b9c73990d780060811551b58728fbe96fd1bab275866040516106689190612cc3565b60405180910390a361096c565b6001600581111561068957610688612586565b5b816006015f9054906101000a900460ff1660058111156106ac576106ab612586565b5b14806106ec5750600260058111156106c7576106c6612586565b5b816006015f9054906101000a900460ff1660058111156106ea576106e9612586565b5b145b1561093057806002015f9054906101000a900473ffffffffffffffffffffffffffffffffffffffff1673ffffffffffffffffffffffffffffffffffffffff163373ffffffffffffffffffffffffffffffffffffffff1614610782576040517f08c379a000000000000000000000000000000000000000000000000000000000815260040161077990612d26565b60405180910390fd5b80600501544211156107c9576040517f08c379a00000000000000000000000000000000000000000000000000000000081526004016107c090612d8e565b60405180910390fd5b6004816006015f6101000a81548160ff021916908360058111156107f0576107ef612586565b5b02179055505f8160040154905061086a825f015f9054906101000a900473ffffffffffffffffffffffffffffffffffffffff16827f000000000000000000000000000000000000000000000000000000000000000073ffffffffffffffffffffffffffffffffffffffff16611e029092919063ffffffff16565b3373ffffffffffffffffffffffffffffffffffffffff16867fae7362b1af91f4492868987b9c73990d780060811551b58728fbe96fd1bab275876040516108b19190612cc3565b60405180910390a3815f015f9054906101000a900473ffffffffffffffffffffffffffffffffffffffff1673ffffffffffffffffffffffffffffffffffffffff16867f7ca5472b7ea78c2c0141c5a12ee6d170cf4ce8ed06be3d22c8252ddfc7a6a2c48360405161092291906121a1565b60405180910390a35061096b565b6040517f08c379a000000000000000000000000000000000000000000000000000000000815260040161096290612df6565b60405180910390fd5b5b5050505050565b61097b611e55565b5f60015f8381526020019081526020015f209050600160058111156109a3576109a2612586565b5b816006015f9054906101000a900460ff1660058111156109c6576109c5612586565b5b1480610a065750600260058111156109e1576109e0612586565b5b816006015f9054906101000a900460ff166005811115610a0457610a03612586565b5b145b610a45576040517f08c379a0000000000000000000000000000000000000000000000000000000008152600401610a3c90612e5e565b60405180910390fd5b80600501544211610a8b576040517f08c379a0000000000000000000000000000000000000000000000000000000008152600401610a8290612ec6565b60405180910390fd5b6005816006015f6101000a81548160ff02191690836005811115610ab257610ab1612586565b5b02179055505f81600401549050610b2c825f015f9054906101000a900473ffffffffffffffffffffffffffffffffffffffff16827f000000000000000000000000000000000000000000000000000000000000000073ffffffffffffffffffffffffffffffffffffffff16611e029092919063ffffffff16565b827f97237956f8810192811e2c3f273fd02c5d6295206fdd9c62e6fe2bfc19ba923260405160405180910390a2815f015f9054906101000a900473ffffffffffffffffffffffffffffffffffffffff1673ffffffffffffffffffffffffffffffffffffffff16837f7ca5472b7ea78c2c0141c5a12ee6d170cf4ce8ed06be3d22c8252ddfc7a6a2c483604051610bc291906121a1565b60405180910390a35050610bd4611e77565b50565b60605f6005811115610bec57610beb612586565b5b826005811115610bff57610bfe612586565b5b03610c41576040518060400160405280600481526020017f4f70656e000000000000000000000000000000000000000000000000000000008152509050610e86565b60016005811115610c5557610c54612586565b5b826005811115610c6857610c67612586565b5b03610caa576040518060400160405280600681526020017f46756e64656400000000000000000000000000000000000000000000000000008152509050610e86565b60026005811115610cbe57610cbd612586565b5b826005811115610cd157610cd0612586565b5b03610d13576040518060400160405280600981526020017f5375626d697474656400000000000000000000000000000000000000000000008152509050610e86565b60036005811115610d2757610d26612586565b5b826005811115610d3a57610d39612586565b5b03610d7c576040518060400160405280600981526020017f436f6d706c6574656400000000000000000000000000000000000000000000008152509050610e86565b60046005811115610d9057610d8f612586565b5b826005811115610da357610da2612586565b5b03610de5576040518060400160405280600881526020017f52656a65637465640000000000000000000000000000000000000000000000008152509050610e86565b600580811115610df857610df7612586565b5b826005811115610e0b57610e0a612586565b5b03610e4d576040518060400160405280600781526020017f45787069726564000000000000000000000000000000000000000000000000008152509050610e86565b6040518060400160405280600781526020017f556e6b6e6f776e0000000000000000000000000000000000000000000000000081525090505b919050565b5f60015f8681526020019081526020015f209050806001015f9054906101000a900473ffffffffffffffffffffffffffffffffffffffff1673ffffffffffffffffffffffffffffffffffffffff163373ffffffffffffffffffffffffffffffffffffffff1614610f30576040517f08c379a0000000000000000000000000000000000000000000000000000000008152600401610f2790612f2e565b60405180910390fd5b60016005811115610f4457610f43612586565b5b816006015f9054906101000a900460ff166005811115610f6757610f66612586565b5b14610fa7576040517f08c379a0000000000000000000000000000000000000000000000000000000008152600401610f9e90612f96565b60405180910390fd5b5f5f1b8403610feb576040517f08c379a0000000000000000000000000000000000000000000000000000000008152600401610fe290612ffe565b60405180910390fd5b6002816006015f6101000a81548160ff0219169083600581111561101257611011612586565b5b02179055508381600701819055503373ffffffffffffffffffffffffffffffffffffffff16857f80c17db79857f338a6a6df68a6883ecc0ce78e2202fe61ed979733573f40538e866040516110679190612cc3565b60405180910390a35050505050565b61107e612048565b5f8211801561108d57505f5482105b6110cc576040517f08c379a00000000000000000000000000000000000000000000000000000000081526004016110c390613066565b60405180910390fd5b60015f8381526020019081526020015f20604051806101200160405290815f82015f9054906101000a900473ffffffffffffffffffffffffffffffffffffffff1673ffffffffffffffffffffffffffffffffffffffff1673ffffffffffffffffffffffffffffffffffffffff168152602001600182015f9054906101000a900473ffffffffffffffffffffffffffffffffffffffff1673ffffffffffffffffffffffffffffffffffffffff1673ffffffffffffffffffffffffffffffffffffffff168152602001600282015f9054906101000a900473ffffffffffffffffffffffffffffffffffffffff1673ffffffffffffffffffffffffffffffffffffffff1673ffffffffffffffffffffffffffffffffffffffff1681526020016003820180546111f790612974565b80601f016020809104026020016040519081016040528092919081815260200182805461122390612974565b801561126e5780601f106112455761010080835404028352916020019161126e565b820191905f5260205f20905b81548152906001019060200180831161125157829003601f168201915b505050505081526020016004820154815260200160058201548152602001600682015f9054906101000a900460ff1660058111156112af576112ae612586565b5b60058111156112c1576112c0612586565b5b81526020016006820160019054906101000a900473ffffffffffffffffffffffffffffffffffffffff1673ffffffffffffffffffffffffffffffffffffffff1673ffffffffffffffffffffffffffffffffffffffff1681526020016007820154815250509050919050565b5f60015f8681526020019081526020015f2090503373ffffffffffffffffffffffffffffffffffffffff16815f015f9054906101000a900473ffffffffffffffffffffffffffffffffffffffff1673ffffffffffffffffffffffffffffffffffffffff16146113d0576040517f08c379a00000000000000000000000000000000000000000000000000000000081526004016113c7906130ce565b60405180910390fd5b5f60058111156113e3576113e2612586565b5b816006015f9054906101000a900460ff16600581111561140657611405612586565b5b14611446576040517f08c379a000000000000000000000000000000000000000000000000000000000815260040161143d90613136565b60405180910390fd5b5f73ffffffffffffffffffffffffffffffffffffffff16816001015f9054906101000a900473ffffffffffffffffffffffffffffffffffffffff1673ffffffffffffffffffffffffffffffffffffffff16146114d7576040517f08c379a00000000000000000000000000000000000000000000000000000000081526004016114ce9061319e565b60405180910390fd5b5f73ffffffffffffffffffffffffffffffffffffffff168473ffffffffffffffffffffffffffffffffffffffff1603611545576040517f08c379a000000000000000000000000000000000000000000000000000000000815260040161153c90613206565b60405180910390fd5b83816001015f6101000a81548173ffffffffffffffffffffffffffffffffffffffff021916908373ffffffffffffffffffffffffffffffffffffffff1602179055508373ffffffffffffffffffffffffffffffffffffffff16857f9a87df076ea1725aba8ba29d32517ce37c9597d88cbf16ec6707892cc330ab6960405160405180910390a35050505050565b6115da611e55565b5f60015f8681526020019081526020015f2090503373ffffffffffffffffffffffffffffffffffffffff16815f015f9054906101000a900473ffffffffffffffffffffffffffffffffffffffff1673ffffffffffffffffffffffffffffffffffffffff161461167e576040517f08c379a0000000000000000000000000000000000000000000000000000000008152600401611675906130ce565b60405180910390fd5b5f600581111561169157611690612586565b5b816006015f9054906101000a900460ff1660058111156116b4576116b3612586565b5b146116f4576040517f08c379a00000000000000000000000000000000000000000000000000000000081526004016116eb90613136565b60405180910390fd5b5f73ffffffffffffffffffffffffffffffffffffffff16816001015f9054906101000a900473ffffffffffffffffffffffffffffffffffffffff1673ffffffffffffffffffffffffffffffffffffffff1603611785576040517f08c379a000000000000000000000000000000000000000000000000000000000815260040161177c9061326e565b60405180910390fd5b5f8160040154116117cb576040517f08c379a00000000000000000000000000000000000000000000000000000000081526004016117c2906132d6565b60405180910390fd5b83816004015414611811576040517f08c379a00000000000000000000000000000000000000000000000000000000081526004016118089061333e565b60405180910390fd5b8060050154421115611858576040517f08c379a000000000000000000000000000000000000000000000000000000000815260040161184f906133a6565b60405180910390fd5b6001816006015f6101000a81548160ff0219169083600581111561187f5761187e612586565b5b02179055506118d5333083600401547f000000000000000000000000000000000000000000000000000000000000000073ffffffffffffffffffffffffffffffffffffffff16611e91909392919063ffffffff16565b3373ffffffffffffffffffffffffffffffffffffffff16857fe3fbcc1ea1bdc559ec7f0347efde7655e58b5f45a30b0e4470a583c3ef5496b3836004015460405161192091906121a1565b60405180910390a350611931611e77565b50505050565b5f60015f8681526020019081526020015f209050806002015f9054906101000a900473ffffffffffffffffffffffffffffffffffffffff1673ffffffffffffffffffffffffffffffffffffffff163373ffffffffffffffffffffffffffffffffffffffff16146119dc576040517f08c379a00000000000000000000000000000000000000000000000000000000081526004016119d39061340e565b60405180910390fd5b600260058111156119f0576119ef612586565b5b816006015f9054906101000a900460ff166005811115611a1357611a12612586565b5b14611a53576040517f08c379a0000000000000000000000000000000000000000000000000000000008152600401611a4a90613476565b60405180910390fd5b8060050154421115611a9a576040517f08c379a0000000000000000000000000000000000000000000000000000000008152600401611a91906133a6565b60405180910390fd5b6003816006015f6101000a81548160ff02191690836005811115611ac157611ac0612586565b5b02179055505f81600401549050611b3c826001015f9054906101000a900473ffffffffffffffffffffffffffffffffffffffff16827f000000000000000000000000000000000000000000000000000000000000000073ffffffffffffffffffffffffffffffffffffffff16611e029092919063ffffffff16565b3373ffffffffffffffffffffffffffffffffffffffff16867f0fd54bd364fa9e67f17b091aefe930932c09fe7651cf5ad02c71a418f334144487604051611b839190612cc3565b60405180910390a3816001015f9054906101000a900473ffffffffffffffffffffffffffffffffffffffff1673ffffffffffffffffffffffffffffffffffffffff16867f21d71db5be59bb9fa133895586b7404307dd33fb93b16db09dc6f1d9d7d231b083604051611bf591906121a1565b60405180910390a3505050505050565b5f60015f8681526020019081526020015f209050805f015f9054906101000a900473ffffffffffffffffffffffffffffffffffffffff1673ffffffffffffffffffffffffffffffffffffffff163373ffffffffffffffffffffffffffffffffffffffff161480611cc35750806001015f9054906101000a900473ffffffffffffffffffffffffffffffffffffffff1673ffffffffffffffffffffffffffffffffffffffff163373ffffffffffffffffffffffffffffffffffffffff16145b611d02576040517f08c379a0000000000000000000000000000000000000000000000000000000008152600401611cf9906134de565b60405180910390fd5b5f6005811115611d1557611d14612586565b5b816006015f9054906101000a900460ff166005811115611d3857611d37612586565b5b14611d78576040517f08c379a0000000000000000000000000000000000000000000000000000000008152600401611d6f90613136565b60405180910390fd5b5f8411611dba576040517f08c379a0000000000000000000000000000000000000000000000000000000008152600401611db190613546565b60405180910390fd5b838160040181905550847f869e2577b006bf47ee981cf6fec2e25583548081c14b98deab587f77b506803885604051611df391906121a1565b60405180910390a25050505050565b611e0f8383836001611ee6565b611e5057826040517f5274afe7000000000000000000000000000000000000000000000000000000008152600401611e479190613564565b60405180910390fd5b505050565b611e5d611f48565b6002611e6f611e6a611f89565b611fb2565b5f0181905550565b6001611e89611e84611f89565b611fb2565b5f0181905550565b611e9f848484846001611fbb565b611ee057836040517f5274afe7000000000000000000000000000000000000000000000000000000008152600401611ed79190613564565b60405180910390fd5b50505050565b5f5f63a9059cbb60e01b9050604051815f525f1960601c86166004528460245260205f60445f5f8b5af1925060015f51148316611f3a578383151615611f2e573d5f823e3d81fd5b5f873b113d1516831692505b806040525050949350505050565b611f5061202c565b15611f87576040517f3ee5aeb500000000000000000000000000000000000000000000000000000000815260040160405180910390fd5b565b5f7f9b779b17422d0df92223018b32b4d1fa46e071723d6817e2486d003becc55f005f1b905090565b5f819050919050565b5f5f6323b872dd60e01b9050604051815f525f1960601c87166004525f1960601c86166024528460445260205f60645f5f8c5af1925060015f5114831661201957838315161561200d573d5f823e3d81fd5b5f883b113d1516831692505b806040525f606052505095945050505050565b5f600261203f61203a611f89565b611fb2565b5f015414905090565b6040518061012001604052805f73ffffffffffffffffffffffffffffffffffffffff1681526020015f73ffffffffffffffffffffffffffffffffffffffff1681526020015f73ffffffffffffffffffffffffffffffffffffffff168152602001606081526020015f81526020015f81526020015f60058111156120ce576120cd612586565b5b81526020015f73ffffffffffffffffffffffffffffffffffffffff1681526020015f81525090565b5f73ffffffffffffffffffffffffffffffffffffffff82169050919050565b5f819050919050565b5f61213861213361212e846120f6565b612115565b6120f6565b9050919050565b5f6121498261211e565b9050919050565b5f61215a8261213f565b9050919050565b61216a81612150565b82525050565b5f6020820190506121835f830184612161565b92915050565b5f819050919050565b61219b81612189565b82525050565b5f6020820190506121b45f830184612192565b92915050565b5f5ffd5b5f5ffd5b5f6121cc826120f6565b9050919050565b6121dc816121c2565b81146121e6575f5ffd5b50565b5f813590506121f7816121d3565b92915050565b61220681612189565b8114612210575f5ffd5b50565b5f81359050612221816121fd565b92915050565b5f5ffd5b5f5ffd5b5f5ffd5b5f5f83601f84011261224857612247612227565b5b8235905067ffffffffffffffff8111156122655761226461222b565b5b6020830191508360018202830111156122815761228061222f565b5b9250929050565b5f5f5f5f5f5f60a087890312156122a2576122a16121ba565b5b5f6122af89828a016121e9565b96505060206122c089828a016121e9565b95505060406122d189828a01612213565b945050606087013567ffffffffffffffff8111156122f2576122f16121be565b5b6122fe89828a01612233565b9350935050608061231189828a016121e9565b9150509295509295509295565b5f819050919050565b6123308161231e565b811461233a575f5ffd5b50565b5f8135905061234b81612327565b92915050565b5f5f83601f84011261236657612365612227565b5b8235905067ffffffffffffffff8111156123835761238261222b565b5b60208301915083600182028301111561239f5761239e61222f565b5b9250929050565b5f5f5f5f606085870312156123be576123bd6121ba565b5b5f6123cb87828801612213565b94505060206123dc8782880161233d565b935050604085013567ffffffffffffffff8111156123fd576123fc6121be565b5b61240987828801612351565b925092505092959194509250565b5f6020828403121561242c5761242b6121ba565b5b5f61243984828501612213565b91505092915050565b6006811061244e575f5ffd5b50565b5f8135905061245f81612442565b92915050565b5f6020828403121561247a576124796121ba565b5b5f61248784828501612451565b91505092915050565b5f81519050919050565b5f82825260208201905092915050565b8281835e5f83830152505050565b5f601f19601f8301169050919050565b5f6124d282612490565b6124dc818561249a565b93506124ec8185602086016124aa565b6124f5816124b8565b840191505092915050565b5f6020820190508181035f83015261251881846124c8565b905092915050565b612529816121c2565b82525050565b5f82825260208201905092915050565b5f61254982612490565b612553818561252f565b93506125638185602086016124aa565b61256c816124b8565b840191505092915050565b61258081612189565b82525050565b7f4e487b71000000000000000000000000000000000000000000000000000000005f52602160045260245ffd5b600681106125c4576125c3612586565b5b50565b5f8190506125d4826125b3565b919050565b5f6125e3826125c7565b9050919050565b6125f3816125d9565b82525050565b6126028161231e565b82525050565b5f61012083015f83015161261e5f860182612520565b5060208301516126316020860182612520565b5060408301516126446040860182612520565b506060830151848203606086015261265c828261253f565b91505060808301516126716080860182612577565b5060a083015161268460a0860182612577565b5060c083015161269760c08601826125ea565b5060e08301516126aa60e0860182612520565b506101008301516126bf6101008601826125f9565b508091505092915050565b5f6020820190508181035f8301526126e28184612608565b905092915050565b5f5f5f5f60608587031215612702576127016121ba565b5b5f61270f87828801612213565b9450506020612720878288016121e9565b935050604085013567ffffffffffffffff811115612741576127406121be565b5b61274d87828801612351565b925092505092959194509250565b5f5f5f5f60608587031215612773576127726121ba565b5b5f61278087828801612213565b945050602061279187828801612213565b935050604085013567ffffffffffffffff8111156127b2576127b16121be565b5b6127be87828801612351565b925092505092959194509250565b7f4576616c7561746f722063616e6e6f74206265207a65726f00000000000000005f82015250565b5f61280060188361249a565b915061280b826127cc565b602082019050919050565b5f6020820190508181035f83015261282d816127f4565b9050919050565b7f657870697265644174206d75737420626520696e2074686520667574757265005f82015250565b5f612868601f8361249a565b915061287382612834565b602082019050919050565b5f6020820190508181035f8301526128958161285c565b9050919050565b7f4e487b71000000000000000000000000000000000000000000000000000000005f52601160045260245ffd5b5f6128d382612189565b91507fffffffffffffffffffffffffffffffffffffffffffffffffffffffffffffffff82036129055761290461289c565b5b600182019050919050565b5f82905092915050565b7f4e487b71000000000000000000000000000000000000000000000000000000005f52604160045260245ffd5b7f4e487b71000000000000000000000000000000000000000000000000000000005f52602260045260245ffd5b5f600282049050600182168061298b57607f821691505b60208210810361299e5761299d612947565b5b50919050565b5f819050815f5260205f209050919050565b5f6020601f8301049050919050565b5f82821b905092915050565b5f60088302612a007fffffffffffffffffffffffffffffffffffffffffffffffffffffffffffffffff826129c5565b612a0a86836129c5565b95508019841693508086168417925050509392505050565b5f612a3c612a37612a3284612189565b612115565b612189565b9050919050565b5f819050919050565b612a5583612a22565b612a69612a6182612a43565b8484546129d1565b825550505050565b5f5f905090565b612a80612a71565b612a8b818484612a4c565b505050565b5b81811015612aae57612aa35f82612a78565b600181019050612a91565b5050565b601f821115612af357612ac4816129a4565b612acd846129b6565b81016020851015612adc578190505b612af0612ae8856129b6565b830182612a90565b50505b505050565b5f82821c905092915050565b5f612b135f1984600802612af8565b1980831691505092915050565b5f612b2b8383612b04565b9150826002028217905092915050565b612b458383612910565b67ffffffffffffffff811115612b5e57612b5d61291a565b5b612b688254612974565b612b73828285612ab2565b5f601f831160018114612ba0575f8415612b8e578287013590505b612b988582612b20565b865550612bff565b601f198416612bae866129a4565b5f5b82811015612bd557848901358255600182019150602085019450602081019050612bb0565b86831015612bf25784890135612bee601f891682612b04565b8355505b6001600288020188555050505b50505050505050565b612c11816121c2565b82525050565b5f606082019050612c2a5f830186612c08565b612c376020830185612192565b612c446040830184612c08565b949350505050565b7f4f6e6c7920636c69656e742063616e2072656a656374204f70656e206a6f62005f82015250565b5f612c80601f8361249a565b9150612c8b82612c4c565b602082019050919050565b5f6020820190508181035f830152612cad81612c74565b9050919050565b612cbd8161231e565b82525050565b5f602082019050612cd65f830184612cb4565b92915050565b7f4f6e6c79206576616c7561746f722063616e2072656a656374000000000000005f82015250565b5f612d1060198361249a565b9150612d1b82612cdc565b602082019050919050565b5f6020820190508181035f830152612d3d81612d04565b9050919050565b7f4a6f6220657870697265642c2075736520636c61696d526566756e64000000005f82015250565b5f612d78601c8361249a565b9150612d8382612d44565b602082019050919050565b5f6020820190508181035f830152612da581612d6c565b9050919050565b7f43616e6e6f742072656a65637420696e2063757272656e7420737461747573005f82015250565b5f612de0601f8361249a565b9150612deb82612dac565b602082019050919050565b5f6020820190508181035f830152612e0d81612dd4565b9050919050565b7f4e6f7420726566756e6461626c650000000000000000000000000000000000005f82015250565b5f612e48600e8361249a565b9150612e5382612e14565b602082019050919050565b5f6020820190508181035f830152612e7581612e3c565b9050919050565b7f4e6f7420657870697265642079657400000000000000000000000000000000005f82015250565b5f612eb0600f8361249a565b9150612ebb82612e7c565b602082019050919050565b5f6020820190508181035f830152612edd81612ea4565b9050919050565b7f4f6e6c792070726f7669646572000000000000000000000000000000000000005f82015250565b5f612f18600d8361249a565b9150612f2382612ee4565b602082019050919050565b5f6020820190508181035f830152612f4581612f0c565b9050919050565b7f4e6f742046756e646564000000000000000000000000000000000000000000005f82015250565b5f612f80600a8361249a565b9150612f8b82612f4c565b602082019050919050565b5f6020820190508181035f830152612fad81612f74565b9050919050565b7f44656c6976657261626c652063616e6e6f7420626520656d70747900000000005f82015250565b5f612fe8601b8361249a565b9150612ff382612fb4565b602082019050919050565b5f6020820190508181035f83015261301581612fdc565b9050919050565b7f4a6f6220646f6573206e6f7420657869737400000000000000000000000000005f82015250565b5f61305060128361249a565b915061305b8261301c565b602082019050919050565b5f6020820190508181035f83015261307d81613044565b9050919050565b7f4f6e6c7920636c69656e740000000000000000000000000000000000000000005f82015250565b5f6130b8600b8361249a565b91506130c382613084565b602082019050919050565b5f6020820190508181035f8301526130e5816130ac565b9050919050565b7f4e6f74204f70656e0000000000000000000000000000000000000000000000005f82015250565b5f61312060088361249a565b915061312b826130ec565b602082019050919050565b5f6020820190508181035f83015261314d81613114565b9050919050565b7f50726f766964657220616c7265616479207365740000000000000000000000005f82015250565b5f61318860148361249a565b915061319382613154565b602082019050919050565b5f6020820190508181035f8301526131b58161317c565b9050919050565b7f50726f76696465722063616e6e6f74206265207a65726f0000000000000000005f82015250565b5f6131f060178361249a565b91506131fb826131bc565b602082019050919050565b5f6020820190508181035f83015261321d816131e4565b9050919050565b7f50726f7669646572206e6f7420736574000000000000000000000000000000005f82015250565b5f61325860108361249a565b915061326382613224565b602082019050919050565b5f6020820190508181035f8301526132858161324c565b9050919050565b7f427564676574206e6f74207365740000000000000000000000000000000000005f82015250565b5f6132c0600e8361249a565b91506132cb8261328c565b602082019050919050565b5f6020820190508181035f8301526132ed816132b4565b9050919050565b7f427564676574206d69736d6174636800000000000000000000000000000000005f82015250565b5f613328600f8361249a565b9150613333826132f4565b602082019050919050565b5f6020820190508181035f8301526133558161331c565b9050919050565b7f4a6f6220657870697265640000000000000000000000000000000000000000005f82015250565b5f613390600b8361249a565b915061339b8261335c565b602082019050919050565b5f6020820190508181035f8301526133bd81613384565b9050919050565b7f4f6e6c79206576616c7561746f720000000000000000000000000000000000005f82015250565b5f6133f8600e8361249a565b9150613403826133c4565b602082019050919050565b5f6020820190508181035f830152613425816133ec565b9050919050565b7f4e6f74205375626d6974746564000000000000000000000000000000000000005f82015250565b5f613460600d8361249a565b915061346b8261342c565b602082019050919050565b5f6020820190508181035f83015261348d81613454565b9050919050565b7f4f6e6c7920636c69656e74206f722070726f76696465720000000000000000005f82015250565b5f6134c860178361249a565b91506134d382613494565b602082019050919050565b5f6020820190508181035f8301526134f5816134bc565b9050919050565b7f427564676574206d757374206265203e203000000000000000000000000000005f82015250565b5f61353060128361249a565b915061353b826134fc565b602082019050919050565b5f6020820190508181035f83015261355d81613524565b9050919050565b5f6020820190506135775f830184612c08565b9291505056fea26469706673582212201d2e5dd8a6ae4bcba2733bd31b985755bf06b82b179c28eb79b5a0324dfcd40464736f6c634300081c0033","linkReferences":{}},"methodIdentifiers":{"claimRefund(uint256)":"5b7baf64","complete(uint256,bytes32,bytes)":"d75bbdf3","createJob(address,address,uint256,string,address)":"41528812","currentJobId()":"34d10941","fund(uint256,uint256,bytes)":"d2e13f50","getJob(uint256)":"bf22c457","paymentToken()":"3013ce29","reject(uint256,bytes32,bytes)":"41dd26f5","setBudget(uint256,uint256,bytes)":"dd4ae9d4","setProvider(uint256,address,bytes)":"c9a84bb9","statusToString(uint8)":"6d7b7fc9","submit(uint256,bytes32,bytes)":"9e63798d"},"id":24}