{"abi":[{"type":"constructor","inputs":[{"name":"_asset","type":"address","internalType":"contract IERC20"}],"stateMutability":"nonpayable"},{"type":"function","name":"allowance","inputs":[{"name":"owner","type":"address","internalType":"address"},{"name":"spender","type":"address","internalType":"address"}],"outputs":[{"name":"","type":"uint256","internalType":"uint256"}],"stateMutability":"view"},{"type":"function","name":"approve","inputs":[{"name":"spender","type":"address","internalType":"address"},{"name":"value","type":"uint256","internalType":"uint256"}],"outputs":[{"name":"","type":"bool","internalType":"bool"}],"stateMutability":"nonpayable"},{"type":"function","name":"asset","inputs":[],"outputs":[{"name":"","type":"address","internalType":"address"}],"stateMutability":"view"},{"type":"function","name":"balanceOf","inputs":[{"name":"account","type":"address","internalType":"address"}],"outputs":[{"name":"","type":"uint256","internalType":"uint256"}],"stateMutability":"view"},{"type":"function","name":"convertToAssets","inputs":[{"name":"shares","type":"uint256","internalType":"uint256"}],"outputs":[{"name":"","type":"uint256","internalType":"uint256"}],"stateMutability":"view"},{"type":"function","name":"convertToShares","inputs":[{"name":"assets","type":"uint256","internalType":"uint256"}],"outputs":[{"name":"","type":"uint256","internalType":"uint256"}],"stateMutability":"view"},{"type":"function","name":"decimals","inputs":[],"outputs":[{"name":"","type":"uint8","internalType":"uint8"}],"stateMutability":"view"},{"type":"function","name":"deposit","inputs":[{"name":"assets","type":"uint256","internalType":"uint256"},{"name":"receiver","type":"address","internalType":"address"}],"outputs":[{"name":"","type":"uint256","internalType":"uint256"}],"stateMutability":"nonpayable"},{"type":"function","name":"donate","inputs":[{"name":"amount","type":"uint256","internalType":"uint256"}],"outputs":[],"stateMutability":"nonpayable"},{"type":"function","name":"maxDeposit","inputs":[{"name":"","type":"address","internalType":"address"}],"outputs":[{"name":"","type":"uint256","internalType":"uint256"}],"stateMutability":"view"},{"type":"function","name":"maxMint","inputs":[{"name":"","type":"address","internalType":"address"}],"outputs":[{"name":"","type":"uint256","internalType":"uint256"}],"stateMutability":"view"},{"type":"function","name":"maxRedeem","inputs":[{"name":"owner","type":"address","internalType":"address"}],"outputs":[{"name":"","type":"uint256","internalType":"uint256"}],"stateMutability":"view"},{"type":"function","name":"maxWithdraw","inputs":[{"name":"owner","type":"address","internalType":"address"}],"outputs":[{"name":"","type":"uint256","internalType":"uint256"}],"stateMutability":"view"},{"type":"function","name":"mint","inputs":[{"name":"shares","type":"uint256","internalType":"uint256"},{"name":"receiver","type":"address","internalType":"address"}],"outputs":[{"name":"","type":"uint256","internalType":"uint256"}],"stateMutability":"nonpayable"},{"type":"function","name":"name","inputs":[],"outputs":[{"name":"","type":"string","internalType":"string"}],"stateMutability":"view"},{"type":"function","name":"previewDeposit","inputs":[{"name":"assets","type":"uint256","internalType":"uint256"}],"outputs":[{"name":"","type":"uint256","internalType":"uint256"}],"stateMutability":"view"},{"type":"function","name":"previewMint","inputs":[{"name":"shares","type":"uint256","internalType":"uint256"}],"outputs":[{"name":"","type":"uint256","internalType":"uint256"}],"stateMutability":"view"},{"type":"function","name":"previewRedeem","inputs":[{"name":"shares","type":"uint256","internalType":"uint256"}],"outputs":[{"name":"","type":"uint256","internalType":"uint256"}],"stateMutability":"view"},{"type":"function","name":"previewWithdraw","inputs":[{"name":"assets","type":"uint256","internalType":"uint256"}],"outputs":[{"name":"","type":"uint256","internalType":"uint256"}],"stateMutability":"view"},{"type":"function","name":"redeem","inputs":[{"name":"shares","type":"uint256","internalType":"uint256"},{"name":"receiver","type":"address","internalType":"address"},{"name":"owner","type":"address","internalType":"address"}],"outputs":[{"name":"","type":"uint256","internalType":"uint256"}],"stateMutability":"nonpayable"},{"type":"function","name":"sharePrice","inputs":[],"outputs":[{"name":"","type":"uint256","internalType":"uint256"}],"stateMutability":"view"},{"type":"function","name":"symbol","inputs":[],"outputs":[{"name":"","type":"string","internalType":"string"}],"stateMutability":"view"},{"type":"function","name":"totalAssets","inputs":[],"outputs":[{"name":"","type":"uint256","internalType":"uint256"}],"stateMutability":"view"},{"type":"function","name":"totalSupply","inputs":[],"outputs":[{"name":"","type":"uint256","internalType":"uint256"}],"stateMutability":"view"},{"type":"function","name":"transfer","inputs":[{"name":"to","type":"address","internalType":"address"},{"name":"value","type":"uint256","internalType":"uint256"}],"outputs":[{"name":"","type":"bool","internalType":"bool"}],"stateMutability":"nonpayable"},{"type":"function","name":"transferFrom","inputs":[{"name":"from","type":"address","internalType":"address"},{"name":"to","type":"address","internalType":"address"},{"name":"value","type":"uint256","internalType":"uint256"}],"outputs":[{"name":"","type":"bool","internalType":"bool"}],"stateMutability":"nonpayable"},{"type":"function","name":"withdraw","inputs":[{"name":"assets","type":"uint256","internalType":"uint256"},{"name":"receiver","type":"address","internalType":"address"},{"name":"owner","type":"address","internalType":"address"}],"outputs":[{"name":"","type":"uint256","internalType":"uint256"}],"stateMutability":"nonpayable"},{"type":"event","name":"Approval","inputs":[{"name":"owner","type":"address","indexed":true,"internalType":"address"},{"name":"spender","type":"address","indexed":true,"internalType":"address"},{"name":"value","type":"uint256","indexed":false,"internalType":"uint256"}],"anonymous":false},{"type":"event","name":"Deposit","inputs":[{"name":"sender","type":"address","indexed":true,"internalType":"address"},{"name":"owner","type":"address","indexed":true,"internalType":"address"},{"name":"assets","type":"uint256","indexed":false,"internalType":"uint256"},{"name":"shares","type":"uint256","indexed":false,"internalType":"uint256"}],"anonymous":false},{"type":"event","name":"Donated","inputs":[{"name":"donor","type":"address","indexed":true,"internalType":"address"},{"name":"amount","type":"uint256","indexed":false,"internalType":"uint256"}],"anonymous":false},{"type":"event","name":"Transfer","inputs":[{"name":"from","type":"address","indexed":true,"internalType":"address"},{"name":"to","type":"address","indexed":true,"internalType":"address"},{"name":"value","type":"uint256","indexed":false,"internalType":"uint256"}],"anonymous":false},{"type":"event","name":"Withdraw","inputs":[{"name":"sender","type":"address","indexed":true,"internalType":"address"},{"name":"receiver","type":"address","indexed":true,"internalType":"address"},{"name":"owner","type":"address","indexed":true,"internalType":"address"},{"name":"assets","type":"uint256","indexed":false,"internalType":"uint256"},{"name":"shares","type":"uint256","indexed":false,"internalType":"uint256"}],"anonymous":false},{"type":"error","name":"ERC20InsufficientAllowance","inputs":[{"name":"spender","type":"address","internalType":"address"},{"name":"allowance","type":"uint256","internalType":"uint256"},{"name":"needed","type":"uint256","internalType":"uint256"}]},{"type":"error","name":"ERC20InsufficientBalance","inputs":[{"name":"sender","type":"address","internalType":"address"},{"name":"balance","type":"uint256","internalType":"uint256"},{"name":"needed","type":"uint256","internalType":"uint256"}]},{"type":"error","name":"ERC20InvalidApprover","inputs":[{"name":"approver","type":"address","internalType":"address"}]},{"type":"error","name":"ERC20InvalidReceiver","inputs":[{"name":"receiver","type":"address","internalType":"address"}]},{"type":"error","name":"ERC20InvalidSender","inputs":[{"name":"sender","type":"address","internalType":"address"}]},{"type":"error","name":"ERC20InvalidSpender","inputs":[{"name":"spender","type":"address","internalType":"address"}]},{"type":"error","name":"ERC4626ExceededMaxDeposit","inputs":[{"name":"receiver","type":"address","internalType":"address"},{"name":"assets","type":"uint256","internalType":"uint256"},{"name":"max","type":"uint256","internalType":"uint256"}]},{"type":"error","name":"ERC4626ExceededMaxMint","inputs":[{"name":"receiver","type":"address","internalType":"address"},{"name":"shares","type":"uint256","internalType":"uint256"},{"name":"max","type":"uint256","internalType":"uint256"}]},{"type":"error","name":"ERC4626ExceededMaxRedeem","inputs":[{"name":"owner","type":"address","internalType":"address"},{"name":"shares","type":"uint256","internalType":"uint256"},{"name":"max","type":"uint256","internalType":"uint256"}]},{"type":"error","name":"ERC4626ExceededMaxWithdraw","inputs":[{"name":"owner","type":"address","internalType":"address"},{"name":"assets","type":"uint256","internalType":"uint256"},{"name":"max","type":"uint256","internalType":"uint256"}]},{"type":"error","name":"SafeERC20FailedOperation","inputs":[{"name":"token","type":"address","internalType":"address"}]}],"bytecode":{"object":"0x60c060405234801561000f575f5ffd5b50604051612603380380612603833981810160405281019061003191906102a0565b806040518060400160405280600b81526020017f5661756c742053686172650000000000000000000000000000000000000000008152506040518060400160405280600481526020017f764d544b0000000000000000000000000000000000000000000000000000000081525081600390816100ad9190610508565b5080600490816100bd9190610508565b5050505f5f6100d18361012d60201b60201c565b91509150816100e15760126100e3565b805b60ff1660a08160ff16815250508273ffffffffffffffffffffffffffffffffffffffff1660808173ffffffffffffffffffffffffffffffffffffffff1681525050505050506105d7565b5f5f5f61013e6101f960201b60201c565b90505f5f61019c8660405160240160405160208183030381529060405263313ce56760e01b6020820180517bffffffffffffffffffffffffffffffffffffffffffffffffffffffff838183161783525050505061020260201b60201c565b50915091506101b08361022360201b60201c565b8180156101cb575060206101c861022a60201b60201c565b10155b80156101dc575060ff8016815f1c11155b6101e7575f5f6101ed565b6001815f1c5b94509450505050915091565b5f604051905090565b5f5f5f60405f855160208701885afa92505f51915060205190509250925092565b8060405250565b5f3d905090565b5f5ffd5b5f73ffffffffffffffffffffffffffffffffffffffff82169050919050565b5f61025e82610235565b9050919050565b5f61026f82610254565b9050919050565b61027f81610265565b8114610289575f5ffd5b50565b5f8151905061029a81610276565b92915050565b5f602082840312156102b5576102b4610231565b5b5f6102c28482850161028c565b91505092915050565b5f81519050919050565b7f4e487b71000000000000000000000000000000000000000000000000000000005f52604160045260245ffd5b7f4e487b71000000000000000000000000000000000000000000000000000000005f52602260045260245ffd5b5f600282049050600182168061034657607f821691505b60208210810361035957610358610302565b5b50919050565b5f819050815f5260205f209050919050565b5f6020601f8301049050919050565b5f82821b905092915050565b5f600883026103bb7fffffffffffffffffffffffffffffffffffffffffffffffffffffffffffffffff82610380565b6103c58683610380565b95508019841693508086168417925050509392505050565b5f819050919050565b5f819050919050565b5f6104096104046103ff846103dd565b6103e6565b6103dd565b9050919050565b5f819050919050565b610422836103ef565b61043661042e82610410565b84845461038c565b825550505050565b5f5f905090565b61044d61043e565b610458818484610419565b505050565b5b8181101561047b576104705f82610445565b60018101905061045e565b5050565b601f8211156104c0576104918161035f565b61049a84610371565b810160208510156104a9578190505b6104bd6104b585610371565b83018261045d565b50505b505050565b5f82821c905092915050565b5f6104e05f19846008026104c5565b1980831691505092915050565b5f6104f883836104d1565b9150826002028217905092915050565b610511826102cb565b67ffffffffffffffff81111561052a576105296102d5565b5b610534825461032f565b61053f82828561047f565b5f60209050601f831160018114610570575f841561055e578287015190505b61056885826104ed565b8655506105cf565b601f19841661057e8661035f565b5f5b828110156105a557848901518255600182019150602085019450602081019050610580565b868310156105c257848901516105be601f8916826104d1565b8355505b6001600288020188555050505b505050505050565b60805160a05161200b6105f85f395f6107c701525f6107f8015261200b5ff3fe608060405234801561000f575f5ffd5b50600436106101a7575f3560e01c806387269729116100f7578063c63d75b611610095578063d905777e1161006f578063d905777e1461057d578063dd62ed3e146105ad578063ef8b30f7146105dd578063f14faf6f1461060d576101a7565b8063c63d75b6146104ed578063c6e6f5921461051d578063ce96cb771461054d576101a7565b8063a9059cbb116100d1578063a9059cbb1461042d578063b3d7f6b91461045d578063b460af941461048d578063ba087652146104bd576101a7565b806387269729146103c157806394bf804d146103df57806395d89b411461040f576101a7565b806323b872dd11610164578063402d267d1161013e578063402d267d146103015780634cdad506146103315780636e553f651461036157806370a0823114610391576101a7565b806323b872dd14610295578063313ce567146102c557806338d52e0f146102e3576101a7565b806301e1d114146101ab57806306fdde03146101c957806307a2d13a146101e7578063095ea7b3146102175780630a28a4771461024757806318160ddd14610277575b5f5ffd5b6101b3610629565b6040516101c091906118d6565b60405180910390f35b6101d16106ae565b6040516101de919061195f565b60405180910390f35b61020160048036038101906101fc91906119ad565b61073e565b60405161020e91906118d6565b60405180910390f35b610231600480360381019061022c9190611a32565b610750565b60405161023e9190611a8a565b60405180910390f35b610261600480360381019061025c91906119ad565b610772565b60405161026e91906118d6565b60405180910390f35b61027f610785565b60405161028c91906118d6565b60405180910390f35b6102af60048036038101906102aa9190611aa3565b61078e565b6040516102bc9190611a8a565b60405180910390f35b6102cd6107bc565b6040516102da9190611b0e565b60405180910390f35b6102eb6107f5565b6040516102f89190611b36565b60405180910390f35b61031b60048036038101906103169190611b4f565b61081c565b60405161032891906118d6565b60405180910390f35b61034b600480360381019061034691906119ad565b610845565b60405161035891906118d6565b60405180910390f35b61037b60048036038101906103769190611b7a565b610857565b60405161038891906118d6565b60405180910390f35b6103ab60048036038101906103a69190611b4f565b6108d7565b6040516103b891906118d6565b60405180910390f35b6103c961091c565b6040516103d691906118d6565b60405180910390f35b6103f960048036038101906103f49190611b7a565b610933565b60405161040691906118d6565b60405180910390f35b6104176109b3565b604051610424919061195f565b60405180910390f35b61044760048036038101906104429190611a32565b610a43565b6040516104549190611a8a565b60405180910390f35b610477600480360381019061047291906119ad565b610a65565b60405161048491906118d6565b60405180910390f35b6104a760048036038101906104a29190611bb8565b610a78565b6040516104b491906118d6565b60405180910390f35b6104d760048036038101906104d29190611bb8565b610afa565b6040516104e491906118d6565b60405180910390f35b61050760048036038101906105029190611b4f565b610b7c565b60405161051491906118d6565b60405180910390f35b610537600480360381019061053291906119ad565b610ba5565b60405161054491906118d6565b60405180910390f35b61056760048036038101906105629190611b4f565b610bb7565b60405161057491906118d6565b60405180910390f35b61059760048036038101906105929190611b4f565b610bd0565b6040516105a491906118d6565b60405180910390f35b6105c760048036038101906105c29190611c08565b610be1565b6040516105d491906118d6565b60405180910390f35b6105f760048036038101906105f291906119ad565b610c63565b60405161060491906118d6565b60405180910390f35b610627600480360381019061062291906119ad565b610c75565b005b5f6106326107f5565b73ffffffffffffffffffffffffffffffffffffffff166370a08231306040518263ffffffff1660e01b815260040161066a9190611b36565b602060405180830381865afa158015610685573d5f5f3e3d5ffd5b505050506040513d601f19601f820116820180604052508101906106a99190611c5a565b905090565b6060600380546106bd90611cb2565b80601f01602080910402602001604051908101604052809291908181526020018280546106e990611cb2565b80156107345780601f1061070b57610100808354040283529160200191610734565b820191905f5260205f20905b81548152906001019060200180831161071757829003601f168201915b5050505050905090565b5f610749825f610cd9565b9050919050565b5f5f61075a610d31565b9050610767818585610d38565b600191505092915050565b5f61077e826001610d4a565b9050919050565b5f600254905090565b5f5f610798610d31565b90506107a5858285610da2565b6107b0858585610e35565b60019150509392505050565b5f6107c5610f25565b7f00000000000000000000000000000000000000000000000000000000000000006107f09190611d0f565b905090565b5f7f0000000000000000000000000000000000000000000000000000000000000000905090565b5f7fffffffffffffffffffffffffffffffffffffffffffffffffffffffffffffffff9050919050565b5f610850825f610cd9565b9050919050565b5f5f6108628361081c565b9050808411156108ad578284826040517f79012fb20000000000000000000000000000000000000000000000000000000081526004016108a493929190611d43565b60405180910390fd5b5f6108b785610c63565b90506108cc6108c4610d31565b858784610f2c565b809250505092915050565b5f5f5f8373ffffffffffffffffffffffffffffffffffffffff1673ffffffffffffffffffffffffffffffffffffffff1681526020019081526020015f20549050919050565b5f61092e670de0b6b3a764000061073e565b905090565b5f5f61093e83610b7c565b905080841115610989578284826040517f284ff66700000000000000000000000000000000000000000000000000000000815260040161098093929190611d43565b60405180910390fd5b5f61099385610a65565b90506109a86109a0610d31565b858388610f2c565b809250505092915050565b6060600480546109c290611cb2565b80601f01602080910402602001604051908101604052809291908181526020018280546109ee90611cb2565b8015610a395780601f10610a1057610100808354040283529160200191610a39565b820191905f5260205f20905b815481529060010190602001808311610a1c57829003601f168201915b5050505050905090565b5f5f610a4d610d31565b9050610a5a818585610e35565b600191505092915050565b5f610a71826001610cd9565b9050919050565b5f5f610a8383610bb7565b905080851115610ace578285826040517ffe9cceec000000000000000000000000000000000000000000000000000000008152600401610ac593929190611d43565b60405180910390fd5b5f610ad886610772565b9050610aee610ae5610d31565b86868985610fad565b80925050509392505050565b5f5f610b0583610bd0565b905080851115610b50578285826040517fb94abeec000000000000000000000000000000000000000000000000000000008152600401610b4793929190611d43565b60405180910390fd5b5f610b5a86610845565b9050610b70610b67610d31565b8686848a610fad565b80925050509392505050565b5f7fffffffffffffffffffffffffffffffffffffffffffffffffffffffffffffffff9050919050565b5f610bb0825f610d4a565b9050919050565b5f610bc9610bc483610bd0565b610845565b9050919050565b5f610bda826108d7565b9050919050565b5f60015f8473ffffffffffffffffffffffffffffffffffffffff1673ffffffffffffffffffffffffffffffffffffffff1681526020019081526020015f205f8373ffffffffffffffffffffffffffffffffffffffff1673ffffffffffffffffffffffffffffffffffffffff1681526020019081526020015f2054905092915050565b5f610c6e825f610d4a565b9050919050565b610c88610c806107f5565b333084611085565b3373ffffffffffffffffffffffffffffffffffffffff167f2a01595cddf097c90216094025db714da3f4e5bd8877b56ba86a24ecead8e54382604051610cce91906118d6565b60405180910390a250565b5f610d296001610ce7610629565b610cf19190611d78565b610cf9610f25565b600a610d059190611eda565b610d0d610785565b610d179190611d78565b84866110da909392919063ffffffff16565b905092915050565b5f33905090565b610d458383836001611127565b505050565b5f610d9a610d56610f25565b600a610d629190611eda565b610d6a610785565b610d749190611d78565b6001610d7e610629565b610d889190611d78565b84866110da909392919063ffffffff16565b905092915050565b5f610dad8484610be1565b90507fffffffffffffffffffffffffffffffffffffffffffffffffffffffffffffffff811015610e2f5781811015610e20578281836040517ffb8f41b2000000000000000000000000000000000000000000000000000000008152600401610e1793929190611d43565b60405180910390fd5b610e2e84848484035f611127565b5b50505050565b5f73ffffffffffffffffffffffffffffffffffffffff168373ffffffffffffffffffffffffffffffffffffffff1603610ea5575f6040517f96c6fd1e000000000000000000000000000000000000000000000000000000008152600401610e9c9190611b36565b60405180910390fd5b5f73ffffffffffffffffffffffffffffffffffffffff168273ffffffffffffffffffffffffffffffffffffffff1603610f15575f6040517fec442f05000000000000000000000000000000000000000000000000000000008152600401610f0c9190611b36565b60405180910390fd5b610f208383836112f6565b505050565b5f5f905090565b610f36848361150f565b610f408382611526565b8273ffffffffffffffffffffffffffffffffffffffff168473ffffffffffffffffffffffffffffffffffffffff167fdcbc1c05240f31ff3ad067ef1ee35ce4997762752e3a095284754544f4c709d78484604051610f9f929190611f24565b60405180910390a350505050565b8273ffffffffffffffffffffffffffffffffffffffff168573ffffffffffffffffffffffffffffffffffffffff1614610fec57610feb838683610da2565b5b610ff683826115a5565b6110008483611624565b8273ffffffffffffffffffffffffffffffffffffffff168473ffffffffffffffffffffffffffffffffffffffff168673ffffffffffffffffffffffffffffffffffffffff167ffbde797d201c681b91056529119e0b02407c7bb96a4a2c75c01fc9667232c8db8585604051611076929190611f24565b60405180910390a45050505050565b61109384848484600161163a565b6110d457836040517f5274afe70000000000000000000000000000000000000000000000000000000081526004016110cb9190611b36565b60405180910390fd5b50505050565b5f6111086110e7836116ab565b801561110357505f84806110fe576110fd611f4b565b5b868809115b6116d8565b6111138686866116e3565b61111d9190611d78565b9050949350505050565b5f73ffffffffffffffffffffffffffffffffffffffff168473ffffffffffffffffffffffffffffffffffffffff1603611197575f6040517fe602df0500000000000000000000000000000000000000000000000000000000815260040161118e9190611b36565b60405180910390fd5b5f73ffffffffffffffffffffffffffffffffffffffff168373ffffffffffffffffffffffffffffffffffffffff1603611207575f6040517f94280d620000000000000000000000000000000000000000000000000000000081526004016111fe9190611b36565b60405180910390fd5b8160015f8673ffffffffffffffffffffffffffffffffffffffff1673ffffffffffffffffffffffffffffffffffffffff1681526020019081526020015f205f8573ffffffffffffffffffffffffffffffffffffffff1673ffffffffffffffffffffffffffffffffffffffff1681526020019081526020015f208190555080156112f0578273ffffffffffffffffffffffffffffffffffffffff168473ffffffffffffffffffffffffffffffffffffffff167f8c5be1e5ebec7d5bd14f71427d1e84f3dd0314c0f7b2291e5b200ac8c7c3b925846040516112e791906118d6565b60405180910390a35b50505050565b5f73ffffffffffffffffffffffffffffffffffffffff168373ffffffffffffffffffffffffffffffffffffffff1603611346578060025f82825461133a9190611d78565b92505081905550611414565b5f5f5f8573ffffffffffffffffffffffffffffffffffffffff1673ffffffffffffffffffffffffffffffffffffffff1681526020019081526020015f20549050818110156113cf578381836040517fe450d38c0000000000000000000000000000000000000000000000000000000081526004016113c693929190611d43565b60405180910390fd5b8181035f5f8673ffffffffffffffffffffffffffffffffffffffff1673ffffffffffffffffffffffffffffffffffffffff1681526020019081526020015f2081905550505b5f73ffffffffffffffffffffffffffffffffffffffff168273ffffffffffffffffffffffffffffffffffffffff160361145b578060025f82825403925050819055506114a5565b805f5f8473ffffffffffffffffffffffffffffffffffffffff1673ffffffffffffffffffffffffffffffffffffffff1681526020019081526020015f205f82825401925050819055505b8173ffffffffffffffffffffffffffffffffffffffff168373ffffffffffffffffffffffffffffffffffffffff167fddf252ad1be2c89b69c2b068fc378daa952ba7f163c4a11628f55a4df523b3ef8360405161150291906118d6565b60405180910390a3505050565b61152261151a6107f5565b833084611085565b5050565b5f73ffffffffffffffffffffffffffffffffffffffff168273ffffffffffffffffffffffffffffffffffffffff1603611596575f6040517fec442f0500000000000000000000000000000000000000000000000000000000815260040161158d9190611b36565b60405180910390fd5b6115a15f83836112f6565b5050565b5f73ffffffffffffffffffffffffffffffffffffffff168273ffffffffffffffffffffffffffffffffffffffff1603611615575f6040517f96c6fd1e00000000000000000000000000000000000000000000000000000000815260040161160c9190611b36565b60405180910390fd5b611620825f836112f6565b5050565b61163661162f6107f5565b83836117c2565b5050565b5f5f6323b872dd60e01b9050604051815f525f1960601c87166004525f1960601c86166024528460445260205f60645f5f8c5af1925060015f5114831661169857838315161561168c573d5f823e3d81fd5b5f883b113d1516831692505b806040525f606052505095945050505050565b5f600160028360038111156116c3576116c2611f78565b5b6116cd9190611fa5565b60ff16149050919050565b5f8115159050919050565b5f5f5f6116f08686611815565b915091505f82036117155783818161170b5761170a611f4b565b5b04925050506117bb565b8184116117345761173361172e5f861460126011611832565b61184b565b5b5f8486880990508181118303925080820391505f855f038616905080860495508083049250600181825f0304019050808402831792505f600287600302189050808702600203810290508087026002038102905080870260020381029050808702600203810290508087026002038102905080870260020381029050808402955050505050505b9392505050565b6117cf838383600161185c565b61181057826040517f5274afe70000000000000000000000000000000000000000000000000000000081526004016118079190611b36565b60405180910390fd5b505050565b5f5f5f198385098385029150818110828203039250509250929050565b5f61183c846116d8565b82841802821890509392505050565b634e487b715f52806020526024601cfd5b5f5f63a9059cbb60e01b9050604051815f525f1960601c86166004528460245260205f60445f5f8b5af1925060015f511483166118b05783831516156118a4573d5f823e3d81fd5b5f873b113d1516831692505b806040525050949350505050565b5f819050919050565b6118d0816118be565b82525050565b5f6020820190506118e95f8301846118c7565b92915050565b5f81519050919050565b5f82825260208201905092915050565b8281835e5f83830152505050565b5f601f19601f8301169050919050565b5f611931826118ef565b61193b81856118f9565b935061194b818560208601611909565b61195481611917565b840191505092915050565b5f6020820190508181035f8301526119778184611927565b905092915050565b5f5ffd5b61198c816118be565b8114611996575f5ffd5b50565b5f813590506119a781611983565b92915050565b5f602082840312156119c2576119c161197f565b5b5f6119cf84828501611999565b91505092915050565b5f73ffffffffffffffffffffffffffffffffffffffff82169050919050565b5f611a01826119d8565b9050919050565b611a11816119f7565b8114611a1b575f5ffd5b50565b5f81359050611a2c81611a08565b92915050565b5f5f60408385031215611a4857611a4761197f565b5b5f611a5585828601611a1e565b9250506020611a6685828601611999565b9150509250929050565b5f8115159050919050565b611a8481611a70565b82525050565b5f602082019050611a9d5f830184611a7b565b92915050565b5f5f5f60608486031215611aba57611ab961197f565b5b5f611ac786828701611a1e565b9350506020611ad886828701611a1e565b9250506040611ae986828701611999565b9150509250925092565b5f60ff82169050919050565b611b0881611af3565b82525050565b5f602082019050611b215f830184611aff565b92915050565b611b30816119f7565b82525050565b5f602082019050611b495f830184611b27565b92915050565b5f60208284031215611b6457611b6361197f565b5b5f611b7184828501611a1e565b91505092915050565b5f5f60408385031215611b9057611b8f61197f565b5b5f611b9d85828601611999565b9250506020611bae85828601611a1e565b9150509250929050565b5f5f5f60608486031215611bcf57611bce61197f565b5b5f611bdc86828701611999565b9350506020611bed86828701611a1e565b9250506040611bfe86828701611a1e565b9150509250925092565b5f5f60408385031215611c1e57611c1d61197f565b5b5f611c2b85828601611a1e565b9250506020611c3c85828601611a1e565b9150509250929050565b5f81519050611c5481611983565b92915050565b5f60208284031215611c6f57611c6e61197f565b5b5f611c7c84828501611c46565b91505092915050565b7f4e487b71000000000000000000000000000000000000000000000000000000005f52602260045260245ffd5b5f6002820490506001821680611cc957607f821691505b602082108103611cdc57611cdb611c85565b5b50919050565b7f4e487b71000000000000000000000000000000000000000000000000000000005f52601160045260245ffd5b5f611d1982611af3565b9150611d2483611af3565b9250828201905060ff811115611d3d57611d3c611ce2565b5b92915050565b5f606082019050611d565f830186611b27565b611d6360208301856118c7565b611d7060408301846118c7565b949350505050565b5f611d82826118be565b9150611d8d836118be565b9250828201905080821115611da557611da4611ce2565b5b92915050565b5f8160011c9050919050565b5f5f8291508390505b6001851115611e0057808604811115611ddc57611ddb611ce2565b5b6001851615611deb5780820291505b8081029050611df985611dab565b9450611dc0565b94509492505050565b5f82611e185760019050611ed3565b81611e25575f9050611ed3565b8160018114611e3b5760028114611e4557611e74565b6001915050611ed3565b60ff841115611e5757611e56611ce2565b5b8360020a915084821115611e6e57611e6d611ce2565b5b50611ed3565b5060208310610133831016604e8410600b8410161715611ea95782820a905083811115611ea457611ea3611ce2565b5b611ed3565b611eb68484846001611db7565b92509050818404811115611ecd57611ecc611ce2565b5b81810290505b9392505050565b5f611ee4826118be565b9150611eef83611af3565b9250611f1c7fffffffffffffffffffffffffffffffffffffffffffffffffffffffffffffffff8484611e09565b905092915050565b5f604082019050611f375f8301856118c7565b611f4460208301846118c7565b9392505050565b7f4e487b71000000000000000000000000000000000000000000000000000000005f52601260045260245ffd5b7f4e487b71000000000000000000000000000000000000000000000000000000005f52602160045260245ffd5b5f611faf82611af3565b9150611fba83611af3565b925082611fca57611fc9611f4b565b5b82820690509291505056fea264697066735822122071228ce70e5f2bdd1503c1d57217e302dac532cedc768f802c36ac76bb6bd7e364736f6c634300081c0033","linkReferences":{}},"methodIdentifiers":{"allowance(address,address)":"dd62ed3e","approve(address,uint256)":"095ea7b3","asset()":"38d52e0f","balanceOf(address)":"70a08231","convertToAssets(uint256)":"07a2d13a","convertToShares(uint256)":"c6e6f592","decimals()":"313ce567","deposit(uint256,address)":"6e553f65","donate(uint256)":"f14faf6f","maxDeposit(address)":"402d267d","maxMint(address)":"c63d75b6","maxRedeem(address)":"d905777e","maxWithdraw(address)":"ce96cb77","mint(uint256,address)":"94bf804d","name()":"06fdde03","previewDeposit(uint256)":"ef8b30f7","previewMint(uint256)":"b3d7f6b9","previewRedeem(uint256)":"4cdad506","previewWithdraw(uint256)":"0a28a477","redeem(uint256,address,address)":"ba087652","sharePrice()":"87269729","symbol()":"95d89b41","totalAssets()":"01e1d114","totalSupply()":"18160ddd","transfer(address,uint256)":"a9059cbb","transferFrom(address,address,uint256)":"23b872dd","withdraw(uint256,address,address)":"b460af94"},"id":19}