{"abi":[{"type":"function","name":"deposit","inputs":[],"outputs":[],"stateMutability":"payable"},{"type":"function","name":"depositFor","inputs":[{"name":"target","type":"address","internalType":"address"}],"outputs":[],"stateMutability":"payable"},{"type":"function","name":"deposits","inputs":[{"name":"","type":"address","internalType":"address"}],"outputs":[{"name":"","type":"uint256","internalType":"uint256"}],"stateMutability":"view"},{"type":"function","name":"getUserOpHash","inputs":[{"name":"op","type":"tuple","internalType":"struct UserOperation","components":[{"name":"sender","type":"address","internalType":"address"},{"name":"nonce","type":"uint256","internalType":"uint256"},{"name":"initCode","type":"bytes","internalType":"bytes"},{"name":"callData","type":"bytes","internalType":"bytes"},{"name":"callGasLimit","type":"uint256","internalType":"uint256"},{"name":"verificationGasLimit","type":"uint256","internalType":"uint256"},{"name":"preVerificationGas","type":"uint256","internalType":"uint256"},{"name":"maxFeePerGas","type":"uint256","internalType":"uint256"},{"name":"maxPriorityFeePerGas","type":"uint256","internalType":"uint256"},{"name":"paymasterAndData","type":"bytes","internalType":"bytes"},{"name":"signature","type":"bytes","internalType":"bytes"}]}],"outputs":[{"name":"","type":"bytes32","internalType":"bytes32"}],"stateMutability":"pure"},{"type":"function","name":"handleOp","inputs":[{"name":"op","type":"tuple","internalType":"struct UserOperation","components":[{"name":"sender","type":"address","internalType":"address"},{"name":"nonce","type":"uint256","internalType":"uint256"},{"name":"initCode","type":"bytes","internalType":"bytes"},{"name":"callData","type":"bytes","internalType":"bytes"},{"name":"callGasLimit","type":"uint256","internalType":"uint256"},{"name":"verificationGasLimit","type":"uint256","internalType":"uint256"},{"name":"preVerificationGas","type":"uint256","internalType":"uint256"},{"name":"maxFeePerGas","type":"uint256","internalType":"uint256"},{"name":"maxPriorityFeePerGas","type":"uint256","internalType":"uint256"},{"name":"paymasterAndData","type":"bytes","internalType":"bytes"},{"name":"signature","type":"bytes","internalType":"bytes"}]}],"outputs":[],"stateMutability":"nonpayable"},{"type":"function","name":"nonces","inputs":[{"name":"","type":"address","internalType":"address"}],"outputs":[{"name":"","type":"uint256","internalType":"uint256"}],"stateMutability":"view"},{"type":"function","name":"withdraw","inputs":[{"name":"to","type":"address","internalType":"address payable"},{"name":"amount","type":"uint256","internalType":"uint256"}],"outputs":[],"stateMutability":"nonpayable"},{"type":"event","name":"Deposit","inputs":[{"name":"account","type":"address","indexed":true,"internalType":"address"},{"name":"amount","type":"uint256","indexed":false,"internalType":"uint256"}],"anonymous":false},{"type":"event","name":"UserOperationExecuted","inputs":[{"name":"userOpHash","type":"bytes32","indexed":true,"internalType":"bytes32"},{"name":"sender","type":"address","indexed":true,"internalType":"address"},{"name":"paymaster","type":"address","indexed":true,"internalType":"address"},{"name":"gasFee","type":"uint256","indexed":false,"internalType":"uint256"}],"anonymous":false},{"type":"event","name":"Withdrawn","inputs":[{"name":"account","type":"address","indexed":true,"internalType":"address"},{"name":"amount","type":"uint256","indexed":false,"internalType":"uint256"}],"anonymous":false}],"bytecode":{"object":"0x6080604052348015600e575f5ffd5b506116318061001c5f395ff3fe60806040526004361061006f575f3560e01c8063aa67c9191161004d578063aa67c91914610113578063d0e30db01461012f578063f3fef3a314610139578063fc7e286d146101615761006f565b8063099dd37f146100735780637ecebe001461009b578063a6193531146100d7575b5f5ffd5b34801561007e575f5ffd5b5061009960048036038101906100949190610b2c565b61019d565b005b3480156100a6575f5ffd5b506100c160048036038101906100bc9190610bcd565b61073c565b6040516100ce9190610c10565b60405180910390f35b3480156100e2575f5ffd5b506100fd60048036038101906100f89190610b2c565b610751565b60405161010a9190610c41565b60405180910390f35b61012d60048036038101906101289190610bcd565b610762565b005b61013761076e565b005b348015610144575f5ffd5b5061015f600480360381019061015a9190610cbf565b610779565b005b34801561016c575f5ffd5b5061018760048036038101906101829190610bcd565b6108e0565b6040516101949190610c10565b60405180910390f35b60015f825f0160208101906101b29190610bcd565b73ffffffffffffffffffffffffffffffffffffffff1673ffffffffffffffffffffffffffffffffffffffff1681526020019081526020015f2054816020013514610231576040517f08c379a000000000000000000000000000000000000000000000000000000000815260040161022890610d57565b60405180910390fd5b60015f825f0160208101906102469190610bcd565b73ffffffffffffffffffffffffffffffffffffffff1673ffffffffffffffffffffffffffffffffffffffff1681526020019081526020015f205f81548092919061028f90610da2565b91905055505f61029e826108f4565b90505f6102aa836109f1565b90505f6102b5610a44565b9050835f0160208101906102c99190610bcd565b73ffffffffffffffffffffffffffffffffffffffff1663fff35b7285856040518363ffffffff1660e01b815260040161030392919061105c565b5f604051808303815f87803b15801561031a575f5ffd5b505af115801561032c573d5f5f3e3d5ffd5b505050505f73ffffffffffffffffffffffffffffffffffffffff168273ffffffffffffffffffffffffffffffffffffffff16146103cc578173ffffffffffffffffffffffffffffffffffffffff1663d847080c85856040518363ffffffff1660e01b815260040161039e92919061105c565b5f604051808303815f87803b1580156103b5575f5ffd5b505af11580156103c7573d5f5f3e3d5ffd5b505050505b5f5f855f0160208101906103e09190610bcd565b73ffffffffffffffffffffffffffffffffffffffff16866080013587806060019061040b9190611096565b604051610419929190611126565b5f604051808303815f8787f1925050503d805f8114610453576040519150601f19603f3d011682016040523d82523d5f602084013e610458565b606091505b5091509150818160405160200161046f91906111da565b604051602081830303815290604052906104bf576040517f08c379a00000000000000000000000000000000000000000000000000000000081526004016104b6919061123d565b60405180910390fd5b505f73ffffffffffffffffffffffffffffffffffffffff168473ffffffffffffffffffffffffffffffffffffffff16036105eb57825f5f885f0160208101906105089190610bcd565b73ffffffffffffffffffffffffffffffffffffffff1673ffffffffffffffffffffffffffffffffffffffff1681526020019081526020015f20541015610583576040517f08c379a000000000000000000000000000000000000000000000000000000000815260040161057a906112a7565b60405180910390fd5b825f5f885f0160208101906105989190610bcd565b73ffffffffffffffffffffffffffffffffffffffff1673ffffffffffffffffffffffffffffffffffffffff1681526020019081526020015f205f8282546105df91906112c5565b925050819055506106bd565b825f5f8673ffffffffffffffffffffffffffffffffffffffff1673ffffffffffffffffffffffffffffffffffffffff1681526020019081526020015f2054101561066a576040517f08c379a000000000000000000000000000000000000000000000000000000000815260040161066190611368565b60405180910390fd5b825f5f8673ffffffffffffffffffffffffffffffffffffffff1673ffffffffffffffffffffffffffffffffffffffff1681526020019081526020015f205f8282546106b591906112c5565b925050819055505b8373ffffffffffffffffffffffffffffffffffffffff16865f0160208101906106e69190610bcd565b73ffffffffffffffffffffffffffffffffffffffff16867fa60d54f131b63ac0519246dc50b439c784ea3c1488897ffcdc61b76a230ddced8660405161072c9190610c10565b60405180910390a4505050505050565b6001602052805f5260405f205f915090505481565b5f61075b826108f4565b9050919050565b61076b81610a5e565b50565b61077733610a5e565b565b805f5f3373ffffffffffffffffffffffffffffffffffffffff1673ffffffffffffffffffffffffffffffffffffffff1681526020019081526020015f205410156107f8576040517f08c379a00000000000000000000000000000000000000000000000000000000081526004016107ef906113d0565b60405180910390fd5b805f5f3373ffffffffffffffffffffffffffffffffffffffff1673ffffffffffffffffffffffffffffffffffffffff1681526020019081526020015f205f82825461084391906112c5565b925050819055508173ffffffffffffffffffffffffffffffffffffffff166108fc8290811502906040515f60405180830381858888f1935050505015801561088d573d5f5f3e3d5ffd5b503373ffffffffffffffffffffffffffffffffffffffff167f7084f5476618d8e60b11ef0d7d3f06914655adb8793e28ff7f018d4c76d505d5826040516108d49190610c10565b60405180910390a25050565b5f602052805f5260405f205f915090505481565b5f7ff81bea993d11db0909d00c3af86d2329d5a9069b5297725281150d0eca354139825f0160208101906109289190610bcd565b836020013584806040019061093d9190611096565b60405161094b929190611126565b60405180910390208580606001906109639190611096565b604051610971929190611126565b604051809103902086608001358760a001358860c001358960e001358a61010001358b8061012001906109a49190611096565b6040516109b2929190611126565b60405180910390206040516020016109d49b9a999897969594939291906113fd565b604051602081830303815290604052805190602001209050919050565b5f601482806101200190610a059190611096565b905010610a3f5781806101200190610a1d9190611096565b5f90601492610a2e939291906114ae565b90610a399190611529565b60601c90505b919050565b5f6402540be400620186a0610a599190611587565b905090565b345f5f8373ffffffffffffffffffffffffffffffffffffffff1673ffffffffffffffffffffffffffffffffffffffff1681526020019081526020015f205f828254610aa991906115c8565b925050819055508073ffffffffffffffffffffffffffffffffffffffff167fe1fffcc4923d04b559f4d29a8bfc6cda04eb5b0d3c460751c2402c5c5cc9109c34604051610af69190610c10565b60405180910390a250565b5f5ffd5b5f5ffd5b5f5ffd5b5f6101608284031215610b2357610b22610b09565b5b81905092915050565b5f60208284031215610b4157610b40610b01565b5b5f82013567ffffffffffffffff811115610b5e57610b5d610b05565b5b610b6a84828501610b0d565b91505092915050565b5f73ffffffffffffffffffffffffffffffffffffffff82169050919050565b5f610b9c82610b73565b9050919050565b610bac81610b92565b8114610bb6575f5ffd5b50565b5f81359050610bc781610ba3565b92915050565b5f60208284031215610be257610be1610b01565b5b5f610bef84828501610bb9565b91505092915050565b5f819050919050565b610c0a81610bf8565b82525050565b5f602082019050610c235f830184610c01565b92915050565b5f819050919050565b610c3b81610c29565b82525050565b5f602082019050610c545f830184610c32565b92915050565b5f610c6482610b73565b9050919050565b610c7481610c5a565b8114610c7e575f5ffd5b50565b5f81359050610c8f81610c6b565b92915050565b610c9e81610bf8565b8114610ca8575f5ffd5b50565b5f81359050610cb981610c95565b92915050565b5f5f60408385031215610cd557610cd4610b01565b5b5f610ce285828601610c81565b9250506020610cf385828601610cab565b9150509250929050565b5f82825260208201905092915050565b7f45503a20696e76616c6964206e6f6e63650000000000000000000000000000005f82015250565b5f610d41601183610cfd565b9150610d4c82610d0d565b602082019050919050565b5f6020820190508181035f830152610d6e81610d35565b9050919050565b7f4e487b71000000000000000000000000000000000000000000000000000000005f52601160045260245ffd5b5f610dac82610bf8565b91507fffffffffffffffffffffffffffffffffffffffffffffffffffffffffffffffff8203610dde57610ddd610d75565b5b600182019050919050565b5f610df76020840184610bb9565b905092915050565b610e0881610b92565b82525050565b5f610e1c6020840184610cab565b905092915050565b610e2d81610bf8565b82525050565b5f5ffd5b5f5ffd5b5f5ffd5b5f5f83356001602003843603038112610e5b57610e5a610e3b565b5b83810192508235915060208301925067ffffffffffffffff821115610e8357610e82610e33565b5b600182023603831315610e9957610e98610e37565b5b509250929050565b5f82825260208201905092915050565b828183375f83830152505050565b5f601f19601f8301169050919050565b5f610eda8385610ea1565b9350610ee7838584610eb1565b610ef083610ebf565b840190509392505050565b5f6101608301610f0d5f840184610de9565b610f195f860182610dff565b50610f276020840184610e0e565b610f346020860182610e24565b50610f426040840184610e3f565b8583036040870152610f55838284610ecf565b92505050610f666060840184610e3f565b8583036060870152610f79838284610ecf565b92505050610f8a6080840184610e0e565b610f976080860182610e24565b50610fa560a0840184610e0e565b610fb260a0860182610e24565b50610fc060c0840184610e0e565b610fcd60c0860182610e24565b50610fdb60e0840184610e0e565b610fe860e0860182610e24565b50610ff7610100840184610e0e565b611005610100860182610e24565b50611014610120840184610e3f565b858303610120870152611028838284610ecf565b9250505061103a610140840184610e3f565b85830361014087015261104e838284610ecf565b925050508091505092915050565b5f6040820190508181035f8301526110748185610efb565b90506110836020830184610c32565b9392505050565b5f5ffd5b5f5ffd5b5f5ffd5b5f5f833560016020038436030381126110b2576110b161108a565b5b80840192508235915067ffffffffffffffff8211156110d4576110d361108e565b5b6020830192506001820236038313156110f0576110ef611092565b5b509250929050565b5f81905092915050565b5f61110d83856110f8565b935061111a838584610eb1565b82840190509392505050565b5f611132828486611102565b91508190509392505050565b5f81905092915050565b7f45503a20657865637574696f6e206661696c65643a20000000000000000000005f82015250565b5f61117c60168361113e565b915061118782611148565b601682019050919050565b5f81519050919050565b8281835e5f83830152505050565b5f6111b482611192565b6111be81856110f8565b93506111ce81856020860161119c565b80840191505092915050565b5f6111e482611170565b91506111f082846111aa565b915081905092915050565b5f81519050919050565b5f61120f826111fb565b6112198185610cfd565b935061122981856020860161119c565b61123281610ebf565b840191505092915050565b5f6020820190508181035f8301526112558184611205565b905092915050565b7f45503a20696e73756666696369656e74206163636f756e74206465706f7369745f82015250565b5f611291602083610cfd565b915061129c8261125d565b602082019050919050565b5f6020820190508181035f8301526112be81611285565b9050919050565b5f6112cf82610bf8565b91506112da83610bf8565b92508282039050818111156112f2576112f1610d75565b5b92915050565b7f45503a20696e73756666696369656e74207061796d6173746572206465706f735f8201527f6974000000000000000000000000000000000000000000000000000000000000602082015250565b5f611352602283610cfd565b915061135d826112f8565b604082019050919050565b5f6020820190508181035f83015261137f81611346565b9050919050565b7f45503a20696e73756666696369656e74206465706f73697400000000000000005f82015250565b5f6113ba601883610cfd565b91506113c582611386565b602082019050919050565b5f6020820190508181035f8301526113e7816113ae565b9050919050565b6113f781610b92565b82525050565b5f610160820190506114115f83018e610c32565b61141e602083018d6113ee565b61142b604083018c610c01565b611438606083018b610c32565b611445608083018a610c32565b61145260a0830189610c01565b61145f60c0830188610c01565b61146c60e0830187610c01565b61147a610100830186610c01565b611488610120830185610c01565b611496610140830184610c32565b9c9b505050505050505050505050565b5f5ffd5b5f5ffd5b5f5f858511156114c1576114c06114a6565b5b838611156114d2576114d16114aa565b5b6001850283019150848603905094509492505050565b5f82905092915050565b5f7fffffffffffffffffffffffffffffffffffffffff00000000000000000000000082169050919050565b5f82821b905092915050565b5f61153483836114e8565b8261153f81356114f2565b9250601482101561157f5761157a7fffffffffffffffffffffffffffffffffffffffff0000000000000000000000008360140360080261151d565b831692505b505092915050565b5f61159182610bf8565b915061159c83610bf8565b92508282026115aa81610bf8565b915082820484148315176115c1576115c0610d75565b5b5092915050565b5f6115d282610bf8565b91506115dd83610bf8565b92508282019050808211156115f5576115f4610d75565b5b9291505056fea2646970667358221220e167fbc39516244051ef7e6d6531ad2e375c9b02130b531e018b7fb72c51b83d64736f6c634300081c0033","linkReferences":{}},"methodIdentifiers":{"deposit()":"d0e30db0","depositFor(address)":"aa67c919","deposits(address)":"fc7e286d","getUserOpHash((address,uint256,bytes,bytes,uint256,uint256,uint256,uint256,uint256,bytes,bytes))":"a6193531","handleOp((address,uint256,bytes,bytes,uint256,uint256,uint256,uint256,uint256,bytes,bytes))":"099dd37f","nonces(address)":"7ecebe00","withdraw(address,uint256)":"f3fef3a3"},"id":13}