{"abi":[{"type":"constructor","inputs":[{"name":"_owner","type":"address","internalType":"address"}],"stateMutability":"nonpayable"},{"type":"function","name":"isValidSignature","inputs":[{"name":"hash","type":"bytes32","internalType":"bytes32"},{"name":"signature","type":"bytes","internalType":"bytes"}],"outputs":[{"name":"magicValue","type":"bytes4","internalType":"bytes4"}],"stateMutability":"view"},{"type":"function","name":"owner","inputs":[],"outputs":[{"name":"","type":"address","internalType":"address"}],"stateMutability":"view"},{"type":"event","name":"OwnerUpdated","inputs":[{"name":"oldOwner","type":"address","indexed":true,"internalType":"address"},{"name":"newOwner","type":"address","indexed":true,"internalType":"address"}],"anonymous":false}],"bytecode":{"object":"0x608060405234801561000f575f5ffd5b506040516108833803806108838339818101604052810190610031919061019c565b5f73ffffffffffffffffffffffffffffffffffffffff168173ffffffffffffffffffffffffffffffffffffffff160361009f576040517f08c379a000000000000000000000000000000000000000000000000000000000815260040161009690610221565b60405180910390fd5b805f5f6101000a81548173ffffffffffffffffffffffffffffffffffffffff021916908373ffffffffffffffffffffffffffffffffffffffff1602179055508073ffffffffffffffffffffffffffffffffffffffff165f73ffffffffffffffffffffffffffffffffffffffff167f8292fce18fa69edf4db7b94ea2e58241df0ae57f97e0a6c9b29067028bf92d7660405160405180910390a35061023f565b5f5ffd5b5f73ffffffffffffffffffffffffffffffffffffffff82169050919050565b5f61016b82610142565b9050919050565b61017b81610161565b8114610185575f5ffd5b50565b5f8151905061019681610172565b92915050565b5f602082840312156101b1576101b061013e565b5b5f6101be84828501610188565b91505092915050565b5f82825260208201905092915050565b7f4f776e65722063616e6e6f74206265207a65726f2061646472657373000000005f82015250565b5f61020b601c836101c7565b9150610216826101d7565b602082019050919050565b5f6020820190508181035f830152610238816101ff565b9050919050565b6106378061024c5f395ff3fe608060405234801561000f575f5ffd5b5060043610610034575f3560e01c80631626ba7e146100385780638da5cb5b14610068575b5f5ffd5b610052600480360381019061004d9190610325565b610086565b60405161005f91906103bc565b60405180910390f35b61007061010b565b60405161007d9190610414565b60405180910390f35b5f5f61009385858561012f565b90505f5f9054906101000a900473ffffffffffffffffffffffffffffffffffffffff1673ffffffffffffffffffffffffffffffffffffffff168173ffffffffffffffffffffffffffffffffffffffff16036100f857631626ba7e60e01b915050610104565b63ffffffff60e01b9150505b9392505050565b5f5f9054906101000a900473ffffffffffffffffffffffffffffffffffffffff1681565b5f60418383905014610176576040517f08c379a000000000000000000000000000000000000000000000000000000000815260040161016d906104ad565b60405180910390fd5b5f5f5f610183868661024f565b9250925092506001878484846040515f81526020016040526040516101ab94939291906104f5565b6020604051602081039080840390855afa1580156101cb573d5f5f3e3d5ffd5b5050506020604051035193505f73ffffffffffffffffffffffffffffffffffffffff168473ffffffffffffffffffffffffffffffffffffffff1603610245576040517f08c379a000000000000000000000000000000000000000000000000000000000815260040161023c90610582565b60405180910390fd5b5050509392505050565b5f5f5f843591506020850135905060408501355f1a9250601b8360ff16101561028257601b8361027f91906105cd565b92505b9250925092565b5f5ffd5b5f5ffd5b5f819050919050565b6102a381610291565b81146102ad575f5ffd5b50565b5f813590506102be8161029a565b92915050565b5f5ffd5b5f5ffd5b5f5ffd5b5f5f83601f8401126102e5576102e46102c4565b5b8235905067ffffffffffffffff811115610302576103016102c8565b5b60208301915083600182028301111561031e5761031d6102cc565b5b9250929050565b5f5f5f6040848603121561033c5761033b610289565b5b5f610349868287016102b0565b935050602084013567ffffffffffffffff81111561036a5761036961028d565b5b610376868287016102d0565b92509250509250925092565b5f7fffffffff0000000000000000000000000000000000000000000000000000000082169050919050565b6103b681610382565b82525050565b5f6020820190506103cf5f8301846103ad565b92915050565b5f73ffffffffffffffffffffffffffffffffffffffff82169050919050565b5f6103fe826103d5565b9050919050565b61040e816103f4565b82525050565b5f6020820190506104275f830184610405565b92915050565b5f82825260208201905092915050565b7f4552433132373157616c6c65743a20696e76616c6964207369676e61747572655f8201527f206c656e67746800000000000000000000000000000000000000000000000000602082015250565b5f61049760278361042d565b91506104a28261043d565b604082019050919050565b5f6020820190508181035f8301526104c48161048b565b9050919050565b6104d481610291565b82525050565b5f60ff82169050919050565b6104ef816104da565b82525050565b5f6080820190506105085f8301876104cb565b61051560208301866104e6565b61052260408301856104cb565b61052f60608301846104cb565b95945050505050565b7f4552433132373157616c6c65743a20696e76616c6964207369676e61747572655f82015250565b5f61056c60208361042d565b915061057782610538565b602082019050919050565b5f6020820190508181035f83015261059981610560565b9050919050565b7f4e487b71000000000000000000000000000000000000000000000000000000005f52601160045260245ffd5b5f6105d7826104da565b91506105e2836104da565b9250828201905060ff8111156105fb576105fa6105a0565b5b9291505056fea26469706673582212203edc6ca85d82b7b9cfb929f2829d602de24c0c3db4736798cabdfaffba4b64ce64736f6c634300081c0033","linkReferences":{}},"methodIdentifiers":{"isValidSignature(bytes32,bytes)":"1626ba7e","owner()":"8da5cb5b"},"id":2}