{"abi":[{"type":"constructor","inputs":[{"name":"identityRegistry_","type":"address","internalType":"address"}],"stateMutability":"nonpayable"},{"type":"function","name":"getClients","inputs":[{"name":"agentId","type":"uint256","internalType":"uint256"}],"outputs":[{"name":"","type":"address[]","internalType":"address[]"}],"stateMutability":"view"},{"type":"function","name":"getLastIndex","inputs":[{"name":"agentId","type":"uint256","internalType":"uint256"},{"name":"client","type":"address","internalType":"address"}],"outputs":[{"name":"","type":"uint64","internalType":"uint64"}],"stateMutability":"view"},{"type":"function","name":"getSummary","inputs":[{"name":"agentId","type":"uint256","internalType":"uint256"}],"outputs":[{"name":"count","type":"uint64","internalType":"uint64"},{"name":"avgValue","type":"int128","internalType":"int128"},{"name":"avgDecimals","type":"uint8","internalType":"uint8"}],"stateMutability":"view"},{"type":"function","name":"getSummaryWithClients","inputs":[{"name":"agentId","type":"uint256","internalType":"uint256"},{"name":"trustedClients","type":"address[]","internalType":"address[]"}],"outputs":[{"name":"count","type":"uint64","internalType":"uint64"},{"name":"avgValue","type":"int128","internalType":"int128"}],"stateMutability":"view"},{"type":"function","name":"giveFeedback","inputs":[{"name":"agentId","type":"uint256","internalType":"uint256"},{"name":"value","type":"int128","internalType":"int128"},{"name":"valueDecimals","type":"uint8","internalType":"uint8"},{"name":"tag1","type":"string","internalType":"string"},{"name":"tag2","type":"string","internalType":"string"}],"outputs":[],"stateMutability":"nonpayable"},{"type":"function","name":"identityRegistry","inputs":[],"outputs":[{"name":"","type":"address","internalType":"contract IIdentityRegistry"}],"stateMutability":"view"},{"type":"function","name":"readFeedback","inputs":[{"name":"agentId","type":"uint256","internalType":"uint256"},{"name":"client","type":"address","internalType":"address"},{"name":"feedbackIndex","type":"uint64","internalType":"uint64"}],"outputs":[{"name":"value","type":"int128","internalType":"int128"},{"name":"valueDecimals","type":"uint8","internalType":"uint8"},{"name":"tag1","type":"string","internalType":"string"},{"name":"tag2","type":"string","internalType":"string"},{"name":"isRevoked","type":"bool","internalType":"bool"}],"stateMutability":"view"},{"type":"function","name":"revokeFeedback","inputs":[{"name":"agentId","type":"uint256","internalType":"uint256"},{"name":"feedbackIndex","type":"uint64","internalType":"uint64"}],"outputs":[],"stateMutability":"nonpayable"},{"type":"event","name":"FeedbackRevoked","inputs":[{"name":"agentId","type":"uint256","indexed":true,"internalType":"uint256"},{"name":"clientAddress","type":"address","indexed":true,"internalType":"address"},{"name":"feedbackIndex","type":"uint64","indexed":true,"internalType":"uint64"}],"anonymous":false},{"type":"event","name":"NewFeedback","inputs":[{"name":"agentId","type":"uint256","indexed":true,"internalType":"uint256"},{"name":"clientAddress","type":"address","indexed":true,"internalType":"address"},{"name":"feedbackIndex","type":"uint64","indexed":false,"internalType":"uint64"},{"name":"value","type":"int128","indexed":false,"internalType":"int128"},{"name":"valueDecimals","type":"uint8","indexed":false,"internalType":"uint8"},{"name":"tag1","type":"string","indexed":false,"internalType":"string"},{"name":"tag2","type":"string","indexed":false,"internalType":"string"}],"anonymous":false}],"bytecode":{"object":"0x608060405234801561000f575f5ffd5b50604051612144380380612144833981810160405281019061003191906100d4565b805f5f6101000a81548173ffffffffffffffffffffffffffffffffffffffff021916908373ffffffffffffffffffffffffffffffffffffffff160217905550506100ff565b5f5ffd5b5f73ffffffffffffffffffffffffffffffffffffffff82169050919050565b5f6100a38261007a565b9050919050565b6100b381610099565b81146100bd575f5ffd5b50565b5f815190506100ce816100aa565b92915050565b5f602082840312156100e9576100e8610076565b5b5f6100f6848285016100c0565b91505092915050565b6120388061010c5f395ff3fe608060405234801561000f575f5ffd5b5060043610610086575f3560e01c8063a12ddbc011610059578063a12ddbc014610128578063aee1446014610144578063ddc5634714610176578063f2d81759146101a757610086565b8063134e18f41461008a578063232b0810146100a857806342dd519c146100dc5780634ab3ca991461010c575b5f5ffd5b6100926101d7565b60405161009f919061113e565b60405180910390f35b6100c260048036038101906100bd919061120a565b6101fb565b6040516100d395949392919061131a565b60405180910390f35b6100f660048036038101906100f19190611379565b6103da565b604051610103919061145b565b60405180910390f35b6101266004803603810190610121919061147b565b610476565b005b610142600480360381019061013d919061156e565b61068b565b005b61015e60048036038101906101599190611379565b610c84565b60405161016d93929190611634565b60405180910390f35b610190600480360381019061018b91906116be565b610ecb565b60405161019e92919061171b565b60405180910390f35b6101c160048036038101906101bc9190611742565b611059565b6040516101ce9190611780565b60405180910390f35b5f5f9054906101000a900473ffffffffffffffffffffffffffffffffffffffff1681565b5f5f6060805f5f60015f8a81526020019081526020015f205f8973ffffffffffffffffffffffffffffffffffffffff1673ffffffffffffffffffffffffffffffffffffffff1681526020019081526020015f206001015f8867ffffffffffffffff1667ffffffffffffffff1681526020019081526020015f209050805f015f9054906101000a9004600f0b815f0160109054906101000a900460ff168260010183600201846003015f9054906101000a900460ff168280546102bc906117c6565b80601f01602080910402602001604051908101604052809291908181526020018280546102e8906117c6565b80156103335780601f1061030a57610100808354040283529160200191610333565b820191905f5260205f20905b81548152906001019060200180831161031657829003601f168201915b50505050509250818054610346906117c6565b80601f0160208091040260200160405190810160405280929190818152602001828054610372906117c6565b80156103bd5780601f10610394576101008083540402835291602001916103bd565b820191905f5260205f20905b8154815290600101906020018083116103a057829003601f168201915b505050505091509550955095509550955050939792965093509350565b606060025f8381526020019081526020015f2080548060200260200160405190810160405280929190818152602001828054801561046a57602002820191905f5260205f20905b815f9054906101000a900473ffffffffffffffffffffffffffffffffffffffff1673ffffffffffffffffffffffffffffffffffffffff1681526020019060010190808311610421575b50505050509050919050565b5f8167ffffffffffffffff16116104c2576040517f08c379a00000000000000000000000000000000000000000000000000000000081526004016104b990611840565b60405180910390fd5b5f60015f8481526020019081526020015f205f3373ffffffffffffffffffffffffffffffffffffffff1673ffffffffffffffffffffffffffffffffffffffff1681526020019081526020015f209050805f015f9054906101000a900467ffffffffffffffff1667ffffffffffffffff168267ffffffffffffffff16111561057e576040517f08c379a0000000000000000000000000000000000000000000000000000000008152600401610575906118a8565b60405180910390fd5b806001015f8367ffffffffffffffff1667ffffffffffffffff1681526020019081526020015f206003015f9054906101000a900460ff16156105f5576040517f08c379a00000000000000000000000000000000000000000000000000000000081526004016105ec90611910565b60405180910390fd5b6001816001015f8467ffffffffffffffff1667ffffffffffffffff1681526020019081526020015f206003015f6101000a81548160ff0219169083151502179055508167ffffffffffffffff163373ffffffffffffffffffffffffffffffffffffffff16847f25156fd3288212246d8b008d5921fde376c71ed14ac2e072a506eb06fde6d09d60405160405180910390a4505050565b5f5f9054906101000a900473ffffffffffffffffffffffffffffffffffffffff1673ffffffffffffffffffffffffffffffffffffffff1663579a6988886040518263ffffffff1660e01b81526004016106e4919061193d565b602060405180830381865afa1580156106ff573d5f5f3e3d5ffd5b505050506040513d601f19601f820116820180604052508101906107239190611980565b610762576040517f08c379a0000000000000000000000000000000000000000000000000000000008152600401610759906119f5565b60405180910390fd5b3373ffffffffffffffffffffffffffffffffffffffff165f5f9054906101000a900473ffffffffffffffffffffffffffffffffffffffff1673ffffffffffffffffffffffffffffffffffffffff16636352211e896040518263ffffffff1660e01b81526004016107d2919061193d565b602060405180830381865afa1580156107ed573d5f5f3e3d5ffd5b505050506040513d601f19601f820116820180604052508101906108119190611a27565b73ffffffffffffffffffffffffffffffffffffffff1603610867576040517f08c379a000000000000000000000000000000000000000000000000000000000815260040161085e90611a9c565b60405180910390fd5b60128560ff1611156108ae576040517f08c379a00000000000000000000000000000000000000000000000000000000081526004016108a590611b04565b60405180910390fd5b5f60015f8981526020019081526020015f205f3373ffffffffffffffffffffffffffffffffffffffff1673ffffffffffffffffffffffffffffffffffffffff1681526020019081526020015f209050805f015f81819054906101000a900467ffffffffffffffff168092919061092390611b4f565b91906101000a81548167ffffffffffffffff021916908367ffffffffffffffff160217905550505f815f015f9054906101000a900467ffffffffffffffff1690506040518060a0016040528089600f0b81526020018860ff16815260200187878080601f0160208091040260200160405190810160405280939291908181526020018383808284375f81840152601f19601f82011690508083019250505050505050815260200185858080601f0160208091040260200160405190810160405280939291908181526020018383808284375f81840152601f19601f8201169050808301925050505050505081526020015f1515815250826001015f8367ffffffffffffffff1667ffffffffffffffff1681526020019081526020015f205f820151815f015f6101000a8154816fffffffffffffffffffffffffffffffff0219169083600f0b6fffffffffffffffffffffffffffffffff1602179055506020820151815f0160106101000a81548160ff021916908360ff1602179055506040820151816001019081610ab49190611d42565b506060820151816002019081610aca9190611d42565b506080820151816003015f6101000a81548160ff02191690831515021790555090505060035f8a81526020019081526020015f205f3373ffffffffffffffffffffffffffffffffffffffff1673ffffffffffffffffffffffffffffffffffffffff1681526020019081526020015f205f9054906101000a900460ff16610c1e57600160035f8b81526020019081526020015f205f3373ffffffffffffffffffffffffffffffffffffffff1673ffffffffffffffffffffffffffffffffffffffff1681526020019081526020015f205f6101000a81548160ff02191690831515021790555060025f8a81526020019081526020015f2033908060018154018082558091505060019003905f5260205f20015f9091909190916101000a81548173ffffffffffffffffffffffffffffffffffffffff021916908373ffffffffffffffffffffffffffffffffffffffff1602179055505b3373ffffffffffffffffffffffffffffffffffffffff16897f1ecb26d3b47500d671a0d8d81e70fc7e863bf91101e89c68d18edf3893e85854838b8b8b8b8b8b604051610c719796959493929190611e4b565b60405180910390a3505050505050505050565b5f5f5f5f60025f8681526020019081526020015f20805480602002602001604051908101604052809291908181526020018280548015610d1657602002820191905f5260205f20905b815f9054906101000a900473ffffffffffffffffffffffffffffffffffffffff1673ffffffffffffffffffffffffffffffffffffffff1681526020019060010190808311610ccd575b505050505090505f5f90505f5f90505f5f90505f5f90505b8451811015610e8b575f60015f8b81526020019081526020015f205f878481518110610d5d57610d5c611eae565b5b602002602001015173ffffffffffffffffffffffffffffffffffffffff1673ffffffffffffffffffffffffffffffffffffffff1681526020019081526020015f2090505f600190505b815f015f9054906101000a900467ffffffffffffffff1667ffffffffffffffff168167ffffffffffffffff1611610e7c575f826001015f8367ffffffffffffffff1667ffffffffffffffff1681526020019081526020015f209050806003015f9054906101000a900460ff16610e6857805f015f9054906101000a9004600f0b87610e319190611edb565b96508580610e3e90611b4f565b96505060018667ffffffffffffffff1603610e6757805f0160109054906101000a900460ff1694505b5b508080610e7490611b4f565b915050610da6565b50508080600101915050610d2e565b505f8267ffffffffffffffff161115610eb7578167ffffffffffffffff1683610eb49190611f6f565b95505b818682965096509650505050509193909250565b5f5f5f5f90505f5f90505f5f90505b86869050811015611020575f60015f8a81526020019081526020015f205f898985818110610f0b57610f0a611eae565b5b9050602002016020810190610f209190611fd7565b73ffffffffffffffffffffffffffffffffffffffff1673ffffffffffffffffffffffffffffffffffffffff1681526020019081526020015f2090505f600190505b815f015f9054906101000a900467ffffffffffffffff1667ffffffffffffffff168167ffffffffffffffff1611611011575f826001015f8367ffffffffffffffff1667ffffffffffffffff1681526020019081526020015f209050806003015f9054906101000a900460ff16610ffd57805f015f9054906101000a9004600f0b86610fec9190611edb565b95508480610ff990611b4f565b9550505b50808061100990611b4f565b915050610f61565b50508080600101915050610eda565b505f8167ffffffffffffffff16111561104c578067ffffffffffffffff16826110499190611f6f565b92505b8093505050935093915050565b5f60015f8481526020019081526020015f205f8373ffffffffffffffffffffffffffffffffffffffff1673ffffffffffffffffffffffffffffffffffffffff1681526020019081526020015f205f015f9054906101000a900467ffffffffffffffff16905092915050565b5f73ffffffffffffffffffffffffffffffffffffffff82169050919050565b5f819050919050565b5f6111066111016110fc846110c4565b6110e3565b6110c4565b9050919050565b5f611117826110ec565b9050919050565b5f6111288261110d565b9050919050565b6111388161111e565b82525050565b5f6020820190506111515f83018461112f565b92915050565b5f5ffd5b5f5ffd5b5f819050919050565b6111718161115f565b811461117b575f5ffd5b50565b5f8135905061118c81611168565b92915050565b5f61119c826110c4565b9050919050565b6111ac81611192565b81146111b6575f5ffd5b50565b5f813590506111c7816111a3565b92915050565b5f67ffffffffffffffff82169050919050565b6111e9816111cd565b81146111f3575f5ffd5b50565b5f81359050611204816111e0565b92915050565b5f5f5f6060848603121561122157611220611157565b5b5f61122e8682870161117e565b935050602061123f868287016111b9565b9250506040611250868287016111f6565b9150509250925092565b5f81600f0b9050919050565b61126f8161125a565b82525050565b5f60ff82169050919050565b61128a81611275565b82525050565b5f81519050919050565b5f82825260208201905092915050565b8281835e5f83830152505050565b5f601f19601f8301169050919050565b5f6112d282611290565b6112dc818561129a565b93506112ec8185602086016112aa565b6112f5816112b8565b840191505092915050565b5f8115159050919050565b61131481611300565b82525050565b5f60a08201905061132d5f830188611266565b61133a6020830187611281565b818103604083015261134c81866112c8565b9050818103606083015261136081856112c8565b905061136f608083018461130b565b9695505050505050565b5f6020828403121561138e5761138d611157565b5b5f61139b8482850161117e565b91505092915050565b5f81519050919050565b5f82825260208201905092915050565b5f819050602082019050919050565b6113d681611192565b82525050565b5f6113e783836113cd565b60208301905092915050565b5f602082019050919050565b5f611409826113a4565b61141381856113ae565b935061141e836113be565b805f5b8381101561144e57815161143588826113dc565b9750611440836113f3565b925050600181019050611421565b5085935050505092915050565b5f6020820190508181035f83015261147381846113ff565b905092915050565b5f5f6040838503121561149157611490611157565b5b5f61149e8582860161117e565b92505060206114af858286016111f6565b9150509250929050565b6114c28161125a565b81146114cc575f5ffd5b50565b5f813590506114dd816114b9565b92915050565b6114ec81611275565b81146114f6575f5ffd5b50565b5f81359050611507816114e3565b92915050565b5f5ffd5b5f5ffd5b5f5ffd5b5f5f83601f84011261152e5761152d61150d565b5b8235905067ffffffffffffffff81111561154b5761154a611511565b5b60208301915083600182028301111561156757611566611515565b5b9250929050565b5f5f5f5f5f5f5f60a0888a03121561158957611588611157565b5b5f6115968a828b0161117e565b97505060206115a78a828b016114cf565b96505060406115b88a828b016114f9565b955050606088013567ffffffffffffffff8111156115d9576115d861115b565b5b6115e58a828b01611519565b9450945050608088013567ffffffffffffffff8111156116085761160761115b565b5b6116148a828b01611519565b925092505092959891949750929550565b61162e816111cd565b82525050565b5f6060820190506116475f830186611625565b6116546020830185611266565b6116616040830184611281565b949350505050565b5f5f83601f84011261167e5761167d61150d565b5b8235905067ffffffffffffffff81111561169b5761169a611511565b5b6020830191508360208202830111156116b7576116b6611515565b5b9250929050565b5f5f5f604084860312156116d5576116d4611157565b5b5f6116e28682870161117e565b935050602084013567ffffffffffffffff8111156117035761170261115b565b5b61170f86828701611669565b92509250509250925092565b5f60408201905061172e5f830185611625565b61173b6020830184611266565b9392505050565b5f5f6040838503121561175857611757611157565b5b5f6117658582860161117e565b9250506020611776858286016111b9565b9150509250929050565b5f6020820190506117935f830184611625565b92915050565b7f4e487b71000000000000000000000000000000000000000000000000000000005f52602260045260245ffd5b5f60028204905060018216806117dd57607f821691505b6020821081036117f0576117ef611799565b5b50919050565b7f496e76616c696420696e646578000000000000000000000000000000000000005f82015250565b5f61182a600d8361129a565b9150611835826117f6565b602082019050919050565b5f6020820190508181035f8301526118578161181e565b9050919050565b7f466565646261636b20646f6573206e6f742065786973740000000000000000005f82015250565b5f61189260178361129a565b915061189d8261185e565b602082019050919050565b5f6020820190508181035f8301526118bf81611886565b9050919050565b7f416c7265616479207265766f6b656400000000000000000000000000000000005f82015250565b5f6118fa600f8361129a565b9150611905826118c6565b602082019050919050565b5f6020820190508181035f830152611927816118ee565b9050919050565b6119378161115f565b82525050565b5f6020820190506119505f83018461192e565b92915050565b61195f81611300565b8114611969575f5ffd5b50565b5f8151905061197a81611956565b92915050565b5f6020828403121561199557611994611157565b5b5f6119a28482850161196c565b91505092915050565b7f4167656e74206e6f7420726567697374657265640000000000000000000000005f82015250565b5f6119df60148361129a565b91506119ea826119ab565b602082019050919050565b5f6020820190508181035f830152611a0c816119d3565b9050919050565b5f81519050611a21816111a3565b92915050565b5f60208284031215611a3c57611a3b611157565b5b5f611a4984828501611a13565b91505092915050565b7f4f776e65722063616e6e6f742072617465206f776e206167656e7400000000005f82015250565b5f611a86601b8361129a565b9150611a9182611a52565b602082019050919050565b5f6020820190508181035f830152611ab381611a7a565b9050919050565b7f446563696d616c73206d757374206265203c3d203138000000000000000000005f82015250565b5f611aee60168361129a565b9150611af982611aba565b602082019050919050565b5f6020820190508181035f830152611b1b81611ae2565b9050919050565b7f4e487b71000000000000000000000000000000000000000000000000000000005f52601160045260245ffd5b5f611b59826111cd565b915067ffffffffffffffff8203611b7357611b72611b22565b5b600182019050919050565b7f4e487b71000000000000000000000000000000000000000000000000000000005f52604160045260245ffd5b5f819050815f5260205f209050919050565b5f6020601f8301049050919050565b5f82821b905092915050565b5f60088302611c077fffffffffffffffffffffffffffffffffffffffffffffffffffffffffffffffff82611bcc565b611c118683611bcc565b95508019841693508086168417925050509392505050565b5f611c43611c3e611c398461115f565b6110e3565b61115f565b9050919050565b5f819050919050565b611c5c83611c29565b611c70611c6882611c4a565b848454611bd8565b825550505050565b5f5f905090565b611c87611c78565b611c92818484611c53565b505050565b5b81811015611cb557611caa5f82611c7f565b600181019050611c98565b5050565b601f821115611cfa57611ccb81611bab565b611cd484611bbd565b81016020851015611ce3578190505b611cf7611cef85611bbd565b830182611c97565b50505b505050565b5f82821c905092915050565b5f611d1a5f1984600802611cff565b1980831691505092915050565b5f611d328383611d0b565b9150826002028217905092915050565b611d4b82611290565b67ffffffffffffffff811115611d6457611d63611b7e565b5b611d6e82546117c6565b611d79828285611cb9565b5f60209050601f831160018114611daa575f8415611d98578287015190505b611da28582611d27565b865550611e09565b601f198416611db886611bab565b5f5b82811015611ddf57848901518255600182019150602085019450602081019050611dba565b86831015611dfc5784890151611df8601f891682611d0b565b8355505b6001600288020188555050505b505050505050565b828183375f83830152505050565b5f611e2a838561129a565b9350611e37838584611e11565b611e40836112b8565b840190509392505050565b5f60a082019050611e5e5f83018a611625565b611e6b6020830189611266565b611e786040830188611281565b8181036060830152611e8b818688611e1f565b90508181036080830152611ea0818486611e1f565b905098975050505050505050565b7f4e487b71000000000000000000000000000000000000000000000000000000005f52603260045260245ffd5b5f611ee58261125a565b9150611ef08361125a565b925082820190507fffffffffffffffffffffffffffffffff8000000000000000000000000000000081126f7fffffffffffffffffffffffffffffff82131715611f3c57611f3b611b22565b5b92915050565b7f4e487b71000000000000000000000000000000000000000000000000000000005f52601260045260245ffd5b5f611f798261125a565b9150611f848361125a565b925082611f9457611f93611f42565b5b60015f0383147fffffffffffffffffffffffffffffffff8000000000000000000000000000000083141615611fcc57611fcb611b22565b5b828205905092915050565b5f60208284031215611fec57611feb611157565b5b5f611ff9848285016111b9565b9150509291505056fea2646970667358221220f042a43028af2cc87aaa5471e6aa865887627ee38b8a0226b43b5f6edfcd40ae64736f6c634300081c0033","linkReferences":{}},"methodIdentifiers":{"getClients(uint256)":"42dd519c","getLastIndex(uint256,address)":"f2d81759","getSummary(uint256)":"aee14460","getSummaryWithClients(uint256,address[])":"ddc56347","giveFeedback(uint256,int128,uint8,string,string)":"a12ddbc0","identityRegistry()":"134e18f4","readFeedback(uint256,address,uint64)":"232b0810","revokeFeedback(uint256,uint64)":"4ab3ca99"},"id":23}