{"abi":[{"type":"constructor","inputs":[{"name":"_owner","type":"address","internalType":"address"},{"name":"_entryPoint","type":"address","internalType":"address"}],"stateMutability":"nonpayable"},{"type":"receive","stateMutability":"payable"},{"type":"function","name":"entryPoint","inputs":[],"outputs":[{"name":"","type":"address","internalType":"address"}],"stateMutability":"view"},{"type":"function","name":"execute","inputs":[{"name":"to","type":"address","internalType":"address"},{"name":"value","type":"uint256","internalType":"uint256"},{"name":"data","type":"bytes","internalType":"bytes"}],"outputs":[{"name":"result","type":"bytes","internalType":"bytes"}],"stateMutability":"nonpayable"},{"type":"function","name":"getBalance","inputs":[],"outputs":[{"name":"","type":"uint256","internalType":"uint256"}],"stateMutability":"view"},{"type":"function","name":"owner","inputs":[],"outputs":[{"name":"","type":"address","internalType":"address"}],"stateMutability":"view"},{"type":"function","name":"validateUserOp","inputs":[{"name":"userOp","type":"tuple","internalType":"struct UserOperation","components":[{"name":"sender","type":"address","internalType":"address"},{"name":"nonce","type":"uint256","internalType":"uint256"},{"name":"initCode","type":"bytes","internalType":"bytes"},{"name":"callData","type":"bytes","internalType":"bytes"},{"name":"callGasLimit","type":"uint256","internalType":"uint256"},{"name":"verificationGasLimit","type":"uint256","internalType":"uint256"},{"name":"preVerificationGas","type":"uint256","internalType":"uint256"},{"name":"maxFeePerGas","type":"uint256","internalType":"uint256"},{"name":"maxPriorityFeePerGas","type":"uint256","internalType":"uint256"},{"name":"paymasterAndData","type":"bytes","internalType":"bytes"},{"name":"signature","type":"bytes","internalType":"bytes"}]},{"name":"userOpHash","type":"bytes32","internalType":"bytes32"}],"outputs":[],"stateMutability":"view"},{"type":"event","name":"Executed","inputs":[{"name":"target","type":"address","indexed":true,"internalType":"address"},{"name":"value","type":"uint256","indexed":false,"internalType":"uint256"},{"name":"data","type":"bytes","indexed":false,"internalType":"bytes"}],"anonymous":false},{"type":"event","name":"OwnerUpdated","inputs":[{"name":"oldOwner","type":"address","indexed":true,"internalType":"address"},{"name":"newOwner","type":"address","indexed":true,"internalType":"address"}],"anonymous":false}],"bytecode":{"object":"0x60a060405234801561000f575f5ffd5b5060405161126e38038061126e833981810160405281019061003191906101e5565b5f73ffffffffffffffffffffffffffffffffffffffff168273ffffffffffffffffffffffffffffffffffffffff160361009f576040517f08c379a00000000000000000000000000000000000000000000000000000000081526004016100969061027d565b60405180910390fd5b5f73ffffffffffffffffffffffffffffffffffffffff168173ffffffffffffffffffffffffffffffffffffffff160361010d576040517f08c379a0000000000000000000000000000000000000000000000000000000008152600401610104906102e5565b60405180910390fd5b815f5f6101000a81548173ffffffffffffffffffffffffffffffffffffffff021916908373ffffffffffffffffffffffffffffffffffffffff1602179055508073ffffffffffffffffffffffffffffffffffffffff1660808173ffffffffffffffffffffffffffffffffffffffff16815250505050610303565b5f5ffd5b5f73ffffffffffffffffffffffffffffffffffffffff82169050919050565b5f6101b48261018b565b9050919050565b6101c4816101aa565b81146101ce575f5ffd5b50565b5f815190506101df816101bb565b92915050565b5f5f604083850312156101fb576101fa610187565b5b5f610208858286016101d1565b9250506020610219858286016101d1565b9150509250929050565b5f82825260208201905092915050565b7f53413a206f776e65722063616e6e6f74206265207a65726f00000000000000005f82015250565b5f610267601883610223565b915061027282610233565b602082019050919050565b5f6020820190508181035f8301526102948161025b565b9050919050565b7f53413a20656e747279506f696e742063616e6e6f74206265207a65726f0000005f82015250565b5f6102cf601d83610223565b91506102da8261029b565b602082019050919050565b5f6020820190508181035f8301526102fc816102c3565b9050919050565b608051610f456103295f395f81816101670152818161018d01526103b90152610f455ff3fe60806040526004361061004d575f3560e01c806312065fe0146100585780638da5cb5b14610082578063b0d691fe146100ac578063b61d27f6146100d6578063fff35b721461011257610054565b3661005457005b5f5ffd5b348015610063575f5ffd5b5061006c61013a565b6040516100799190610656565b60405180910390f35b34801561008d575f5ffd5b50610096610141565b6040516100a391906106ae565b60405180910390f35b3480156100b7575f5ffd5b506100c0610165565b6040516100cd91906106ae565b60405180910390f35b3480156100e1575f5ffd5b506100fc60048036038101906100f79190610784565b610189565b6040516101099190610865565b60405180910390f35b34801561011d575f5ffd5b50610138600480360381019061013391906108db565b6103b7565b005b5f47905090565b5f5f9054906101000a900473ffffffffffffffffffffffffffffffffffffffff1681565b7f000000000000000000000000000000000000000000000000000000000000000081565b60607f000000000000000000000000000000000000000000000000000000000000000073ffffffffffffffffffffffffffffffffffffffff163373ffffffffffffffffffffffffffffffffffffffff1614610219576040517f08c379a00000000000000000000000000000000000000000000000000000000081526004016102109061098f565b60405180910390fd5b5f73ffffffffffffffffffffffffffffffffffffffff168573ffffffffffffffffffffffffffffffffffffffff1603610287576040517f08c379a000000000000000000000000000000000000000000000000000000000815260040161027e90610a1d565b60405180910390fd5b8473ffffffffffffffffffffffffffffffffffffffff167fcaf938de11c367272220bfd1d2baa99ca46665e7bc4d85f00adb51b90fe1fa9f8585856040516102d193929190610a75565b60405180910390a25f5f8673ffffffffffffffffffffffffffffffffffffffff16868686604051610303929190610ad3565b5f6040518083038185875af1925050503d805f811461033d576040519150601f19603f3d011682016040523d82523d5f602084013e610342565b606091505b509150915081816040516020016103599190610b6f565b604051602081830303815290604052906103a9576040517f08c379a00000000000000000000000000000000000000000000000000000000081526004016103a09190610bd2565b60405180910390fd5b508092505050949350505050565b7f000000000000000000000000000000000000000000000000000000000000000073ffffffffffffffffffffffffffffffffffffffff163373ffffffffffffffffffffffffffffffffffffffff1614610445576040517f08c379a000000000000000000000000000000000000000000000000000000000815260040161043c9061098f565b60405180910390fd5b5f816040516020016104579190610c5c565b6040516020818303038152906040528051906020012090506041838061014001906104829190610c8d565b9050146104c4576040517f08c379a00000000000000000000000000000000000000000000000000000000081526004016104bb90610d39565b60405180910390fd5b5f838061014001906104d69190610c8d565b5f906020926104e793929190610d5f565b906104f29190610daf565b90505f848061014001906105069190610c8d565b60209060409261051893929190610d5f565b906105239190610daf565b90505f858061014001906105379190610c8d565b604081811061054957610548610e0d565b5b9050013560f81c60f81b60f81c90505f6001858386866040515f815260200160405260405161057b9493929190610e64565b6020604051602081039080840390855afa15801561059b573d5f5f3e3d5ffd5b5050506020604051035190505f5f9054906101000a900473ffffffffffffffffffffffffffffffffffffffff1673ffffffffffffffffffffffffffffffffffffffff168173ffffffffffffffffffffffffffffffffffffffff1614610635576040517f08c379a000000000000000000000000000000000000000000000000000000000815260040161062c90610ef1565b60405180910390fd5b50505050505050565b5f819050919050565b6106508161063e565b82525050565b5f6020820190506106695f830184610647565b92915050565b5f73ffffffffffffffffffffffffffffffffffffffff82169050919050565b5f6106988261066f565b9050919050565b6106a88161068e565b82525050565b5f6020820190506106c15f83018461069f565b92915050565b5f5ffd5b5f5ffd5b6106d88161068e565b81146106e2575f5ffd5b50565b5f813590506106f3816106cf565b92915050565b6107028161063e565b811461070c575f5ffd5b50565b5f8135905061071d816106f9565b92915050565b5f5ffd5b5f5ffd5b5f5ffd5b5f5f83601f84011261074457610743610723565b5b8235905067ffffffffffffffff81111561076157610760610727565b5b60208301915083600182028301111561077d5761077c61072b565b5b9250929050565b5f5f5f5f6060858703121561079c5761079b6106c7565b5b5f6107a9878288016106e5565b94505060206107ba8782880161070f565b935050604085013567ffffffffffffffff8111156107db576107da6106cb565b5b6107e78782880161072f565b925092505092959194509250565b5f81519050919050565b5f82825260208201905092915050565b8281835e5f83830152505050565b5f601f19601f8301169050919050565b5f610837826107f5565b61084181856107ff565b935061085181856020860161080f565b61085a8161081d565b840191505092915050565b5f6020820190508181035f83015261087d818461082d565b905092915050565b5f5ffd5b5f610160828403121561089f5761089e610885565b5b81905092915050565b5f819050919050565b6108ba816108a8565b81146108c4575f5ffd5b50565b5f813590506108d5816108b1565b92915050565b5f5f604083850312156108f1576108f06106c7565b5b5f83013567ffffffffffffffff81111561090e5761090d6106cb565b5b61091a85828601610889565b925050602061092b858286016108c7565b9150509250929050565b5f82825260208201905092915050565b7f53413a206f6e6c7920456e747279506f696e74000000000000000000000000005f82015250565b5f610979601383610935565b915061098482610945565b602082019050919050565b5f6020820190508181035f8301526109a68161096d565b9050919050565b7f53413a2063616e6e6f74206578656375746520746f207a65726f2061646472655f8201527f7373000000000000000000000000000000000000000000000000000000000000602082015250565b5f610a07602283610935565b9150610a12826109ad565b604082019050919050565b5f6020820190508181035f830152610a34816109fb565b9050919050565b828183375f83830152505050565b5f610a5483856107ff565b9350610a61838584610a3b565b610a6a8361081d565b840190509392505050565b5f604082019050610a885f830186610647565b8181036020830152610a9b818486610a49565b9050949350505050565b5f81905092915050565b5f610aba8385610aa5565b9350610ac7838584610a3b565b82840190509392505050565b5f610adf828486610aaf565b91508190509392505050565b5f81905092915050565b7f53413a20657865637574696f6e206661696c65643a20000000000000000000005f82015250565b5f610b29601683610aeb565b9150610b3482610af5565b601682019050919050565b5f610b49826107f5565b610b538185610aa5565b9350610b6381856020860161080f565b80840191505092915050565b5f610b7982610b1d565b9150610b858284610b3f565b915081905092915050565b5f81519050919050565b5f610ba482610b90565b610bae8185610935565b9350610bbe81856020860161080f565b610bc78161081d565b840191505092915050565b5f6020820190508181035f830152610bea8184610b9a565b905092915050565b7f19457468657265756d205369676e6564204d6573736167653a0a3332000000005f82015250565b5f610c26601c83610aeb565b9150610c3182610bf2565b601c82019050919050565b5f819050919050565b610c56610c51826108a8565b610c3c565b82525050565b5f610c6682610c1a565b9150610c728284610c45565b60208201915081905092915050565b5f5ffd5b5f5ffd5b5f5ffd5b5f5f83356001602003843603038112610ca957610ca8610c81565b5b80840192508235915067ffffffffffffffff821115610ccb57610cca610c85565b5b602083019250600182023603831315610ce757610ce6610c89565b5b509250929050565b7f53413a20696e76616c6964207369676e6174757265206c656e677468000000005f82015250565b5f610d23601c83610935565b9150610d2e82610cef565b602082019050919050565b5f6020820190508181035f830152610d5081610d17565b9050919050565b5f5ffd5b5f5ffd5b5f5f85851115610d7257610d71610d57565b5b83861115610d8357610d82610d5b565b5b6001850283019150848603905094509492505050565b5f82905092915050565b5f82821b905092915050565b5f610dba8383610d99565b82610dc581356108a8565b92506020821015610e0557610e007fffffffffffffffffffffffffffffffffffffffffffffffffffffffffffffffff83602003600802610da3565b831692505b505092915050565b7f4e487b71000000000000000000000000000000000000000000000000000000005f52603260045260245ffd5b610e43816108a8565b82525050565b5f60ff82169050919050565b610e5e81610e49565b82525050565b5f608082019050610e775f830187610e3a565b610e846020830186610e55565b610e916040830185610e3a565b610e9e6060830184610e3a565b95945050505050565b7f53413a207369676e6174757265206e6f742066726f6d206f776e6572000000005f82015250565b5f610edb601c83610935565b9150610ee682610ea7565b602082019050919050565b5f6020820190508181035f830152610f0881610ecf565b905091905056fea2646970667358221220ccc197ffae6d128644fc54c300ac37411d694f9c4cd4e4aa33c015e79bd982a464736f6c634300081c0033","linkReferences":{}},"methodIdentifiers":{"entryPoint()":"b0d691fe","execute(address,uint256,bytes)":"b61d27f6","getBalance()":"12065fe0","owner()":"8da5cb5b","validateUserOp((address,uint256,bytes,bytes,uint256,uint256,uint256,uint256,uint256,bytes,bytes),bytes32)":"fff35b72"},"id":16}